:020000040800F2
:10000000E0A5002099010008A1010008A301000853
:10001000A5010008A7010008A901000800000000D0
:1000200000000000000000000000000001010008C6
:10003000AD0100080000000045010008E12D0108A5
:10004000B3010008B3010008B3010008B3010008C0
:10005000B3010008B3010008B3010008B3010008B0
:10006000B3010008B3010008B3010008B3010008A0
:10007000B3010008B3010008B3010008B301000890
:10008000B3010008B3010008B3010008B301000880
:10009000AD250008B3010008B30100087112000883
:1000A000B3010008B3010008B3010008B301000860
:1000B00059200008B3010008A1200008B30100087E
:1000C000B3010008B3010008B3010008B301000840
:1000D000B30100083524000869240008B3010008B2
:1000E000B3010008B3010008B3010008DFF80CD029
:1000F00000F0DEFC00480047E11B0108E0A50020FD
:10010000224B19680868B0E8F00F80F30988BFF344
:100110006F8F4FF0000080F311884EF00D0E704786
:100120000000000006480068006880F3088862B696
:1001300061B6BFF34F8FBFF36F8F00DF00BF00BF0B
:1001400008ED00E0EFF30980BFF36F8F0F4B1A68E3
:1001500020E9F00F106008B54FF08F0080F3118890
:10016000BFF34F8FBFF36F8F12F06CFD4FF00000A5
:1001700080F31188BDE8084019680868B0E8F00FFE
:1001800080F30988BFF36F8F704700BF0000002025
:10019000EFF3058070470000064880470648004797
:1001A000FEE7FEE7FEE7FEE7FEE7FEE7FEE7FEE727
:1001B000FEE7FEE709200008ED0000082DE9F04108
:1001C00000242546002905DA01240027D0EB07008A
:1001D00067EB0101002B05DA0027D2EB07020125AE
:1001E00067EB030300F014FB86460E4617469C4659
:1001F000AC4204D00025D0EB050E65EB010624B11E
:100200000020D2EB000760EB030C704631463A4603
:100210006346BDE8F081202A04DB203A21FA02F08F
:100220000021704721FA02F3D040C2F12002914030
:10023000084319467047000000487047C45D010834
:10024000A0F16101192900D8203870470649074AF2
:100250000868504343F23902104408604008704770
:100260000149086070470000402900206D4EC641DA
:1002700010B5431A934209D28318881803E010F886
:10028000011D03F8011D521EF9D210BD40EA010301
:100290009B0703D009E008C9121F08C0042AFAD23C
:1002A00003E011F8013B00F8013B521EF9D210BDEA
:1002B000D2B201E000F8012B491EFBD270470022A8
:1002C000F6E710B513460A4604461946FFF7F0FF55
:1002D000204610BD10B5044604E00B7800F8013B41
:1002E00003B1491C521EF8D2204610BD421C10F822
:1002F000011B0029FBD1801A704710B5002200E0D5
:10030000521C835C8C5CA34201D1002BF8D1D8B283
:10031000E1B2401A10BD30B504460020034600E0AB
:100320005B1C934203D2E05CCD5C401BF8D030BD37
:10033000034611F8012B00F8012B002AF9D11846C9
:100340007047F0B480EA0102D40F4200B2EB410FD3
:1003500002D20246084611464A0042D0C30DDDB221
:10036000C1F3C752AD1A202D35DAC1F3160141F49D
:10037000000204B15242C5F1200602FA06F12A41F8
:100380001044B3EBD05F23D0C4B1012DA0EBC35018
:1003900009DCF0BC4FF0004202EAC35200F5000055
:1003A000DBB200F090BA400000F1807000EBC35067
:1003B000A0F1807040EAD170490009E0490841EAA3
:1003C000C071A0EBC35000F50000400800EBC35023
:1003D000F0BC00F06FBA6142012202EB4101001B48
:1003E000F6E7F0BC704781F00041AAE780F00040DA
:1003F000A7E780EA010210B502F00043400026D0D2
:100400004A0023D04FEA106101EB1261C0F356009D
:10041000C2F3560240F4000042F40002A0FB0220A6
:10042000A1F17F014FEA0040140401D000F1010066
:1004300050EA124001D44000491EC2B20C0604EB3F
:10044000D010401C4008802A02D003E0002010BDDC
:1004500020F00100002900DA0020184310BD2DE92A
:10046000FE4F804681EA0300C00F0C46009021F049
:10047000004123F00045B8EB0200A94105D24046F7
:10048000214690461C460B46024623F0004010438E
:1004900004D14046214603B0BDE8F08F270DC7F3D5
:1004A0000A00C3F30A510290401A0190402866DA0C
:1004B000C3F3130040F4801B0098924620B1002340
:1004C000D2EB030A63EB0B0B01985946C0F14002D3
:1004D000504600F0CEF906460D4650465946019A60
:1004E00000F0D6F910EB08006141002487EA1152B0
:1004F00084EAE7731A433BD0009A3AB3019A012A7F
:100500004FEA075210DC001B61EB02014FF0004282
:1005100002EA0752CDE90042001C41F58011324643
:100520002B4600F00AFAB6E7001B61EB0201001C43
:1005300041F5801300185B412018A2F5001747EB26
:10054000030140EAD570B6196D4111E06D084FEA1C
:10055000360645EAC0754FEA0752001B61EB0201FF
:10056000001C41F5801149084FEA30000019514143
:1005700032462B4603B0BDE8F04F00F0D1B90098E9
:10058000012240000023D0EB020263EBE0730098ED
:1005900021464FEAE074B8EB000061EB0401E9E7A3
:1005A00083F000435BE781F0004158E72DE9FE4FFF
:1005B00081EA030404F0004421F0004100944FF06C
:1005C000000B23F0004350EA010402D052EA030476
:1005D00004D10020014603B0BDE8F08FC3F30A54F4
:1005E000C1F30A552C44A4F2F3340194A0FB025445
:1005F000C1F3130141F48011C3F3130343F48013D7
:1006000001FB024400FB034E840A970A44EA81542A
:1006100047EA8357A4FB076802958D0A05FB078507
:100620004FEA932C04FB0C542705029D4FEA065811
:1006300047EA1637B5EB08056EEB070C870E920EEE
:1006400047EA811742EA8312A7FB0201B6EB0B01CE
:1006500064EB00042B0D43EA0C335E1844EB1C5092
:10066000DA465146E7FB0201C5F313044FEA0B33A8
:1006700043EA14534FEA0432019C43EA0603A4F10F
:100680000C040294009CCDE900B400F056F9A2E7F6
:100690002DE9F04D81EA030404F0004B21F0004500
:1006A00014464FF0000A23F0004150EA050220D022
:1006B00054EA01021DD0C5F30A570246C5F31303DD
:1006C000C1F31300C1F30A5640F4801543F48013BC
:1006D000A7EB0608101BD64608F2FD3873EB0500A1
:1006E00002D308F1010801E092185B41B8F1000F54
:1006F00003DA00200146BDE8F08D00204FF48011A0
:10070000064684460EE0171B73EB050705D3121B44
:1007100063EB050306434CEA010C49084FEA30003D
:1007200092185B4150EA0107EDD152EA030012D062
:1007300082EA040083EA0501084303D100224FF056
:10074000004308E0101BAB4102D20122002302E06B
:100750006FF0010253101AEB06004CEB085110EB3E
:100760000A0041EB0B01BDE8F04D00F0D9B8C10F14
:1007700080EAE0700844CA079623002100F0A3B87D
:1007800000F0004220F00040C10DC0F3160040F41C
:1007900000007F2901DA00207047962903DCC1F1AF
:1007A0009601C84001E096398840002AF4D04042C2
:1007B000704700F0004230F000400AD0C10D01F552
:1007C0006071C0F3160042EA0151C20840071143AC
:1007D000704700200146704701F0004330B421F01B
:1007E000004150EA010206D00A0DA2F56072C1F381
:1007F0001301002A02DC30BC00207047440F44EA99
:10080000C104C100E01830BC00EBC25000F052B887
:100810002DE9F05F0546002092469B468846064635
:10082000814640241BE02846414647462246FFF7C2
:10083000F2FC53465A46C01A914110D3114618464D
:10084000224600F016F82D1A67EB01084F462246A3
:100850000120002100F00DF817EB00094E41201E89
:10086000A4F10104DFDC484631462A464346BDE890
:10087000F09F202A04DB203A00FA02F100207047A2
:100880009140C2F1200320FA03F3194390407047CE
:10089000202A06DBCB17203A41FA02F043EAE07344
:1008A00006E041FA02F3D040C2F120029140084331
:1008B000194670470029A8BF7047401C490008BF6F
:1008C00020F00100704710B4B0FA80FC00FA0CF080
:1008D00050EA010404BF10BC704749B1CCF12004B8
:1008E00021FA04F411FA0CF118BF01212143084345
:1008F000A3EB0C01CB1D0106000A002BBEBF00209C
:1009000010BC704700EBC35010440029A4BF10BCBA
:100910007047401C490008BF20F0010010BC704720
:1009200010B5002B08DA401C41F1000192185B4120
:100930001A4301D120F0010010BD2DE9F04D92467F
:100940009B4611B1B1FA81F202E0B0FA80F2203296
:100950009046FFF78EFF04460F4640EA0A0041EA40
:100960000B0153465A46084303D120463946BDE899
:10097000F08D114653EA010015D0C8F140025046EF
:10098000FFF749FC05460E46504659464246FFF7DA
:1009900070FF084301D0012000E00020054346EA33
:1009A000E0762C4337430A984FEA4453A0EB080003
:1009B0004FEAD4240A304FF0000244EA47544FEA89
:1009C000D72502D500200146D1E70105101969415C
:1009D000DDE9084500196941BDE8F04DA0E770B5B3
:1009E00021F0004303430CD0C1F30A550024D5EB9A
:1009F000040564EB0403D617AD1AB34102DB0020F3
:100A0000014670BD201841EB025170BD2DE9F04D3B
:100A100000231A461B1A8A4103DB00200146BDE869
:100A2000F08DC1F30A52C1F3130141F480154FF068
:100A3000000BD10702D100186D41521E0027044659
:100A400040F2FF11384601EB620A3E4680460246FC
:100A500000204FF48011FFF7DEFBC2197141BB1873
:100A600046EB0100B4EB030C75EB000C04D3E41A65
:100A700065EB000517460E46241908F101006D418B
:100A800080463428E3DDF91946EB0600091BA8412E
:100A900003D24FF0FF32134601E0002213461BEB56
:100AA000070046EB0A51BDE8F04DFFF739BF0000E3
:100AB000064C074D06E0E06840F0010394E80700AB
:100AC00098471034AC42F6D3FFF714FB445F01089B
:100AD000645F01080EB5C10F80EAE0700844CA07E0
:100AE000002140F233438DE80E000A460B46FFF723
:100AF00024FF03B000BD0EB540F233410291002146
:100B0000CDE900110A460B46FFF717FF03B000BD01
:100B100070B5C1F30A5201F000450024C1F313017E
:100B200040F2FF3341F480119A4201DA002070BD97
:100B300040F233439A42A2F2334203DC5242FFF7BF
:100B40006AFB00E090402C43F1D0404270BD70B58C
:100B500001EB020410F8015B15F0070301D110F856
:100B6000013B2A1106D110F8012B03E010F8016BAC
:100B700001F8016B5B1EF9D12B0705D40023521E2F
:100B80000FD401F8013BFAE710F8013B02F1020231
:100B9000A1EB030303E013F8015B01F8015B521EB4
:100BA000F9D5A142D6D3002070BD0000F0B50023D6
:100BB00001261F461BE000BF00EB03142568012D32
:100BC00010D1656815B1012D08D00BE0A568012D85
:100BD00008D1E46834B941F8236007E0A5680DB98D
:100BE000E4680CB10020F0BD41F823705B1C934217
:100BF000E2D30120F0BD10B5012000F0F5FFBDE803
:100C00001040002000F0F0BF70B50023094C0DE04B
:100C1000C55C01EB430604EB15152D7801F8135064
:100C2000C55C5B1C05F00F05655D75709342EFD3E5
:100C300070BD00006035010801460020CA0700D0E1
:100C400080208A0701D540F040004A0701D540F0D6
:100C500020000A0701D540F01000CA0601D540F077
:100C600008008A0601D540F004004A0601D540F08C
:100C70000200090601D540F00100704770B5144626
:100C80000D460646002304E0F05CFFF7D5FFE8546C
:100C90005B1CA342F8D370BD30B50021234A012468
:100CA0000B46455C2D0602D502F8314001E002F802
:100CB0003130455C6D0602EBC10501D56C7000E07A
:100CC0006B70455CAD0602EBC10501D5AC7000E070
:100CD000AB70455CED0602EBC10501D5EC7000E0A0
:100CE000EB70455C2D0702EBC10501D52C7100E0CE
:100CF0002B71455C6D0702EBC10501D56C7100E0FD
:100D00006B71455CAD0702EBC10501D5AC7100E02C
:100D1000AB71455CED0702EBC10501D0EC7100E061
:100D2000EB71491CC9B20729BBD930BD1431002071
:100D3000F0B500210C4D8C465FF080030022CC06FC
:100D400000F801C0240EA618AE5D26B1475C23FA58
:100D500002F637434754521CD2B2082AF3D3491C37
:100D6000C9B20829EAD3F0BD14310020F0B5827A67
:100D7000012191402D4A136843F0010313602B4B6E
:100D80001C331C688C431C60284C284D077B0C349A
:100D900040352E1DA7B927688F4327604788B0F8D4
:100DA00006C047EA0C4790F80AC045F83C7007882F
:100DB000B0F804C047EA0C4790F80AC046F83C7007
:100DC000077B012F0ED127680F4327600468877ABD
:100DD0004FEA344445F837404468857A4FEA344452
:100DE00046F83540114CC57A241D002D256806D0E3
:100DF0000D4325600D4C0589143415B104E08D4375
:100E0000F7E725688D4325600589012D02D1256806
:100E10000D432560407B012802D118680843186003
:100E2000106820F001001060F0BD00000066004076
:100E3000002A426901D00A4300E08A4342617047B8
:100E400010B50368002223F002030360036843F037
:100E5000010303604FF6FF7300E0521C4468E4078F
:100E600001D19A42F9D14268D2073ED08A79012A4B
:100E700002683CD022F080020260CA79012A02682E
:100E800038D022F0400202600A7A012A026834D087
:100E900022F0200202604A7A012A026830D022F051
:100EA000100202608A7A012A02682CD022F008021D
:100EB0000260CA7A012A026828D022F00402026085
:100EC0008A78CC78920742EA04620C7942EA0442BA
:100ED0004C79098842EA0452491E0A43C2610168FA
:100EE00021F001010160002114E0002010BD42F05A
:100EF0008002C1E742F04002C5E742F02002C9E7A4
:100F000042F01002CDE742F00802D1E742F00402BD
:100F1000D5E7491C4268D20701D09942F9D140680F
:100F2000C007E2D1012010BD10B5FFF7DFF980B294
:100F300000EB4002BF21B1EB420F01D8002010BDF1
:100F4000A0EB800001EB400000EBD070401010BD22
:100F500010B50CF01DFE00EB4002BF21B1EB420FBB
:100F600001D8002010BDA0EB800001EB400000EB99
:100F7000D070401010BD0000044A01238340106867
:100F800009B1184300E098431060704700740040B6
:100F900030B5084C236840F6FE7282409343D1E995
:100FA00000252A43D1E902510D432A4382401A43C6
:100FB000226030BD00740040034A08B51044083078
:100FC0000090016008BD0000007400400309054A5C
:100FD000012098400029116801D0014300E08143BD
:100FE0001160704704740040F0B507461E46154670
:100FF0000846FFF751FE00F047F8002400F01EF805
:1010000016B104EB440003E0C4F10F0000EB400014
:1010100005EB001000F0FEF800F096F800F082F802
:10102000204600F005F9641CE4B2102CE6D300F071
:10103000DFF83846BDE8F040FFF77ABE104A10B539
:101040000020A2F1B0010B5C1354401CC0B2202858
:10105000F9D300200A1892F820200A54401CC0B28C
:101060002028F7D306490020064A913901F161038F
:10107000145C645C1C54401CC0B23028F8D310BD12
:101080008431002031370108074910B5054A002096
:10109000A1F13F03145C645C1C54401CC0B24028A6
:1010A000F8D310BDF1360108133100200B490020A0
:1010B0000A780B185B780B54401CC0B21B28F8D37D
:1010C000CA760A7F1C200B185B780B54401CC0B2F8
:1010D0003728F8D381F8372070470000D43000203B
:1010E000074910B5054A0020A1F13F03145C645C78
:1010F0001C54401CC0B23828F8D310BD89360108F2
:101100001331002010B5054B054A00215C5CA45C3E
:101110004454491CC9B23029F8D310BDC136010866
:10112000D3300020074910B5054A002001F14103E2
:10113000145C645C1C54401CC0B22028F8D310BD61
:101140006139010813310020FCB52748274C0121E3
:101150006B4600BF01EB410500EB450210F815504E
:101160005679577806EB45051679EDB206EBC706BA
:101170009778D278BF0007EB4202324404EB811625
:10118000D2B206EB0515AA5C03EB5105891CC9B266
:101190002A700829DED3002101EB410500EB45024E
:1011A00010F815505679577806EB45051679EDB2CB
:1011B00006EBC7069778D278BF0007EB42023244AD
:1011C00004EB8116D2B206EB0515AD5C03EB5102C0
:1011D000891C1678C9B246EA051515700829DBD3B3
:1011E0001846FFF759FDFCBD543100206137010856
:1011F000074910B5054A002001F14103145C645C05
:101200001C54401CC0B24028F8D310BD81390108DD
:10121000D330002010B5054A0021535C445C634084
:101220005354491CC9B23029F7D310BD54310020A2
:101230000E4B30B5A3F130010F28A1F180024FF021
:10124000000008D11C5C0D5C6C401454401CC0B202
:101250002028F7D330BD1C5C0D5C6C401518401C79
:10126000C0B285F820402028F5D330BD843100205D
:1012700010B54FF4807000F023F80E4A0121C2F837
:10128000A012002815D00C480168002911DB016864
:1012900001EB4102094901EB82029268002A08D061
:1012A000006800EB400001EB80008068BDE8104062
:1012B000004710BD00802042F4120020645100203D
:1012C000064A014600201268044B0A4014331B688A
:1012D0000B4202D0002A00D00120704700040140D8
:1012E0002DE9FF5F83460C466846C0F313004FF0BC
:1012F0000851924601EB401600252246594602202D
:1013000000F012FCA41CA4B2012801D0022832D1A2
:101310006D1C0A2DF1D322465946022000F004FC30
:10132000A41CA4B2012826D0022824D05FF0000516
:1013300005EBC50004EB400210325946022000F0D4
:10134000F3FB012817D0022815D06D1C0D2DEFD30B
:1013500000274FF00108B9460025224659460220D1
:1013600000F0E2FBA41CA4B248B1032807D0012876
:1013700007D0022805D0002004B0BDE8F09F404609
:1013800000E0484605EBC70146F821006D1C082D1A
:10139000E3D3A41C7F1CA4B20D2FDDD351466846B5
:1013A00000F0D4F9E8E700002DE9FF5F83460C4622
:1013B0006846C0F313004FF00851924601EB401607
:1013C000002522465946022000F0AEFBA41CA4B220
:1013D00001282BD16D1C0A2DF3D322465946022039
:1013E00000F0A2FBA41CA4B201281FD05FF00005EE
:1013F00005EBC50004EB400210325946022000F014
:1014000093FB012812D06D1C0D2DF1D300274FF056
:101410000108B946002522465946022000F084FB07
:10142000A41CA4B2022805D0012805D0002004B0D5
:10143000BDE8F09F404600E0484605EBC70146F88E
:1014400021006D1C082DE6D3A41C7F1CA4B20D2F17
:10145000E0D35146684600F001F8E8E770B50D4664
:10146000044601460B22002004F0C4FCE17A227BF2
:1014700001EB0221814202D1A07A102801D2002082
:1014800070BD206828606068686020892881A07A23
:10149000A872012070BD000004490A6822F0100201
:1014A0000A600A6802430A60704700000020024098
:1014B000034A116801F038010143116070470000D0
:1014C0000020024008B50379021D13B140F201501B
:1014D00006E05378102B05D0112B09D040F20250B2
:1014E000088008BD0091917803460822054805E070
:1014F0000346009103489178072220300CF028FF22
:1015000008BD00004416002010B50C460831201D0F
:101510000FF075FD2080002801D10820608010BDEB
:1015200010B50C460FF079FD208010BD10B50C46AB
:10153000C079091D0FF076FD2080002801D1102010
:10154000608010BD10B50C46C079091D0FF0FCFD80
:101550002080002801D10420608010BD10B50C4609
:10156000C27900F10801104610F054F8208010BD37
:1015700010B50C46C27900F10801104610F0D6F8FB
:10158000208010BD704770477047000010B58A0773
:1015900021F003040649130F21440F228C689A405E
:1015A00094438C608A68984002438A6010BD0000B2
:1015B00000000140F0B5CA78002502F00F03D20602
:1015C00001D58A7813430C784FF00F0E0122ECB14D
:1015D000D0F800400F8802FA05F63740B74211D123
:1015E0004FEA850C0EFA0CF724EA070703FA0CF40D
:1015F0003C43CF78282F02D0482F02D002E046612A
:1016000000E006616D1C082DE4D304600C88FF2CFB
:101610001ED944685FF0000606F1080702FA07F5D4
:101620000F882F40AF420FD14FEA860C0EFA0CF70D
:10163000BC4303FA0CF73C43CF78282F00D1456117
:10164000CF78482F00D10561761C082EE4D3446082
:10165000F0BD0000F0B5144C002801DAE36900E0A9
:101660006368420D120185B2C0F301579540C0F383
:101670000346032F05D0C2020AD50322B24093438A
:1016800007E023F07062636823F07063636002E038
:10169000AB4343F0706201B12A43002801DAE261F2
:1016A000F0BD6260F0BD0000000001404161704784
:1016B00001617047A0F13001092901D8C8B2704713
:1016C000A0F14101052901D8373804E0A0F16101FA
:1016D000052902D85738C0B270470020704770B54E
:1016E000044600232CE014F81300A0F13005092D66
:1016F00001D8EEB20BE0A0F14105052D01D8373835
:1017000004E0A0F16105052D1ED85738C6B204EBE0
:1017100043004078A0F13005092D01D8E8B20BE074
:10172000A0F14105052D01D8373804E0A0F161058D
:10173000052D09D85738C0B200EB0610C8545B1C01
:101740009342D0D3104670BD184670BD70B50D469B
:10175000044601460822002004F04CFB217A627AFC
:1017600001EB0221814201D0002070BD2068286079
:101770006068686060892881207BA872012070BD44
:10178000F0B5002214460127164600234FEA030550
:1017900050F822C0BCF1000FC5F1070C0CEBC40CD3
:1017A00004D041F82C7083F0010301E041F82C6073
:1017B000521C6D1C042DEBD350F822500DB183F058
:1017C0000103B3BB521C002550F822C0BCF1000F2E
:1017D000C5F1030C0CEBC40C04D041F82C7083F061
:1017E000010301E041F82C60521C6D1C042DEBD369
:1017F00050F822500DB183F00103D3B9521C641C80
:10180000052CC2D3002300244FEA040503EB850610
:1018100051F826600EB184F001046D1C0A2DF5D339
:10182000C3F10305154450F825500DB184F00104AF
:101830000CB10020F0BD5B1C042BE4D30120F0BDF3
:10184000C0F313004FF0085202EB4010AFF30080DA
:10185000F0B5C1F313014FF0085202EB41150A2213
:101860005FF03F0101F03F0350F8233043B10A2AF3
:1018700001D2521E06D0491C8929F3D3C2BB01E014
:101880000922F8E70023491C01271E4600221446BE
:1018900001F03F0C50F82CC0BCF1000FC4F1070C54
:1018A0000CEBC30C04D045F82C7082F0010201E06F
:1018B00045F82C60491C641C042CE9D301F03F045A
:1018C00050F824400CB182F001028AB9491C00246E
:1018D00001F03F0C50F82CC0BCF1000FC4F1030C18
:1018E0000CEBC30C05D045F82C7082F0010202E02D
:1018F00029E045F82C60491C641C042CE8D301F055
:101900003F0450F824400CB182F00102DAB9491CBE
:101910005B1C052BBAD3002200231C4602EB840675
:1019200055F826600EB183F00103641C0A2CF5D330
:10193000C2F103040C4404F03F0450F824400CB1FD
:1019400083F001030BB10020F0BD521C042AE3D345
:101950000120F0BD2DE9FF5F0C46834602A8C0F3CD
:1019600013014FF00858174608EB41162246594616
:10197000042000F0D9F8C0B200F04EF8241DA4B243
:101980000C282CD0002522465946042000F0CCF823
:10199000C0B200F041F8241DA4B20C281FD16D1C68
:1019A000092DF0D304F1D8025946042000F0BCF808
:1019B000C0B200F031F80C2811D000254FF0010919
:1019C000AA4622465946042000F0AEF8C0B200F004
:1019D00023F8241DA4B20C2805D0032806D000202B
:1019E00004B0BDE8F09F46F8259001E046F825A038
:1019F0006D1C372DE5D36846C0F3130108EB411188
:101A00003046FFF7BDFE0028EAD0009838609DF808
:101A1000040038710120E3E7082807D00E2805D01C
:101A2000072801D0012800D1032070470C207047FF
:101A300070B5002301251E4617E000BF50F8334063
:101A4000012C01D03CB10BE000EBC30464683CB94D
:101A500041F8235008E000EBC3046468012C01D076
:101A6000002070BD41F823605B1C9342E6D3012047
:101A700070BD00F01F020121914040094FF0E022AB
:101A800002EB8000C0F80011704700F01F02012136
:101A9000914040094FF0E02202EB8000C0F80011B5
:101AA000704700F01F020121914040094FF0E022F1
:101AB00002EB8000C0F80011704700000907090E12
:101AC000002803DA00F00F00024A00E0024A8154C5
:101AD0007047000014ED00E000E400E00907090E83
:101AE000002803DA00F00F00024A00E0024A8154A5
:101AF0007047000014ED00E000E400E00907090E63
:101B0000002803DA00F00F00024A00E0024A815484
:101B10007047000014ED00E000E400E001490862B5
:101B20007047000000000E4230B504460020034616
:101B300009E0D518C5F30905400051F825500DB14D
:101B400040F001005B1CA342F3D330BD10B5047814
:101B500043788278C07831B1120404EB032102EBA0
:101B60000060084410BD190400EB022001EB046181
:101B7000084410BD034A516821F4404101435160BB
:101B80007047000000100240044A0029D16901D0CA
:101B9000014300E08143D161704700000010024022
:101BA000044A0029116901D0014300E08143116119
:101BB0007047000000100240044A0029916901D0DA
:101BC000014300E081439161704700000010024032
:101BD000044A0029D16801D0014300E08143D1606B
:101BE0007047000000100240014908607047000083
:101BF000400442420C48016841F001010160416823
:101C00000A4A114041600168094A114001600168B7
:101C100021F480210160416821F4FE0141604FF40C
:101C20001F01816070470000001002400000FFF8B3
:101C3000FFFFF6FE30B520494A6812F00C031F4A38
:101C400003D0042B01D0082B22D002604A680F2356
:101C50001B4C03EA1212A35C0268DA4042604B6834
:101C6000072505EA1323E35C22FA03F383604B683C
:101C700005EAD323E35C22FA03F2C2604968032336
:101C800003EA9131231F595CB2FBF1F1016130BDD0
:101C90004A684B6802F470124FF0020413F4803F5C
:101CA00004EB924202D04B689B0301D5054B00E048
:101CB000024B5A43C9E700000010024000127A00AC
:101CC0005400002000093D00024600205309094944
:101CD000012B0BD0022B0BD0D1F8241002F01F02E5
:101CE000012393400B4200D0012070470968F5E7BB
:101CF000096AF3E7001002400248406800F00C0057
:101D00007047000000100240034A516821F0F001C2
:101D10000143516070470000001002400B490A68FF
:101D200022F480320A600A6822F480220A60B0F548
:101D3000803F07D0B0F5802F03D1086840F4A02081
:101D400008607047086840F48030F9E700100240EE
:101D5000034A516821F4E06101435160704700007B
:101D60000010024003494A6822F4605242EAC0006F
:101D70004860704700100240014908667047000043
:101D800000004242034A5368084323F47C1318437B
:101D9000506070470010024002490A6A02430A621A
:101DA0007047000000100240034A516821F003010F
:101DB0000143516070470000001002400149086073
:101DC00070470000D800424218B500204FF4A064CC
:101DD00000903120FFF778FF0099491C0091A14243
:101DE00001D00028F5D03120FFF76EFF002800D089
:101DF000012018BD02490A8882430A80704700000A
:101E0000042800400248018841F010010180704719
:101E1000042800400248018821F010010180704729
:101E200004280040034800880249091F098840EA45
:101E3000014070471C28004000B50246FFF7E2FF52
:101E40000449100C0880081D02805DF804EBFFF7C0
:101E5000E1BF00001828004000B50246FFF7D2FF9E
:101E60000449C2F303400880081D02805DF804EBBA
:101E7000FFF7D0BF08280040024801888906FCD53A
:101E800070470000042800400448018821F0080140
:101E9000018001880907FCD5704700000428004034
:101EA00005480289418903894089C01A914201D2BB
:101EB00000F5806080B27047345100200021020E8E
:101EC00062F30701C0F3074262F30F21C0F3072258
:101ED00062F3174160F31F61084670472DE9F04136
:101EE00080460E460846FEF701FA054600240DE03E
:101EF00018F80400FEF7A4F90746305DFEF7A0F9D4
:101F0000874202D00020BDE8F081641CAC42EFDBC8
:101F10000120F8E7F8B5114F0C46B0FBF7F605467F
:101F200069460020009604F04FF82070694603F0DF
:101F3000E7FF607000984FF46162401CA07007FBDF
:101F40001650B0FBF2F102FB1100E1703C22B0FB35
:101F5000F2F102FB110021716071F8BD80510100A6
:101F60000CB50021264801910091026842F48032AC
:101F700002604FF4A063026802F400320092019AFA
:101F8000521C0192009A12B9019A9A42F3D1026846
:101F9000920333D5012100911A490A6842F01002D8
:101FA0000A600A6822F003020A600A6842F002022C
:101FB0000A604168416041684160416841F4806164
:101FC0004160416821F47C114160416841F4E811AD
:101FD0004160016841F08071016001688901FCD5B0
:101FE000416821F003014160416841F00201416014
:101FF0004168C1F381010229FAD10CBD00910CBDE9
:1020000000100240002002400F4810B5016841F066
:102010000101016041680D4A1140416001680C4AAC
:1020200011400160016821F480210160416821F4C0
:10203000FE0141604FF41F018160FFF791FF0549E8
:102040004FF00060086010BD001002400000FFF873
:10205000FFFFF6FE08ED00E070B54FF08040002570
:1020600005820E480D4E00F51064D0F8FC18D0F82B
:10207000000981420AD9C0F30A00304490F8FB00FD
:102080000EF06EFF2068401C206070BD0EF08AFFCD
:1020900080200EF065FF357070BD0000247F0020A9
:1020A00070B5174C0121204600F0F8F800284FF0D9
:1020B000010120461ED000F02CF8124C2068124D71
:1020C00000EB400005EB800040688047002815D0F9
:1020D0002068401E20602068002807DB206800EB95
:1020E000400055F82000BDE870400047BDE8704052
:1020F0000FF0CCBCBDE8704000F00BB870BD000024
:1021000000080040F412002064510020C9430182FD
:102110007047C943018270470029018802D041F00D
:10212000010101E021F00101018070474B4910B528
:10213000884202D10121C41486E0B0F1804F09D059
:10214000474988420DD101210220FFF729FD0021D6
:10215000022064E001210846FFF722FD0021012052
:102160005DE04049884206D101210420FFF718FDB7
:102170000021042053E03C49884206D10121082077
:10218000FFF70EFD0021082049E03849884206D1BA
:1021900001211020FFF704FD002110203FE0344909
:1021A000884206D101212020FFF7FAFC00212020DF
:1021B00035E03049884202D10121441444E02E49DF
:1021C000884202D10121CC043EE02C49884202D150
:1021D00001210C0538E02A49884202D101214C0531
:1021E00032E02849884206D101214020FFF7D8FC7F
:1021F0000021402013E02449884206D1012180209B
:10220000FFF7CEFC0021802009E0204988420AD156
:10221000841501212046FFF7C3FC00212046BDE8BC
:102220001040FFF7BDBC1A49884202D101210C04BD
:102230000AE01849884202D101214C0404E0164901
:1022400088420AD101218C042046FFF7C1FC2046B8
:10225000BDE810400021FFF7BBBC10BD002C0140C1
:102260000004004000080040000C00400010004046
:102270000014004000340140004C01400050014077
:102280000054014000180040001C004000200040A5
:102290000040014000440140004801400246002047
:1022A000138A92890B4202EA010202D0002A00D06E
:1022B00001207047002A828901D00A4300E08A4346
:1022C0008281704770B5028C22F480520284048CA3
:1022D0008288838B0D8823F4E6464FF6FF7303EA6A
:1022E0000525354324F400560C8903EA04343443AD
:1022F0004E8803EA06362643094CA04202D0094C18
:10230000A04205D122F480448A8903EA8212224342
:1023100082808583C988A0F84010068470BD0000C3
:10232000002C014000340140002101804180818067
:10233000C180018141818181C18170470185828293
:10234000704781847047000030B502881B4B1C4CDD
:1023500098420DD0A0420BD0B0F1804F08D0194D5B
:10236000A84205D0184DA84202D0184DA84203D16A
:1023700022F070054A882A43154DA84206D0154D13
:10238000A84203D022F44075CA882A4302808A8872
:1023900082850A88028598420AD0A04208D00E4A57
:1023A000904205D00D4A904202D00D4A904201D190
:1023B000097A01860121818230BD0000002C014094
:1023C000003401400004004000080040000C0040C0
:1023D0000010004000140040004001400044014053
:1023E000004801404FF6FF71818000210180C180CB
:1023F00041800172704730B50446007840F26D119B
:102400004143C21C01EB9205A278617803F0BCFD48
:10241000E1784FF46162514322792844C2EB021201
:1024200001EB82016279114440F2A322504301EB97
:10243000C01030BD0A4801880A0700F1040101D527
:10244000088870470288920604D50888C1B20548FA
:102450000FF07CB9018821F00F0101807047000066
:1024600000380140C8880020104810B501880A07CC
:1024700000F1040101D5088810BD028812F0280F70
:102480000ED00B480988006803688268B2FBF3F439
:1024900003FB1422024411738168491C816010BD42
:1024A000018821F00F01018010BD000000440040B0
:1024B0003C2900200029818902D041F4005101E02B
:1024C00021F400518181704710B5C1F3421301F02E
:1024D0001F040121A140012B07D0022B07D014308B
:1024E000002A026805D00A4304E00C30F8E71030F7
:1024F000F6E78A43026010BD30B50446008A85B015
:102500000D464CF6FF710840E98801432182A189FC
:102510004EF6F3100140A8882A8910436A890A43BD
:102520001043A081A08A4FF6FF410840A9890143CA
:10253000A1826846FFF77EFB1B48844201D10398C5
:1025400000E00298A1890904002900EBC00101EB19
:102550000010296802DA4FEA410101E04FEA8101E7
:10256000B0FBF1F06422B0FBF2F14FEA01114FEA47
:1025700011136FF018056B4300EB8300A3891D0452
:102580004FF0320306D503EBC000B0FBF2F000F0D1
:10259000070005E003EB0010B0FBF2F000F00F00C5
:1025A0000843208105B030BD003801403EB5002011
:1025B000009001900E2004F019F902900CF002FE38
:1025C000002817D00C4C00236A4601A9606910F05E
:1025D00077FD6B4602220948A16910F0ADFF009813
:1025E000002807D006494FF080500860BFF34F8F96
:1025F000BFF36F8F3EBD00000C1900208929010830
:1026000004ED00E00FB4084B10B504A902AA03982A
:1026100000F04CFB044602A9002000F076FD2046A5
:1026200010BC5DF814FB00000B310008490050EAB3
:10263000C12018BF04204A0D18BF40F0010040F22D
:10264000FF72B2EB515F08BF40F00200012808BFE3
:10265000052070472DE9F74F144696B00021C4E9D4
:1026600002111799089121F00045CA498D4206DCF4
:102670001799C4E9000119B00020BDE8F08FC649E0
:10268000DFF818A3A9423CDD0899C54E0029C54FC3
:10269000C54A1799534619DDFDF782FF554506D007
:1026A000C24AC34BFDF77CFFC4E900010AE04FF0CA
:1026B000D352BF4BFDF774FF32463B46FDF770FF28
:1026C000C4E9000119B00120BDE8F08FFDF7C7FE95
:1026D000554506D0B54AB64BFDF7C1FEC4E9000129
:1026E0000AE04FF0D352B24BFDF7B9FE32463B46FB
:1026F000FDF7B5FEC4E9000119B04FF0FF30BDE8A9
:10270000F08FAC49A942179978DB21F00048834645
:10271000A94AAA4B4146FDF749FF0022A84BFDF705
:102720009EFEFEF7F5F90990FEF7D4F906460F462E
:102730009D4A5346FDF73AFF5A464346FDF733FF9D
:1027400080468A46994A9A4B30463946FDF72EFF15
:102750002A0D01250B9242465346FDF724FF032D17
:10276000C4E9000139D00B98C1F30A51401A05EBB6
:1027700045111139814230DA9248C346784400EB62
:102780000510CDF81CA00C90D0E900233046394646
:10279000FDF70CFFCDE9020102460B4658460799AA
:1027A000FDF7FEFE80468A4602460B4658460799CC
:1027B000FDF7F6FEDDE90223FDF7F2FE83460C98F5
:1027C00003913946D0E902233046FDF7EFFE5A4621
:1027D000039BFDF7E5FE6D1CBDE708980028A2BF2E
:1027E000099819B0BDE8F08F616881F0004161601F
:1027F000099819B04042BDE8F08FFFE7C1F313011B
:1028000041F480110E911799C1F30A51A1F2F532EA
:10281000511102F01F08C8F12002129200220C92FE
:102820000D92694A7A4402EB810101F1140C0DA961
:102830005FF00607DCF80020DCF8045002FA08F329
:10284000129AD1F800A025FA02F21A430E9BA2FBBD
:102850000356A2FB00329A4415449A4534BF4FF008
:10286000010B4FF0000B51F8043C05EB0B0E7344C9
:10287000954234BF012200221644BBF1000F02D062
:10288000AB4202D903E0AB4201D2012200E00022B8
:102890003244C1F800A041E90223091FACF1040C45
:1028A0007F1EC7D10898DDE90A6500F10050800F4E
:1028B00011900898099F8000FEF70CF980468A461F
:1028C0003846FEF718F96FF01D02FEF788F8074644
:1028D00030460591FEF70FF96FF03D02FEF77FF8E5
:1028E000CDE903102846FEF706F96FF05D02FEF70A
:1028F00076F8064602460B460191DDE90310FDF726
:10290000AEFD3A46059BFDF7AAFD42465346FDF74C
:10291000A6FD00200D46834642465346FDF740FE85
:102920003A46059BFDF73CFEDDE90332FDF738FE34
:102930003246019BFDF737FEDFF89480234A434679
:10294000FDF734FE06460F46224A234B58462946D9
:10295000FDF72CFE32463B46FDF781FD0F4606464D
:102960004FF0A842434658462946FDF71FFE32461F
:102970003B46FDF774FD179A12F0004F04D0119AF0
:1029800081F0004152421192C4E90001119819B03E
:10299000BDE8F08FFB21E93F7CD90240FB21F93FE4
:1029A0007370032E8A19A33B000040543163621AEE
:1029B00061B4D03DFB21394183C8C96D305FE43F2C
:1029C0000000E03F7836010000360100182D445425
:1029D000FB21F93D3326A611460B113C2DE9FF4D95
:1029E00021F0004807460C46B8F1795F08DAFEF797
:1029F0008FF8002801BF0020324904B0BDE8F08DF7
:102A00003A46234610461946FDF7D0FD05460246D4
:102A10002D480E460B460621784400F05DF82A4604
:102A20003346FDF7C3FDDDE9022382468B46384677
:102A30002146FDF7BBFD04460F4652465B4628463D
:102A40003146FDF7B3FD22463B46FDF7A9FD07469B
:102A50008A464FF0FF3228463146FDF7C0FF1B4A39
:102A600090450ADA3A465346FDF79AFD04B0002233
:102A7000BDE8F04D134BFDF796BD154A4245A8BF82
:102A8000A8F500154FF00004B8BF124D22462B46A2
:102A9000FDF786FD0646884622462B46002009495A
:102AA000FDF77EFD04460D463A4653463046414604
:102AB000FDF776FD04B022462B46BDE8F04DFDF74C
:102AC00072BD00000000F03FAC3301003333D33F50
:102AD0000000E93F0000D23F2DE9F0414F1E00EB1E
:102AE000C7010446D1E9000115461E4637F006022B
:102AF0000DD02A463346FDF759FD7F1E04EBC70370
:102B0000D3E90023FDF7ABFC37F00602F1D1022F29
:102B100025D0042F13D0062F18BFBDE8F0812A4618
:102B20003346FDF743FDD4E90A23FDF798FC2A4616
:102B30003346FDF73BFDD4E90823FDF790FC2A4618
:102B40003346FDF733FDD4E90623FDF788FC2A461A
:102B50003346FDF72BFDD4E90423FDF780FC2A461C
:102B60003346FDF723FDD4E90223FDF778FC2A461E
:102B70003346FDF71BFDD4E90023BDE8F041FDF726
:102B80006EBC00002DE9FF4D054621F0004084B0E9
:102B90000C46B0F1795F0BDA2846FFF747FD0428B1
:102BA00008BF00F065F8284608B02146BDE8F08D62
:102BB0002A460B461046FDF7F9FC06460F462A4604
:102BC0002346FDF7F3FC804626488A4632463B46BC
:102BD00005217844FFF780FF83461098029160B387
:102BE000214A224B40465146FDF7E0FCCDE9000169
:102BF0005A4640465146029BFDF7D8FC824688461D
:102C0000DDE906014FF0FF32FDF7E9FE524643468B
:102C1000FDF7C6FC32463B46FDF7C8FCDDE906235E
:102C2000FDF7BEFCDDE90023FDF7BAFC08B02A463B
:102C30002346BDE8F04DFDF7B6BC0B465A4630467C
:102C40003946FDF7B3FC084A084BFDF708FC42463D
:102C50005346FDF7ABFC08B02A462346BDE8F04DCD
:102C6000FDF7FDBBEA320100495555555555C5BF25
:102C7000024A00201107FDF7B2BE000001FDFFFF70
:102C800002E008C8121F08C1002AFAD17047704735
:102C9000002001E001C1121F002AFBD17047000093
:102CA0000149086070470000442900202DE9FF4FCA
:102CB0008DB00F4605460026DEE1252874D100249C
:102CC0006D1CF149A246A14601222B78203B02FA55
:102CD00003F0084202D004436D1CF6E728782A2846
:102CE00010D06FF02F022878A0F13001092915D8F3
:102CF0000AEB8A0102EB410144F0020400EB010AF5
:102D00006D1CF0E757F804ABBAF1000F03DA44F496
:102D10000054CAF1000A44F002046D1C28782E28E1
:102D200017D115F8010F44F004042A280ED06FF0D3
:102D30002F022878A0F1300109290AD809EB89016E
:102D400002EB410100EB01096D1CF2E757F8049B0F
:102D50006D1C28786C280FD006DC4C2817D068280A
:102D60000DD06A2814D104E0742810D07A280FD12D
:102D70000DE044F400140AE044F4801401E044F44B
:102D800040146978814202D16D1C04F580146D1CD9
:102D90002A786E2A20D00DDC632A33D005DC002A85
:102DA0006FD0582A12D1A2E011E0642A6AD0692AB1
:102DB0000CD167E0732A2FD004DC6F2A6FD0702A01
:102DC00004D199E0752A6BD0782A6AD01046DDE9E3
:102DD0000F129047761C4EE1C4F30250022806D031
:102DE00003280AD0042801CF0AD0066043E101CFAE
:102DF0004FEAE671C0E900613DE101CF06803AE1AA
:102E0000067038E117F8040B8DF8000000208DF8EB
:102E10000100EB46012003E057F804BB4FF0FF3000
:102E200061074FF0000102D40DE008F1010188466E
:102E300049450FDA8045F8DB1BF808100029F4D16A
:102E400008E008F1010188468142FADB1BF808100E
:102E50000029F6D1DDE90F23AAEB080081462146BF
:102E600000F03BF9304400EB080604E0DDE90F1206
:102E70001BF8010B9047B8F10108F7D221464846EC
:102E8000F4E0FDE00A21C4F302534FF0000B089177
:102E9000022B07D001CFC117032B09D00AE034E081
:102EA00023E024E0FF1D27F00707F7E8020105E013
:102EB00000B2C117042B01D140B2C117002907DAB3
:102EC0004FF0000CD0EB0C006CEB01012D2302E065
:102ED000230504D52B238DF82430012303E0E307D9
:102EE00001D02023F7E7984650E00A210EE0102099
:102EF0004FF0000B08900CE010214FF0000B44F055
:102F000004044FF00809089103E008214FF0000B7A
:102F10000891C4F30253022B04D001CF0021032BEC
:102F200006D006E0FF1D27F00707F7E8020103E0DF
:102F300080B2042B00D1C0B24FF00008230725D582
:102F4000702A2AD0DDF820C08CF0100C5CEA0B0C43
:102F500009D150EA010306D030238DF824308DF8D2
:102F6000252002239846DDF820C08CF0080C5CEA8E
:102F70000B0C0BD150EA010301D1630706D53023B6
:102F80008DF824304FF00108A9F10109582A09D021
:102F90003EA20B9208AA0A9211E040238DF8243039
:102FA0000123DFE73EA2F4E75B46089AFDF730FC19
:102FB0000B9B9B5C0A9AA2F101020A92137050EAE1
:102FC0000102F1D10A98ADEB000000F1200B60077F
:102FD00002D524F4803401E04FF00109D94502DD27
:102FE000A9EB0B0000E0002000EB0B01414408902E
:102FF000AAEB010AE00306D4DDE90F23214650467F
:1030000000F06BF80644002008E009A911F8090057
:10301000DDE90F129047761C09F101008146404519
:10302000F3DBE0030CD5DDE90F232146504600F029
:1030300054F8064404E0DDE90F1230209047761C76
:103040000899481E08900029F5DC08E00A980A99BA
:103050000078491C0A91DDE90F129047761CBBF1FC
:103060000001ABF1010BF1DC21465046DDE90F23F5
:1030700000F020F806446D1C287800287FF41DAE6F
:1030800011B03046BDE8F08F0928010030313233ED
:103090003435363738396162636465660000000094
:1030A000303132333435363738394142434445467E
:1030B000000000002DE9F041044600251E46174699
:1030C000880405D406E039462020B04705F1010503
:1030D000641EF8D52846BDE8F0812DE9F04104468C
:1030E00000251E469046C80301D5302700E0202762
:1030F000880405D506E041463846B04705F101058C
:10310000641EF8D52846BDE8F0810A68531C0B60A0
:103110001070704710B50AF0BDFE0549884206D010
:103120000AF06EFFBDE8104001480AF007BE10BD6E
:10313000841600207047000010B50A2181600549FF
:10314000002008800BF006FBBDE8104064200FF063
:1031500095BC000054890020022003F0B5BB00009C
:1031600010B5782102200BF020F8BDE8104002498C
:1031700003200AF0C3BF00005489002001F5FA7152
:10318000816006F0B1BC000020B1014680220348F6
:10319000FDF76EB80149002008807047548900206F
:1031A000FA2181607047000010B59CB038220021E0
:1031B00001200AF0E9FF3922002102200AF0E4FF91
:1031C0003A22002103200AF0DFFF3F2210210320D2
:1031D0000AF0DAFF0D22002104200AF0D5FF324860
:1031E00032A1026811A8FFF70DFA11AA0A210120E5
:1031F0000AF03CFF2F4C207D010643D5400607D541
:103200003D220A2103200AF0BFFF01A9202006E089
:103210003E220A2103200AF0B7FF01A900200AF08C
:1032200021FB002001A92A2203E00B18401C5A7040
:10323000C0B29DF804308342F7D80A460A21022022
:103240000AF0F8FE207D800701D5072200E0082261
:103250001A2103200AF098FFD4E90C0150EA010278
:1032600016D0B4F9182019AB0EF082FE9DF8660056
:1032700000909DF865309DF864200FA111A8FFF71C
:10328000C1F909E03C220A2103200AF07DFFDEE7B4
:103290000EA111A8FDF74CF811AA0A2104200AF08A
:1032A000E5FE1CB010BD0000F0120020253038589B
:1032B00000000000404500203230253032642D25CA
:1032C0003032642D25303264000000002D2D0000C6
:1032D00000B591B08623072205496846FFF792F9A9
:1032E000694602200AF0D0FE07F038F811B000BDA0
:1032F000203A010810B5A4B0092101200AF055FFB9
:103300000A2102200AF051FF69460A200AF09EFCB9
:10331000BDF800000A2802D90A20ADF80000862373
:10332000072213A120A8FFF76DF9002020A96B4602
:103330000BE000BFBDF8004003EB44046280BDF821
:103340000020521CADF80020401C0A5C002AF1D17C
:10335000194602200AF004FF0B2103200AF025FF82
:1033600006F0FCFF054802F08FFE24B010BD0000FF
:103370005625582E253032582D344700E09304004E
:1033800010B50446000603D5BDE810400AF00ABB9C
:10339000600604D506F066F808B9FFF7BBFE24F016
:1033A00080000AF09DFDE00715D009F0BFFC0A4C33
:1033B000216801F5967188420DD906F08FFB08B19E
:1033C0000AF0A6FD06F0E0FF002804D006F0C6FFD4
:1033D00009F0ACFC206010BD7402002010B501F0B3
:1033E00055F84FF47A7000E064200FF047FB07F0C7
:1033F00075FA0006F8D5012009F031FEBDE810404D
:103400000AF09EBFFA2181607047000030B5AFB06E
:103410005D22002101200AF0B7FE5E220021022079
:103420000AF0B2FE6022002103200AF0ADFE37222E
:10343000002104200AF0A8FE68460AF0E9F96A466D
:10344000092101200AF07EFE29A928A80AF0D2F954
:10345000DDE92823092102200AF090FC2AA80BF0BC
:1034600059F99DF8A80080061BD5DDE92801DDE9A2
:103470002D2302F025FB05461349FCF7BAFFFDF7A3
:103480007FF9642190FBF1F201FB12042846FDF75D
:1034900077F9024623460DA120A8FFF7B3F820AA2A
:1034A00000E00CA2092103200AF0E0FD0A480BA16C
:1034B0004378027820A8FFF7A5F820AA0921042064
:1034C0000AF0D4FD2FB030BD0000C84225642E257F
:1034D000303264002D2D0000B50A0020253032580E
:1034E00025303258000000004968142909D010DD49
:1034F00024290ED084290CD18189002909D0491EA4
:1035000004E08189C289491C914202D2818106F07E
:10351000EBBA70471CB5044668460AF009F9BDF8D5
:10352000040038B10020A081BDF80400E0810098BB
:1035300020611CBD4FF4FA6120460AF0C7FB1CBD98
:103540007FB50446C0894FF4FA65C0B1A1892069EE
:10355000401A401EB0FBF5F105FB110569462846EF
:103560000AF0F4F86946204600F018FA9DF80000C9
:1035700006280CD2DFE800F00B0C11161B214721A6
:1035800002200AF012FE294620460AF09FFB7FBD6A
:103590002946204600F086F97FBD2946204600F0E6
:1035A000BEF97FBD2946204600F0AEFA7FBD6A46CF
:1035B0002946204600F09EF87FBD2946204600F0AF
:1035C000D7FA7FBD0AF0A0BB70B514460D4606467B
:1035D00088B07B22002103200AF0D6FD6B462246EC
:1035E0002946304606F01AF96A460A2103200AF0F5
:1035F0003DFD08B070BD000010B5174A90B005AB96
:10360000B2F918200EF0D8FC5222002101200AF055
:10361000BBFD9DF814006421B0FBF1F201FB120226
:103620009DF817000DF1040CBDF81A409DF81930F3
:103630009DF81810ACE81B009DF8160000909DF84E
:10364000153006A107A8FEF7DDFF07AA0A21012011
:103650000AF00CFD10B010BD40450020253032644A
:103660002D253032642D2530326420253032643AE5
:10367000253032643A253032642E25303364000020
:1036800070B514460E4605468EB07A2200210220FF
:103690000AF07AFD30460AF003F800210B910C91F4
:1036A000A0F57F41FF3916D00BA90AF0CDF8E80646
:1036B0000CD56078E278A1788DE8070023780BAA12
:1036C00006A103A8FEF79EFF03AA00E00BAA0A21A9
:1036D00002200AF0CBFC0EB070BD00002573282537
:1036E000303258253032582530325825303258295A
:1036F0000000000030B515460C4693B04922002169
:1037000001200AF041FD43480CABB0F91820D5E97F
:1037100002010EF02DFC9DF830006421B0FBF1F2A7
:1037200001FB12029DF832009DF835509DF83430AF
:103730009DF833108DE82B009DF8313036A104A898
:10374000FEF760FF04AA0A2101200AF08FFCA0B254
:103750000FAB0122022109F0DDFF9DF83C00022899
:103760000DD001280DD04C22002102200AF00CFDC2
:103770009DF83C00022806D0012804D01CE04A2213
:10378000F2E74B22F0E70422A0B20EAB114609F09B
:10379000C1FF9DF83B109DF83A00CDE900019DF86E
:1037A00039309DF8382024A104A8FEF72BFF04AA85
:1037B0000A2102200AF05AFC4E22002104200AF0BD
:1037C000E3FCA0B211AB02220A2109F0A3FFBDF86D
:1037D00044201EA104A8FEF715FF04AA0A21042014
:1037E0000AF044FC4D22002103200AF0CDFCA0B2D7
:1037F00010AB0122082109F08DFF9DF8402011A196
:1038000004A8FEF7FFFE04AA0A2103200AF02EFCFA
:1038100013B030BD40450020253032642D253032B4
:10382000642D2530326420253032643A25303264EC
:103830003A253032640000002530325825303258A5
:103840002530325825303258000000002564000031
:1038500010B5044600780F218AB0B1EB101F01D1DA
:103860004A2200E04B22002104200AF08DFCE1787E
:10387000A078CDE900016378227805A102A8FEF7BF
:10388000C1FE02AA0A2104200AF0F0FB0AB010BD12
:1038900025303258253032582530325825303258AC
:1038A0000000000010B590B00C4688B26B46302284
:1038B000082109F02FFF69460CA805F064FEBDF849
:1038C000080001064FEAC06008D5002808DB002187
:1038D00004A80EF029FBFFF78FFE07E0002805DAA9
:1038E000002107A80EF020FB00F0CAF8BDF8080080
:1038F00006AAC0B20CA9FFF7C3FEBDF80E20BDF8A2
:1039000006100CA8FFF760FE0422A0B20EAB114611
:1039100009F000FF0EA8FFF79BFF10B010BD10B517
:103920009EB00C4688B210AB3022082109F0F2FE9E
:1039300010A91CA805F027FE002114A80EF0F4FA27
:10394000FFF75AFEBDF8480016AAC0B21CA9FFF73F
:1039500097FEBDF84E20BDF846101CA8FFF734FEB8
:103960005022002104200AF00FFCA0B26B46402236
:10397000382109F0CFFE002069462A2203E00B1807
:10398000401C5A7080B29DF800308342F7D80A4636
:103990000A2104200AF04EFB1EB010BD70B5CAB05B
:1039A0000D46044669460AF0CBFD2878062825D244
:1039B000DFE800F02403061B1E2120A9442001E0BB
:1039C00020A942200AF042F9BDF800106D4605EB2F
:1039D000410120204880BDF8000020AB401CADF81C
:1039E00000000021BDF880001BE020A94320E9E78A
:1039F00020A94520E6E720A99C20E3E720A946204E
:103A0000E0E700BFBDF8006003EB410205EB4606AE
:103A100052887280BDF80020521C491CADF800206D
:103A2000C9B28842EED8A289E389521C12A141A8EA
:103A3000FEF7E8FD002441AE0CE0BDF80010305D5B
:103A400005EB41014880BDF80000401C641CADF846
:103A50000000E4B241A8FCF749FC1E2803D241A8AB
:103A6000FCF744FC00E01E20A042E6D86946002096
:103A70000AF076FB4AB070BD2825642F2564290022
:103A800010B5174A90B005ABB2F918200EF094FAB1
:103A90005222002101200AF077FB9DF814006421D6
:103AA000B0FBF1F201FB12029DF817000DF1040CBE
:103AB000BDF81A409DF819309DF81810ACE81B00AD
:103AC0009DF8160000909DF8153006A107A8FEF796
:103AD00099FD07AA0A2101200AF0C8FA10B010BD0A
:103AE00040450020253032642D253032642D2530AC
:103AF000326420253032643A253032643A2530323F
:103B0000642E25303364000010B59EB00C4688B298
:103B10006B463022082109F0FDFD69461CA805F01E
:103B200032FD002104A80EF0FFF9FFF765FDBDF896
:103B3000080006AAC0B21CA9FFF7A2FDBDF80E201E
:103B4000BDF806101CA8FFF73FFD512200210420FC
:103B50000AF01AFBA0B20CAB4022382109F0DAFDC2
:103B60000CAA0A2104200AF065FA1EB010BD00005C
:103B7000F0B50C4693B09A22002101200AF004FB14
:103B8000A0B210AB0422082109F0C4FD514F1098D7
:103B900039460EF031FE504E0CABB6F918200EF03F
:103BA000E7F99DF830006425B0FBF5F105FB110243
:103BB0009DF832009DF835C09DF834309DF83310E3
:103BC0008DE80B109DF8313044A104A8FEF71AFDD2
:103BD00004AA0A2101200AF049FA9B2200210220AE
:103BE0000AF0D2FAA0B210AB04220C2109F092FD27
:103BF000394610980EF000FEB6F918200CAB0EF006
:103C0000B7F99DF830009DF83430B0FBF5F105FBB5
:103C100011029DF832009DF835509DF833108DE863
:103C20002B009DF831302DA104A8FEF7EBFC04AA6F
:103C30000A2102200AF01AFAA0B211AB01220421D3
:103C400009F068FD9DF8440002280DD001280DD030
:103C50004C22002103200AF097FA9DF84400022824
:103C600006D0012804D01CE04A22F2E74B22F0E7FC
:103C7000A0B20FAB0422002109F04CFD9DF83F10CB
:103C80009DF83E00CDE900019DF83D309DF83C20B7
:103C90001AA104A8FEF7B6FC04AA0A2103200AF020
:103CA000E5F94D22002104200AF06EFAA0B212AB11
:103CB0000122062109F02EFD9DF8482012A104A83A
:103CC000FEF7A0FC04AA0A2104200AF0CFF913B0E1
:103CD000F0BD000080436D3840450020253032643F
:103CE0002D253032642D2530326420253032643A5F
:103CF000253032643A2530326400000025303258D5
:103D00002530325825303258253032580000000016
:103D100000F0D0BB00F0BABB00F050BF0249002059
:103D2000087409F021BE00004045002030B5A1B064
:103D3000044615466946312009F088FF0A48007C90
:103D400058B9BDF800106A4602EB41012A204880AC
:103D5000BDF80000401CADF800002A4668466169C5
:103D60000AF046FC21B030BD404500200249012048
:103D7000087409F0F9BD00004045002030B5A1B03D
:103D8000044615466946302009F060FF0A48007C69
:103D900058B1BDF800106A4602EB41012A20488064
:103DA000BDF80000401CADF800002A466846616975
:103DB0000AF01EFC21B030BD4045002000F0E0BFFD
:103DC00010B50AF067F8164CA04223D00AF018F993
:103DD00014490A208B7C012B0ED0134AC4F8002012
:103DE00002F5B471C4E9031000206061A061BDE870
:103DF00010400B4809F0A2BF0B4A283A2260097D07
:103E0000C90702D002F1F001ECE707492831E9E7E0
:103E100009F07AFF0AF038F8A042F9D110BD00008D
:103E2000D489002040450020CC55010810B50BF086
:103E300085FA0CF087FE0BF08FF80CF0C5FA0BF04A
:103E4000ABF80DF01DF80CF06FFD0BF0F9FA0CF06B
:103E5000CBFB0AF0F7FE04480CF0F2FE0BF0CCFCB2
:103E6000BDE810400BF028B90038014010B50446F9
:103E7000006810280CD16068242805D0122807D1CA
:103E8000BDE8104009F040BFFFF79AFF00206060D6
:103E900010BD0068102803D0202808D100F0F6BA21
:103EA00032231A4601214FF4F77009F0F4B8704735
:103EB00070B54E681E491F4B01250C7BCA895B8873
:103EC000242E34D00CDC102E25D0122E14D0142E1B
:103ED0002DD1012C2BD19A4215D2521CCA8114E04B
:103EE000442E18D0832E16D0842E20D1012C1ED122
:103EF000012A06D9521EF1E7002C18D000200873C1
:103F000005E0CB8101E003B1CD8100F0EBFABDE823
:103F1000704005F0E9BD002C09D10D73002B06D0CF
:103F2000002A04D1CB81BDE8704000F0DBBA70BD3F
:103F300090160020404500200121816005480021A5
:103F40004FF6FF720173C18102824173C0F81210F3
:103F5000C18270479016002010B5086820281BD138
:103F60000E4C01202073888881B221820020C4F881
:103F70001200E08260830A48807C012809D04FF457
:103F8000202000BF09F01AFCE081BDE8104005F0D8
:103F9000ABBD4FF48020F5E710BD00009016002067
:103FA0004045002010B5017B39B1074C05496160DF
:103FB00000F00EF80548606010BDBDE8104000F04C
:103FC00021B900007C490108E4780020943A0108F6
:103FD000F0B5CFB006460AF099FC7B4C33ABB4F990
:103FE00018200DF0E9FF33AB01220021774809F0DA
:103FF00065FA03A91D2009F029FE03AB02227221F4
:10400000724809F0DDFAF2892AB171A123A8FEF7FE
:10401000F9FA23AB00E06FA3012296216B4809F067
:1040200035FA03A9172009F011FE03AB1122002174
:10403000664809F0C5FA628865A123A8FEF7E2FA8E
:1040400023AB10223721614809F020FA03A9192077
:1040500009F0FCFD03AB112272215C4809F0B0FAB3
:10406000E2885BA123A8FEF7CDFA23AB10229621AC
:10407000564809F00BFA318A4FF6FF77BF25B9424F
:1040800002D103A9202011E0A1F57F40FE381FD105
:10409000718B23AA06F1120005F0CAFA23AB202285
:1040A00013214A4809F0F2F903A91F2009F0CEFDB7
:1040B000BDF80C0003ABA0EB800005EB800000EB2B
:1040C000D07041103122414809F07AFA4FB0F0BD6A
:1040D000A07C012823D04FF420203EAA09F060FBE9
:1040E0003EA809F0DDFA39AEB8425ED035A909F034
:1040F0009DFB00208DF8EA00BDF80401C00611D533
:104100004398030EC0F30742C0F307218DE80E0069
:10411000C3B2324630A123A8FEF774FA06E04FF48A
:104120008020DAE7314623A8FCF702F923A8FCF740
:10413000DDF800EB4000B5EB800F03D8202223AB65
:10414000002109E023A8FCF7D1F8A0EB800005EBE3
:104150008000410823AB20221C4809F097F903A9ED
:104160001C2009F073FD03AB31220021174809F030
:1041700027FAB4F91820DDE9440133AB0DF01CFF38
:10418000BDF8D2109DF8D100CDE900019DF8D030E6
:104190009DF8CF2016A123A8FEF734FA23AB3022D6
:1041A0002A210A4809F072F990E723AA3EA8429909
:1041B00005F03EFA23A8FCF799F8A0EB800005EB88
:1041C000800041083346C6E740450020E4780020DF
:1041D000253264002D2D0000257328253032582506
:1041E000303258253032582530325829000000002E
:1041F000253032643A253032643A253032642E2537
:1042000030336400F0B59BB00AF018F805460AF0A8
:104210001BF8044616A80AF07DFA834F814878609F
:104220000AF074FB814E14ABB6F918200DF0A0FE15
:104230000AF0A8FE00289DF852009DF855309DF820
:1042400054209DF853108DE80F009DF851309DF8D3
:10425000502001D076A100E07DA104A8FEF7D2F99C
:1042600004AB00224E21704809F010F980487860B4
:1042700016220021012009F087FF17220F210120BB
:1042800009F082FF18220021022009F07DFF1A2286
:104290000F21022009F078FF1E220021032009F0DF
:1042A00073FF1B220021042009F06EFF600609D570
:1042B0000B2D01D202230AE0142D01D2032306E0C4
:1042C000042304E0A00601D5012300E0002300221E
:1042D0001146554809F07EF816A805F013FCD0B138
:1042E0009DF85800400607D59DF8590020B10228D6
:1042F00005D24FF0060309E04FF0050306E002D1B6
:104300004FF0070302E003282FD0092300222821C1
:10431000454809F05FF8B07C48B3328855A104A83D
:10432000FEF770F904AA0921012009F09FFE7288A6
:1043300050A104A8FEF766F904AA1821012009F08B
:1043400095FEF2884BA104A8FEF75CF904AA0921A6
:10435000022009F08BFEF268002A17DB45A104A8B1
:10436000FEF750F904AA182112E00823CEE742A272
:104370000B21012009F07AFE3FA21A21012009F049
:1043800075FE3DA20B21022009F070FE3AA21A210F
:10439000022009F06BFE9DF8580040060AD59DF8F2
:1043A0005900032806D3DDE919230921032009F068
:1043B000E5FC04E030A20B21032009F057FE0025A4
:1043C0002C4607E0204601F05BFF08B96D1CEDB2FA
:1043D000641CE4B201F0FAFEA042F3DC01F0F6FE48
:1043E000421B26A104A8FEF70DF904AA0F21042000
:1043F00009F03CFE2A4621A104A8FEF703F904AA0D
:104400001821042009F032FEB07C012808D00228CF
:1044100004D199221C21042009F0B6FE1BB0F0BD86
:104420009822F7E708450108E4780020404500207D
:104430005B253032642D253032642D2530326420E6
:10444000253032643A253032643A253032645D00DA
:10445000253032642D253032642D253032642025FC
:104460003032643A253032643A253032640000003C
:10447000943A0108253464002D2D000025640000C5
:1044800001F5FA71816005F02FBB000010B509F04D
:10449000FBFC074CA04204D009F0B2FD204609F015
:1044A0004DFC00202073BDE8104005F01DBB00004E
:1044B0009016002010B509F0E7FC094CA04204D08A
:1044C00009F09EFD204609F039FC012020730020F0
:1044D000E081034800F006F8BDE8104005F004BB99
:1044E0009016002010B50446C08920B909484088BC
:1044F00030B10120E081E0890AF0FEF8208210BD91
:104500004FF6FF70208204480021C0F81210C182CB
:1045100010BD0000404500209016002010B54A68EC
:104520000E21412A7BD01FDC202A6DD00DDC102A01
:1045300036D0112A43D0142A67D1D0F8D0100229DE
:1045400063DA491CC0F8D010A1E0212A7FD0222ACA
:1045500070D0402A59D1D0F8D03000EB8312527B72
:104560000F2A52D236246DE0812A43D00EDC422A33
:104570004CD0442A1AD0802A47D1D0F8D02000EB62
:1045800082135B7B0F2B40D2332468E0822A1FD03A
:10459000842A3AD1D0F8D01000297CD0491ED1E726
:1045A00000F0CAF8BDE8104009F0AEBBD0F8D0105A
:1045B00000EB8111487B00286DD0401E66E0D0F8EA
:1045C000D03000EB8312527B0F2A64D2302439E0C2
:1045D000D0F8D02000EB82135B7B0F2B5BD2312411
:1045E0003DE000BFD0F8D01000EB8110417B491CAA
:1045F00041734CE0D0F8D03000EB8312527B0F2A8D
:1046000049D232241EE00AE02EE044E0D0F8D02067
:1046100000EB82135B7B0F2B3DD234241FE0D0F8DC
:10462000D03000EB8312527B0F2A34D2352409E0BC
:104630000DE0FFE7D0F8D03000EB8312527B0F2A59
:1046400029D23724024401EB83115454CAE7D0F82D
:10465000D02000EB82135B7B0F2B1CD23824034449
:1046600001EB82115C54BDE7D0F8D02000EB82133F
:104670005B7B0F2B0FD2034401EB821139245C5476
:10468000D0F8D01000EB8111487B401C4873BDE886
:10469000104005F029BA10BD70B500260546067316
:1046A0004FEA060405EB841104F140000D31C0B25D
:1046B00009F0D8F8641CE4B2032CF3D3C5F8D06039
:1046C00070BD000070B50446007B10B10E210220C1
:1046D00026E015A20021012009F0C8FC13A2002148
:1046E000022009F0C3FC12A20021032009F0BEFC45
:1046F0005FF0000504EB85120D320221681C09F001
:1047000099FC6D1C032DF5DBD4F8D0005F2204EB7F
:104710008011401C497B891C09F09AFC0421084641
:10472000BDE8704009F041BD312E0000322E00007E
:10473000332E000009F0E8BA2DE9F04100240546C7
:1047400026460E2705EB841107EB841211F80D0F96
:104750002844865404F14000C0B209F0F1F8641C0A
:10476000E4B2032CEED3BDE8F08100001FB54FF496
:10477000165000900020ADF80400ADF80600ADF82A
:104780000800ADF80C000820ADF80A0069460248A0
:104790000CF0E4FA1FBD000000380140704710B56E
:1047A00004464FF4967109F091FA0020E060206110
:1047B000BDE81040FFF7DABF02F0CABF70B504468B
:1047C0000069A8B070B101280FD0022869462DD029
:1047D0005FF0660009F03AFA6946022009F0C0FC71
:1047E00028B070BD69466420F4E76946652009F089
:1047F0002DFA0F480FA1E268438820A8FDF702FFB9
:10480000002420AD6E460BE0BDF80010285D06EBDD
:1048100041014880BDF80000401CADF80000641C58
:1048200020A8FBF763FDA042EED8D5E76720D1E7CB
:104830004045002025642F2564000000F0B50446A3
:104840000069544FCDB00E4601F5967528B1012888
:104850005AD009F059FA4DB0F0BD0DF0C7FC322026
:104860000EF00CF94C4E30680DF0CAFC1CA808F094
:10487000CFFF702220A96846FBF7FAFC0DF1700CFF
:10488000BCE80F000DF0BCFB0DF0B0FC70680DF043
:10489000B7FCB87C012834D04FF420204CA908F094
:1048A00063FF9DF833119DF83201CDE900019DF8B9
:1048B00031319DF8302139A13CA8FDF7A3FE3CA879
:1048C0000DF09EFC3AA00DF09BFC30690DF098FCB9
:1048D0007A8839A13CA8FDF795FE3CA80DF090FC24
:1048E0000DF084FCF0680DF08BFC0AF00FF80DF071
:1048F000A7FB0DF07BFC0DF079FC0121A560216187
:10490000A9E74FF48020C9E77988E068884207DA90
:1049100080B20AF003F9E068401CC4E9025036E0B6
:1049200023A00DF06DFC0DF061FC21A00DF068FCE2
:104930000DF05CFC1EA00DF063FC0DF057FC1CA0FC
:104940000DF05EFC0DF052FC19A00DF059FC0DF0BD
:104950004DFC17A00DF054FC0DF048FC14A00DF018
:104960004FFC0DF043FC12A00DF04AFC0DF03EFC94
:104970000FA00DF045FC0DF039FC0DA00DF040FC32
:104980000DF034FC06F5FA660221A660216105F0FF
:10499000ABF860E740450020AC590108253032589B
:1049A000253032582530325825303258000000006A
:1049B00020202020000000002564000010B50446DF
:1049C0004868142809D011DD24280FD084280DD17F
:1049D000E06800280ADD401E07E001F0F7FB014611
:1049E000E068021D914201DD401CE06010BDFA212B
:1049F00081600021C1607047F0B591B00546002488
:104A00003CE00E19304601F0F9FB0746304601F054
:104A1000E3FB0346721C21A101A80097FDF7F2FDFC
:104A200001AA0021601C09F021FB304601F0DCFBEB
:104A3000A0F58051113901D125220FE0A0F5805158
:104A4000103901D1232209E0B0F5835F03D0B0F51E
:104A5000825F02D006E0242200E097221121601C30
:104A600009F092FB304601F00BFC08B1022200E095
:104A700003221A21601C09F087FB641C01F0A6FBCD
:104A8000E968401A042801DD042003E001F09EFBE0
:104A9000E968401AA042B4DC11B0F0BD25642E20B4
:104AA000253038582D25303358000000FA31816008
:104AB00005F01AB8FA2181607047000030B5384C13
:104AC000A9B0A07C012807D0022808D079210220B3
:104AD00009F06BFB29B030BD4FF4802501E04FF4A5
:104AE000202527A9284608F03FFE02A9284608F0FD
:104AF00049FE57220021012009F046FB58221021CF
:104B0000012009F041FB54220021022009F03CFB66
:104B100055220021032009F037FB562200210420F2
:104B200009F032FB22881FA122A8FDF76BFD22AA03
:104B30000A21012009F09AFA62881AA122A8FDF739
:104B400061FD22AA1A21012009F090FA02AA0A2185
:104B5000022009F0F7FA9DF89F109DF89E00CDE91C
:104B600000019DF89D309DF89C200FA122A8FDF723
:104B700049FD22AA0A21032009F078FA607C400648
:104B800001D55A2203E0E07CC10605D55B220A214B
:104B9000042009F0F9FA9DE740079BD55922F6E772
:104BA0004045002025640000253032582530325819
:104BB00025303258253032580000000009480621BF
:104BC000837C0948012B09D0084A00BFC0E90321B2
:104BD000002141618161044809F0B0B8034A603A9C
:104BE000F4E7000040450020AC160020845801087E
:104BF0004968142909D011DD24290FD084290DD149
:104C0000818900290AD0491E05E0054A8189528818
:104C1000491C914202D2818104F066BF70470000B6
:104C200040450020002181817047000070B5474D4C
:104C30000446AEB0A87C002879D06888002878D0D7
:104C4000A189814201D3401EA081A089401C80B26D
:104C500009F052FD0146A87C012873D04FF42020B2
:104C600014AA08F09DFD14A808F01AFD06460020BD
:104C70002490259024A9304608F0E6FD26A9304668
:104C800008F0D4FD7A220021012009F07DFA2AAA39
:104C90000A21012009F0EAF962220021022009F02C
:104CA00073FAB5F91820DDE91A0111AB0DF084F99A
:104CB0009DF8470001AEBDF84A309DF849209DF8A7
:104CC00048100FC69DF8460000909DF845309DF8AD
:104CD00044201FA105A8FDF795FC05AA0A21022082
:104CE00009F0C4F97B220021032009F04DFA05AA3E
:104CF00014A8199904F0E0FC05AA0A21032009F080
:104D0000B5F906220021042009F03EFAA2896B8839
:104D1000521C18A105A8FDF775FC05AA072104205F
:104D200009F0A4F92EB070BD01E002E00AE079219B
:104D300000E07721022009F038FAC821204608F067
:104D4000C5FFEFE74FF480208AE7000040450020D0
:104D5000253032642D253032642D253032642025F3
:104D60003032643A253032643A253032642E2530B0
:104D70003364000025642F256400000008F0C4BFE0
:104D80000948817C0948012909D00949C1600421E9
:104D90000161002141618161044808F0CFBF0449ED
:104DA0003039C1600321F3E740450020BC180020E2
:104DB000FC5B01087047C82108F088BF30B5A1B07E
:104DC0001AA20021012009F051F91A4A05210120F7
:104DD00009F030F901A9012008F044FD01AA0021E1
:104DE000022009F027F909F02FFA054609F00EFA1A
:104DF000044609F005FA024623460FA111A80095C2
:104E0000FDF700FC11AA0021032009F02FF919A8D1
:104E100009F002FA10A20021042009F027F919AACA
:104E20000521042009F022F921B030BD41504E3A4D
:104E3000200000001094002049443D25582C524584
:104E400053554C543D253034582C53544154453D12
:104E50002530325800000000434F50533D200000E1
:104E6000C831816004F040BE70B5064600240025BC
:104E700032462946204609F0EBF86D1C202DF7D369
:104E8000641C052CF3D370BD496840293FD012DC67
:104E9000202942D008DC102927D011292BD0122933
:104EA0001FD014291DD11EE0212934D0222930D051
:104EB000242916D113E0812921D008DC412924D0EE
:104EC000422920D0442912D080290AD119E0822910
:104ED00013D083290DD0842903D15E2100E04D2118
:104EE000017304F001BE7621FAE74F21F8E73C2177
:104EF000F6E73E21F4E73021F2E73121F0E73221F5
:104F0000EEE73321ECE73421EAE73521E8E7362103
:104F1000E6E73721E4E73821E2E73921E0E700005E
:104F200070B504464FF47A7108F0D0FE0025257361
:104F30008F2080F31188BFF34F8FBFF36F8F03A0D3
:104F400008F020F885F3118870BD000030310000B2
:104F5000007B00F05FB801F57A718160017B0D295B
:104F600002D201F1010102E002D14FF00001017310
:104F700004F0BABD2DE9F84F02274FF074094FF045
:104F80004C0A60264FF020081E254B463A465146F3
:104F90001F48009708F026F93E244B463A465146F2
:104FA0001B48009408F01EF94B462246514618480B
:104FB000009408F017F953463A46494614480094BD
:104FC00008F010F900244FF0030AA8EB050BA8EB3A
:104FD00004000006C10DB1FBFAF00025371A00EB02
:104FE0000609AF420ADCA94508D3444506D8A345C3
:104FF00004DC22462946064808F0E0F96D1CEDB2B3
:10500000C02DEED3641CE4B2402CE0D3BDE8F88F91
:10501000E478002070B504460021674808F049F89C
:105020000E2C7DD2DFE804F00709070B0D132333A4
:105030004D677D93A7BEFF2104E0002102E0AA2175
:1050400000E05521BDE870405B4808F032B800250B
:10505000002422462946584808F0B0F9641CE4B2FE
:10506000402CF6D3AD1CEDB2C02DF1D370BD01259F
:10507000002422462946504808F0A0F9641CE4B2F6
:10508000402CF6D3AD1CEDB2C02DF1D370BD002481
:10509000002522462946484808F090F9AD1CEDB29B
:1050A000C02DF6D30125621C2946434808F086F935
:1050B000AD1CEDB2C02DF6D3A41CE4B2402CE7D356
:1050C00070BD00240125224629463B4808F076F9A8
:1050D000AD1CEDB2C02DF6D30025621C2946364822
:1050E00008F06CF9AD1CEDB2C02DF6D3A41CE4B2EF
:1050F000402CE7D370BD0026002500243219294634
:105100002D4808F05BF9641CE4B2082CF6D36D1C42
:10511000EDB2C02DF1D31036F6B2402EECD370BDF7
:1051200044E000260025002432190832294622488E
:1051300008F044F9641CE4B2082CF5D36D1CEDB200
:10514000C02DF0D31036F6B2402EEBD3E7E70025A2
:10515000002405EB4506A64204D82A4621461648F7
:1051600008F02CF9641CE4B2C02CF4D36D1CEDB231
:10517000402DEDD3D3E70025002405EB450600BF05
:10518000C4F1C000B04204DB2A4621460A4808F0B8
:1051900015F9641CE4B2C02CF2D36D1CEDB2402DA5
:1051A000EAD3BCE7BDE87040FFF7E4BE2046BDE8A7
:1051B0007040FFF759BE0000E478002070B5044647
:1051C00090F84C0000281FD1207B00281CD004F14F
:1051D0000C010D46442008F0B3FB09F03BF850B138
:1051E000022084F84C00294610200CF0F3FDBDE8A5
:1051F000704004F079BC822184F84C1020464FF4B2
:10520000FA6108F063FDF2E770BD10B54B6800F17C
:105210000D02402B54D01FDC202B5BD013DC102B55
:1052200031D0112B33D0122B60D190F84C20002AB2
:105230005CD000224A60832280F84C204FF4FA614F
:1052400008F044FD4EE0212B3FD0222B4ED1017BB4
:105250000F294BD2372341E0802B22D00ADC412B8F
:1052600029D0422B22D0442B40D1017B00293DD0B4
:10527000491E36E0812B0FD0822B37D1017B0F29BD
:1052800034D231232AE0BDE81040FFF797BF017BFD
:105290000F292BD2302321E0017B0F2926D2322384
:1052A0001CE0017B0F2921D2332317E0017B0F295A
:1052B0001CD2342312E0017B0F2917D235230DE0D5
:1052C000017B0F2912D2362308E0017B0F290DD272
:1052D000382303E0017B0F2908D239238B54017B4B
:1052E000491C0173BDE8104004F0FEBB10BD002155
:1052F00080F84C1000F10C01442008F0B3BA70475C
:1053000010B50A68082A0FD1496859B15FF08102C7
:1053100080F84C204FF4FA6108F0D8FCBDE810404A
:1053200004F0E2BB8022F3E710BD10B5044690F80C
:105330004C0068B102281ED080281ED081281ED0C3
:1053400083281ED085210220BDE8104008F02DBF23
:105350008121012008F029FF04F10C020A2102201A
:1053600008F068FE217B5F220A31022008F070FEFF
:1053700004210846E8E78221E5E78321E3E7842169
:10538000E1E78821DFE77047C821816009F098B91B
:1053900009F06EB910B58EB06C21022008F005FF3F
:1053A0008F2080F31188BFF34F8FBFF36F8F684654
:1053B00007F0C0FB044607F0B9FC002181F3118817
:1053C00004F57A7484421ED900F086FE30B132238F
:1053D0001A4603214FF4F77007F05DFE0399684603
:1053E00059B10A4604AB801C029904F0BBF904A928
:1053F000032008F049FE0EB010BD04AA801C0299DB
:1054000004F016F9F3E700BFF5E710B5044607F01E
:105410008DFCC830A060BDE8104004F065BB000002
:1054200070B504464868102816D1A089002813D109
:105430000A4D0226A87C28B1012006F055FA687CA6
:10544000400600D4A68104F04FFB2046BDE8704022
:105450004FF4FA6108F03ABC70BD000040450020EE
:10546000002181817047000010B5044619488AB0B8
:10547000807C01280ED04FF4202008A908F074F990
:10548000A08950B1012822D02B21022008F08DFEE6
:105490000AB010BD4FF48020EFE72721012008F06B
:1054A00084FE2821022008F080FE0521042008F057
:1054B0007CFE9DF823309DF8222007A16846FDF769
:1054C000A1F86A460B21012008F0D0FDE0E72A216F
:1054D000DBE70000404500202530325825303258A7
:1054E0000000000008F010BC0E4A496853889288FA
:1054F0009A1A92B2142909D013DD242911D08429D3
:105500000FD1818900290CD0491E07E0521E0C21C1
:1055100092FBF1F281898A4203DD491C818104F00A
:10552000E3BA70474045002010B504460020A08132
:105530000648817C19B101888088814204D107F036
:10554000F5FB00F5FA60A06010BD000040450020AA
:105550002DE9F047454D0746A0B0A87C4FF6FF76F1
:10556000A0B16888A988401A10EA060410D0062263
:105570000021042008F008FE0B340C20B4FBF0F3EB
:10558000BA89501C09280AD9093A09E0792100E0B2
:105590009E21022008F009FE20B0BDE8F087521CD1
:1055A00033A10BA8FDF72EF80BAA0721042008F061
:1055B0005DFD00244FF480294FF4202AA8463CE0EA
:1055C000D4B3B8F8001000916D1C98F81200ABB27B
:1055D000012844D050461022802108F051F9054698
:1055E000B042D9D098F8120001283AD05046294646
:1055F00008F048F80146B042CED098F812000128D1
:1056000031D050461BAA08F0E7F81BA808F048F86C
:10561000B042C1D002A908F009F904F00301012049
:1056200000EBC10100EB940006AA08F01FFD641C0A
:10563000A4B20C2CC4D3AFE7FFE7B88900EB40005D
:1056400004EB800083B298F81200012805D0504680
:105650001022802108F049F9C1E74846F8E748469A
:10566000B9E74846C3E74846CCE70000404500207C
:1056700025642F256400000008F046BB0E4A4968E7
:10568000138852889A1A92B2142909D013DD24295A
:1056900011D084290FD1818900290CD0491E07E03F
:1056A000521E0C2192FBF1F281898A4203DD491CD2
:1056B000818104F019BA70474045002000218181A2
:1056C00005498A7C1AB10A8849888A4203D14FF475
:1056D000FA6108F0FBBA7047404500202DE9F04719
:1056E000424D07469CB0A87C10B328886988401AB0
:1056F0000404240C1ED006220021042008F044FDDE
:105700000B340C20B4FBF0F3BA8939A1521C01A868
:10571000FCF778FF01AA0721042008F0A7FC002469
:105720004FF480294FF4202A4FF6FF76A84645E033
:10573000792100E07221022008F037FD1CB0BDE89D
:10574000F087D4B3B8F8001000916D1C98F81200DF
:10575000ABB2012844D050468022002108F090F8D6
:105760000546B042EAD098F8120001283AD05046D7
:10577000294607F087FF0146B042DFD098F81200B3
:10578000012831D0504619AA08F026F819A807F0C8
:1057900087FFB042D2D011A908F048F804F0030105
:1057A000012000EBC10100EB940015AA08F05EFC9B
:1057B000641CA4B20C2CC4D3C0E7FFE7B88900EB8B
:1057C000400004EB800083B298F81200012805D055
:1057D00050468022002108F088F8C1E74846F8E7E3
:1057E0004846B9E74846C3E74846CCE7404500206D
:1057F00025642F256400000008F086BA7047002158
:10580000C160016108F062BA7047C16829B10069DE
:1058100028B1A121022008F0C8BC9F21FAE7A021ED
:10582000F8E710B50446C06818B1BDE8104008F0AC
:105830006BBA0121E16008F07FFF20614FF4FA614B
:10584000204608F043FABDE8104004F04DB90000CE
:105850002DE9F84F04460D4621F0004000917449AF
:10586000814213DC7349884201DC08D13CB12046F7
:105870002946BDE8F84F4FF00102FBF7B0B86E487B
:10588000002DCCBF6D496E49BDE8F88F6D4981424E
:1058900011DD6D498142D8BF4FF0FF366DDD2046E6
:1058A0002946FCF7C3FE042808BFFDF7E1F92046AE
:1058B0002946BDE8F88F6549654F25F000458142CE
:1058C00033DD6449814219DD002632464FF08043C2
:1058D00020462946FAF7C3FD80468A460122204623
:1058E0002946FBF77CF800223B46FAF759FE424670
:1058F0005346FAF7CDFE04460D463EE0012600224F
:10590000BA463B4620462946FAF7A9FD80460F468F
:105910000022534620462946FAF742FE42463B46BD
:10592000FAF7B6FE04460D4627E04B4981421BDDDF
:10593000DFF8288102260022434620462946FAF74E
:1059400035FE00223B46FAF78AFD07468A460022CA
:10595000434620462946FAF723FE3A465346FAF7CD
:1059600097FE04460D4608E0032622462B460020FB
:105970003B49FAF78DFE04460D4622462B4610465B
:105980001946FAF713FE8B46824602460B46FAF793
:105990000DFE07460246334888460B4606217844EA
:1059A000FDF79AF852465B46FAF700FE82462E480B
:1059B0008B463A46434605217844FDF78DF83A4632
:1059C0004346FAF7F3FD02460B46002E5046594671
:1059D0000CDAFAF744FD22462B46FAF7E7FD01B050
:1059E00022462B46BDE8F04FFAF7DDBDFAF737FD4A
:1059F00022462B46FAF7DAFD1C4A7A4402EBC6032C
:105A0000D3E90023FAF7CCFD22462B46FAF7C8FD6E
:105A1000174A7A4402EBC603D3E90023FAF7C3FD21
:105A2000009A002AB8BF81F00041BDE8F88F00005D
:105A3000000010440000F07F182D4454FB21F93F72
:105A4000FB21F9BF0000DC3F0000203E0000F33FD7
:105A50000000F03F0000E63F008003400000F83FF8
:105A60000000F0BF6E0301002C030100CA02010018
:105A70009202010010B5002305E0C45C944201D0FD
:105A8000002010BD5B1C8B42F7DB012010BD0178AC
:105A9000642910D24178491E0C290CD28178491E04
:105AA0001F2908D2C178172905D801793B2902D8C6
:105AB00040793B2801D90020704701207047000041
:105AC0002DE9F04F91B09B4615468A46DFF8688273
:105AD000FAF74DFE4146FAF78CFCFAF76AFE974C4E
