:020000040800F2
:1000000030A6002099010008A1010008A301000802
:10001000A5010008A7010008A901000800000000D0
:1000200000000000000000000000000001010008C6
:10003000AD0100080000000045010008156C010832
:10004000B3010008B3010008B3010008B3010008C0
:10005000B3010008B3010008B3010008B3010008B0
:10006000B3010008B3010008B3010008B3010008A0
:10007000B3010008B3010008B3010008B301000890
:10008000B3010008B3010008B3010008B301000880
:10009000092D0008B3010008B3010008E5140008A9
:1000A000B3010008B3010008B3010008B301000860
:1000B00051260008B3010008A5260008B301000876
:1000C000B3010008B3010008B3010008B301000840
:1000D000B3010008ED2A0008312B00088D2B000821
:1000E000B3010008B3010008B3010008DFF80CD029
:1000F00000F0E8FC004800477D55010830A60020CC
:10010000224B19680868B0E8F00F80F30988BFF344
:100110006F8F4FF0000080F311884EF00D0E704786
:100120000000000006480068006880F3088862B696
:1001300061B6BFF34F8FBFF36F8F00DF00BF00BF0B
:1001400008ED00E0EFF30980BFF36F8F0F4B1A68E3
:1001500020E9F00F106008B54FF08F0080F3118890
:10016000BFF34F8FBFF36F8F16F052FC4FF00000BC
:1001700080F31188BDE8084019680868B0E8F00FFE
:1001800080F30988BFF36F8F704700BF0000002025
:10019000EFF3058070470000064880470648004797
:1001A000FEE7FEE7FEE7FEE7FEE7FEE7FEE7FEE727
:1001B000FEE7FEE7F1250008ED0000082DE9F0411B
:1001C00000242546002905DA01240027D0EB07008A
:1001D00067EB0101002B05DA0027D2EB07020125AE
:1001E00067EB030300F01EFB86460E4617469C464F
:1001F000AC4204D00025D0EB050E65EB010624B11E
:100200000020D2EB000760EB030C704631463A4603
:100210006346BDE8F081202A04DB203A21FA02F08F
:100220000021704721FA02F3D040C2F12002914030
:100230000843194670470000004870478C9D01082C
:10024000A0F16101192900D8203870470649074AF2
:100250000868504343F23902104408604008704770
:100260000149086070470000442900206D4EC641D6
:1002700010B5431A934209D28318881803E010F886
:10028000011D03F8011D521EF9D210BD40EA010301
:100290009B0703D009E008C9121F08C0042AFAD23C
:1002A00003E011F8013B00F8013B521EF9D210BDEA
:1002B000D2B201E000F8012B491EFBD270470022A8
:1002C000F6E710B513460A4604461946FFF7F0FF55
:1002D000204610BD10B5044604E00B7800F8013B41
:1002E00003B1491C521EF8D2204610BD421C10F822
:1002F000011B0029FBD1801A704710B5002200E0D5
:10030000521C835C8C5CA34201D1002BF8D1D8B283
:10031000E1B2401A10BD30B504460020034600E0AB
:100320005B1C934203D2E05CCD5C401BF8D030BD37
:10033000034611F8012B00F8012B002AF9D11846C9
:100340007047F0B480EA0102D40F4200B2EB410FD3
:1003500002D20246084611464A0042D0C30DDDB221
:10036000C1F3C752AD1A202D35DAC1F3160141F49D
:10037000000204B15242C5F1200602FA06F12A41F8
:100380001044B3EBD05F23D0C4B1012DA0EBC35018
:1003900009DCF0BC4FF0004202EAC35200F5000055
:1003A000DBB200F09ABA400000F1807000EBC3505D
:1003B000A0F1807040EAD170490009E0490841EAA3
:1003C000C071A0EBC35000F50000400800EBC35023
:1003D000F0BC00F079BA6142012202EB4101001B3E
:1003E000F6E7F0BC704781F00041AAE780F00040DA
:1003F000A7E780EA010210B502F00043400026D0D2
:100400004A0023D04FEA106101EB1261C0F356009D
:10041000C2F3560240F4000042F40002A0FB0220A6
:10042000A1F17F014FEA0040140401D000F1010066
:1004300050EA124001D44000491EC2B20C0604EB3F
:10044000D010401C4008802A02D003E0002010BDDC
:1004500020F00100002900DA0020184310BD2DE92A
:10046000FE4F804681EA0300C00F0C46009021F049
:10047000004123F00045B8EB0200A94105D24046F7
:10048000214690461C460B46024623F0004010438E
:1004900004D14046214603B0BDE8F08F270DC7F3D5
:1004A0000A00C3F30A510290401A0190402866DA0C
:1004B000C3F3130040F4801B0098924620B1002340
:1004C000D2EB030A63EB0B0B01985946C0F14002D3
:1004D000504600F0D8F906460D4650465946019A56
:1004E00000F0E0F910EB08006141002487EA1152A6
:1004F00084EAE7731A433BD0009A3AB3019A012A7F
:100500004FEA075210DC001B61EB02014FF0004282
:1005100002EA0752CDE90042001C41F58011324643
:100520002B4600F014FAB6E7001B61EB0201001C39
:1005300041F5801300185B412018A2F5001747EB26
:10054000030140EAD570B6196D4111E06D084FEA1C
:10055000360645EAC0754FEA0752001B61EB0201FF
:10056000001C41F5801149084FEA30000019514143
:1005700032462B4603B0BDE8F04F00F0DBB90098DF
:10058000012240000023D0EB020263EBE0730098ED
:1005900021464FEAE074B8EB000061EB0401E9E7A3
:1005A00083F000435BE781F0004158E72DE9FE4FFF
:1005B00081EA030404F0004421F0004100944FF06C
:1005C000000B23F0004350EA010402D052EA030476
:1005D00004D10020014603B0BDE8F08FC3F30A54F4
:1005E000C1F30A552C44A4F2F3340194A0FB025445
:1005F000C1F3130141F48011C3F3130343F48013D7
:1006000001FB024400FB034E840A970A44EA81542A
:1006100047EA8357A4FB076802958D0A05FB078507
:100620004FEA932C04FB0C542705029D4FEA065811
:1006300047EA1637B5EB08056EEB070C870E920EEE
:1006400047EA811742EA8312A7FB0201B6EB0B01CE
:1006500064EB00042B0D43EA0C335E1844EB1C5092
:10066000DA465146E7FB0201C5F313044FEA0B33A8
:1006700043EA14534FEA0432019C43EA0603A4F10F
:100680000C040294009CCDE900B400F060F9A2E7EC
:100690002DE9F04D81EA030404F0004B21F0004500
:1006A00014464FF0000A23F0004150EA050220D022
:1006B00054EA01021DD0C5F30A570246C5F31303DD
:1006C000C1F31300C1F30A5640F4801543F48013BC
:1006D000A7EB0608101BD64608F2FD3873EB0500A1
:1006E00002D308F1010801E092185B41B8F1000F54
:1006F00003DA00200146BDE8F08D00204FF48011A0
:10070000064684460EE0171B73EB050705D3121B44
:1007100063EB050306434CEA010C49084FEA30003D
:1007200092185B4150EA0107EDD152EA030012D062
:1007300082EA040083EA0501084303D100224FF056
:10074000004308E0101BAB4102D20122002302E06B
:100750006FF0010253101AEB06004CEB085110EB3E
:100760000A0041EB0B01BDE8F04D00F0E3B8C10F0A
:1007700080EAE0700844CA079623002100F0ADB873
:1007800000F0004220F00040C10DC0F3160040F41C
:1007900000007F2901DA00207047962903DCC1F1AF
:1007A0009601C84001E096398840002AF4D04042C2
:1007B000704700F0004230F000400AD0C10D01F552
:1007C0006071C0F3160042EA0151C20840071143AC
:1007D000704700200146704701F0004330B421F01B
:1007E000004150EA010206D00A0DA2F56072C1F381
:1007F0001301002A02DC30BC00207047440F44EA99
:10080000C104C100E01830BC00EBC25000F05CB87D
:10081000002801DBC0F10040002901DBC1F10041EB
:10082000814270472DE9F05F0546002092469B46C5
:1008300088460646814640241BE0284641464746F6
:100840002246FFF7E8FC53465A46C01A914110D39E
:1008500011461846224600F016F82D1A67EB0108DB
:100860004F4622460120002100F00DF817EB000949
:100870004E41201EA4F10104DFDC484631462A46E1
:100880004346BDE8F09F202A04DB203A00FA02F13B
:10089000002070479140C2F1200320FA03F319436E
:1008A00090407047202A06DBCB17203A41FA02F02D
:1008B00043EAE07306E041FA02F3D040C2F12002BD
:1008C00091400843194670470029A8BF7047401C53
:1008D000490008BF20F00100704710B4B0FA80FC56
:1008E00000FA0CF050EA010404BF10BC704749B193
:1008F000CCF1200421FA04F411FA0CF118BF012103
:1009000021430843A3EB0C01CB1D0106000A002B79
:10091000BEBF002010BC704700EBC350104400293C
:10092000A4BF10BC7047401C490008BF20F0010064
:1009300010BC704710B5002B08DA401C41F10001D3
:1009400092185B411A4301D120F0010010BD2DE93E
:10095000F04D92469B4611B1B1FA81F202E0B0FA35
:1009600080F220329046FFF78EFF04460F4640EAA1
:100970000A0041EA0B0153465A46084303D1204678
:100980003946BDE8F08D114653EA010015D0C8F193
:1009900040025046FFF73FFC05460E46504659467A
:1009A0004246FFF770FF084301D0012000E000201D
:1009B000054346EAE0762C4337430A984FEA44530E
:1009C000A0EB08004FEAD4240A304FF0000244EABA
:1009D00047544FEAD72502D500200146D1E701054B
:1009E00010196941DDE9084500196941BDE8F04D7C
:1009F000A0E770B521F0004303430CD0C1F30A55C2
:100A00000024D5EB040564EB0403D617AD1AB341FB
:100A100002DB0020014670BD201841EB025170BD81
:100A20002DE9F04D00231A461B1A8A4103DB0020F2
:100A30000146BDE8F08DC1F30A52C1F3130141F440
:100A400080154FF0000BD10702D100186D41521EE6
:100A50000027044640F2FF11384601EB620A3E4689
:100A60008046024600204FF48011FFF7D4FBC219E4
:100A70007141BB1846EB0100B4EB030C75EB000CA5
:100A800004D3E41A65EB000517460E46241908F155
:100A900001006D4180463428E3DDF91946EB06007C
:100AA000091BA84103D24FF0FF32134601E0002298
:100AB00013461BEB070046EB0A51BDE8F04DFFF76C
:100AC00039BF0000064C074D06E0E06840F0010326
:100AD00094E8070098471034AC42F6D3FFF70AFBBE
:100AE000149F0108349F01080EB5C10F80EAE07021
:100AF0000844CA07002140F233438DE80E000A463D
:100B00000B46FFF724FF03B000BD0EB540F23341A2
:100B100002910021CDE900110A460B46FFF717FFAD
:100B200003B000BD70B5C1F30A5201F000450024C6
:100B3000C1F3130140F2FF3341F480119A4201DA0C
:100B4000002070BD40F233439A42A2F2334203DCEC
:100B50005242FFF760FB00E090402C43F1D040424E
:100B600070BD70B501EB020410F8015B15F00703CE
:100B700001D110F8013B2A1106D110F8012B03E036
:100B800010F8016B01F8016B5B1EF9D12B0705D43E
:100B90000023521E0FD401F8013BFAE710F8013B85
:100BA00002F10202A1EB030303E013F8015B01F879
:100BB000015B521EF9D5A142D6D3002070BD10B5FD
:100BC00003460C46002134E0880053F82000012839
:100BD00013D18800401C53F8200070B98800801C95
:100BE00053F82000012808D18800C01C53F82000C9
:100BF00018B9012044F821001AE0880053F82000B9
:100C0000012813D18800401C53F8200001280DD181
:100C10008800801C53F8200040B98800C01C53F89D
:100C2000200018B9002044F8210001E0002010BD88
:100C3000491C9142C8D30120F9E710B5012001F009
:100C400043FA002001F040FA10BD0000F0B5034661
:100C50001C460D4600200FE0265C094F07EB2616C8
:100C6000367805F81060265C06F00F06BE5D012799
:100C700007EB4007EE55401C9042EDD3F0BD00005D
:100C8000647501080146002011F0010F01D040F009
:100C9000800011F0020F01D040F0400011F0040F6D
:100CA00001D040F0200011F0080F01D040F01000FA
:100CB00011F0100F01D040F0080011F0200F01D00A
:100CC00040F0040011F0400F01D040F0020011F09C
:100CD000800F01D040F00100704770B504460D460A
:100CE0001646002304E0E05CFFF7CCFFE8545B1CF1
:100CF000B342F8D370BD000010B50146002087E074
:100D00000A5C12F0800F06D00122002303EBC0031F
:100D1000414CE25404E0002202EBC0033E4CE2549A
:100D20000A5C12F0400F05D0012202EBC0033A4CDE
:100D3000E25405E00022012303EBC003364CE254E9
:100D40000A5C12F0200F06D00122022303EBC0033D
:100D5000314CE25405E00022022303EBC0032E4C89
:100D6000E2540A5C12F0100F06D00122032303EBB9
:100D7000C003294CE25405E00022032303EBC00327
:100D8000254CE2540A5C12F0080F06D0012204231D
:100D900003EBC003204CE25405E00022042303EBE4
:100DA000C0031D4CE2540A5C12F0040F06D001226D
:100DB000052303EBC003184CE25405E00022052391
:100DC00003EBC003144CE2540A5C12F0020F06D08D
:100DD0000122062303EBC0030F4CE25405E000227E
:100DE000062303EBC0030C4CE2540A5C12F0010F23
:100DF00006D00122072303EBC003074CE25405E0B1
:100E00000022072303EBC003034CE254421CD0B280
:100E100007287FF775AF10BD1831002010B50146C7
:100E2000002014E000230B5400220CE0C30602EB68
:100E30001363084CE35C23B10B5C8024144123430F
:100E40000B54531CDAB2082AF0DB431CD8B2082832
:100E5000E8DB10BD1831002010B50021837A012293
:100E600002FA03F13D4A126842F001023B4B1A605C
:100E70003A4A1C3212688A43384B1C331A60027B90
:100E8000CAB9364A0C3212688A43344B0C331A60A2
:100E90004288C38842EA0343304A4032847A42F8A7
:100EA00034300288838842EA03432C4A4032847AF1
:100EB00002EBC4025360027B012A19D1274A0C328B
:100EC00012680A43254B0C331A604288038842EAB1
:100ED0000343224A4032847A42F83430C2888388FD
:100EE00042EA03431D4A4032847A02EBC402536053
:100EF000C27A3AB9194A121D12688A43174B1B1D50
:100F00001A6006E0154A121D12680A43134B1B1D96
:100F10001A60028932B9114A143212688A430F4B9F
:100F200014331A600289012A06D10C4A143212685D
:100F30000A430A4B14331A60427B012A06D1074A3E
:100F40001C3212680A43054B1C331A60034A1268AC
:100F500022F00102014B1A6010BD00000066004043
:100F60001AB143690B43436102E043698B43436118
:100F7000704730B5024600200023146824F00204B4
:100F80001460146844F00104146000E05B1C5468B1
:100F900014F0010F03D1A3F57F44FF3CF6D1546850
:100FA00014F0010F01D100206CE08C79012C04D1E8
:100FB000146844F08004146003E0146824F0800492
:100FC0001460CC79012C04D1146844F040041460FE
:100FD00003E0146824F0400414600C7A012C04D15E
:100FE000146844F02004146003E0146824F0200422
:100FF00014604C7A012C04D1146844F0100414607D
:1010000003E0146824F0100414608C7A012C04D1DD
:10101000146844F00804146003E0146824F0080421
:101020001460CC7A012C04D1146844F004041460D8
:1010300003E0146824F0040414608C78A407CD78CD
:1010400044EA05640D7944EA05444D7944EA0554BF
:101050000D886D1E2C43D461146824F001041460C3
:10106000002300E05B1C546814F0010F03D0A3F5CB
:101070007F44FF3CF6D1546814F0010F01D00020EA
:1010800000E0012030BD70B505462846FFF72EF977
:1010900084B204EB4400BF21B1EB400F01DC00201F
:1010A00070BD04EB4400BF22A2EB400101EBD17004
:1010B0004010F5E770B5054628460FF0AEFB044634
:1010C00004EB4400BF21B1EB400F01DC002070BDF8
:1010D00004EB4400BF22A2EB400101EBD1704010B1
:1010E000F5E7000039B1084A1268012383401A432A
:1010F000054B1A6006E0044A1268012383409A43B4
:10110000014B1A60704700000074004030B50022A7
:1011100000230A4C226840F6FE748440A243D1E9C1
:1011200000452C438D682C43CD6844EA050303FA3F
:1011300000F42243014C226030BD000000740040E6
:1011400008B500220092054A009200F10802009BB7
:101150001A440092009A116008BD0000007400401B
:1011600010B541B1084A126804090123A3401A438B
:10117000054B1A6007E0044A126804090123A340E2
:101180009A43014B1A6010BD047400402DE9F041F0
:1011900080460E4615461F463046FFF7ADFD00F06F
:1011A00053F800241AE000F023F837B104EB4401AF
:1011B00005EB011000F05EF907E0C4F10F0101EB4F
:1011C000410105EB011000F055F900F0ABF800F01B
:1011D00095F8204600F05EF9601CC4B2102CE2DBEA
:1011E00000F034F94046FFF719FEBDE8F081000039
:1011F000002005E01049095C104A1154411CC8B296
:101200002028F7DB002006E00B4A00F12001515CAA
:101210001154411CC8B22028F6DB002008E0084920
:10122000095C1F31044A515C064A1154411CC8B282
:101230003028F4DB70470000D830002088310020CF
:101240003577010858310020002008E00549095C85
:10125000491E054A515C054A1154411CC8B2402838
:10126000F4DB7047F576010818310020D8300020F3
:101270000E4A1178002005E00C4B421C9A5C1A546F
:10128000421CD0B21B28F7DB084AD176117F1C2004
:1012900005E0064B421C9A5C1A54421CD0B2372817
:1012A000F7DB024A82F8371070470000D830002080
:1012B000002008E00549095C491E054A515C054AC1
:1012C0001154411CC8B23828F4DB70478D760108F0
:1012D00018310020D83000200146002007E0054AE0
:1012E000125C521E044B9A5C0A54421CD0B2302845
:1012F000F5DB7047C5760108D8300020002008E0F3
:101300000549095C491E054A515C054A1154411CB6
:10131000C8B22028F4DB7047657901081831002035
:10132000583100207CB501243DE004EB4400052148
:1013300001EB40004349085C04EB4401414A12F8C8
:10134000111000EB4100C6B204EB4400012101EB97
:1013500040001146085CC00004EB4401022202EB8D
:101360004101384A515C00EB810004EB4401032247
:1013700002EB4101334A515C00EB410004EB4401B4
:10138000042202EB41012F4A515C0844C5B22E48A9
:1013900000EB841000EB0610405D694601EB640130
:1013A0000870A01CC4B2082CBFDB002443E004EB8F
:1013B0004400052101EB40002249085C04EB440194
:1013C000204A12F8111000EB4100C6B204EB4400B1
:1013D000012101EB40001146085CC00004EB440110
:1013E000022202EB4101174A515C00EB810004EB41
:1013F0004401032202EB4101124A515C00EB41001F
:1014000004EB4401042202EB41010E4A515C084402
:10141000C5B20D4800EB841000EB0610405D694634
:1014200001EB6401097841EA0010694601EB6401AF
:101430000870A01CC4B2082CB9DB6846FFF75CFC3E
:101440007CBD00005831002065770108002008E0CD
:101450000549095C491E054A515C054A1154411C65
:10146000C8B24028F4DB704785790108D8300020E5
:10147000183100200146002007E0054A125C0B5C91
:101480005A40034B1A54421CD0B23028F5DB704747
:101490005831002010B501460F290DD1002008E079
:1014A0000D4A125C0D4B1B5C5A400D4B1A54421CEA
:1014B000D0B22028F4DB0EE000200AE0064A125CDD
:1014C000064B1B5C5A4000F12003054CE254421CC1
:1014D000D0B22028F2DB10BD883100205831002026
:1014E000D830002010B54FF4807000F025F8C8B156
:1014F00001200E4908600E480068002815DB0C48E2
:10150000006800EB40000B4901EB8000806860B18F
:101510000749096801EB4101064A02EB810188682D
:10152000804702E001200149086010BDA0822042EE
:10153000F4120020EC510020014600200022074B4D
:101540001B6803EA0102054B14331B680B4202D0EF
:101550000AB1012000E000207047000000040140B3
:101560002DE9FF4780460E4691466846C0F31300BA
:101570004FF0085101EB401A002511E03246414678
:10158000022000F027FD0446B01C86B2012C01D0D9
:10159000022C00D103E0002004B0BDE8F0876D1CF0
:1015A0000A2DEBD332464146022000F013FD0446DB
:1015B000B01C86B2012C01D0022C01D10020EBE737
:1015C000002512E0681C00EBC000401E022101FB58
:1015D00000624146022000F0FDFC0446012C01D0CF
:1015E000022C01D10020D7E76D1C0D2DEAD3002578
:1015F00024E000271DE032464146022000F0EAFCCC
:101600000446B01C86B20CB1032C05D1012007EBB7
:10161000C5014AF821000BE0012C01D0022C05D1B4
:10162000002007EBC5014AF8210001E00020B3E7E4
:101630007F1C082FDFD3B01C86B26D1C0D2DD8D3B4
:101640004946684600F080FAA6E72DE9FF47804644
:101650000D4691466846C0F313004FF0085101EB68
:10166000401A00240FE02A464146022000F0B2FC56
:101670000646A81C85B2012E00D103E0002004B06C
:10168000BDE8F087641C0A2CEDD32A4641460220AF
:1016900000F0A0FC0646A81C85B2012E01D1002056
:1016A000EDE7002410E0601C00EBC000401E0221AA
:1016B00001FB00524146022000F08CFC0646012E40
:1016C00001D10020DBE7641C0D2CECD3002421E0C9
:1016D00000271AE02A464146022000F07BFC06461D
:1016E000A81C85B2022E05D1012007EBC4014AF8DF
:1016F000210009E0012E05D1002007EBC4014AF8C2
:10170000210001E00020BAE77F1C082FE2D3A81CCB
:1017100085B2641C0D2CDBD34946684600F001F805
:10172000ADE770B504460D460B222146002005F0BA
:101730006FFD0646E17A207B01EB0020B04201D02C
:10174000002070BDA07A102801DA0020F9E7206897
:1017500028606068686020892881A07AA8720120CA
:10176000EFE700000549096821F01001034A116004
:1017700011460968014311607047000000200240D3
:1017800001460020034A106800F03800084310604A
:101790007047000000200240F8B506460C46351D93
:1017A000287818B140F201502080F8BD68781028E0
:1017B00002D0112810D107E00094A97833460822FE
:1017C00009480FF021FD0BE00094A9783346072269
:1017D00006480FF019FD03E040F20250208000BFE0
:1017E00000BF00BFE1E7000044160020641600209F
:1017F00070B505460C4604F10801201D12F061FF8A
:101800002080208808B90820608070BD70B505462A
:101810000C4612F068FF208070BD70B505460C467E
:10182000E879211D12F066FF2080208808B9102079
:10183000608070BD70B505460C46E879211D12F038
:10184000FBFF2080208808B90420608070BD70B53F
:1018500004460D46E07904F1080113F0A1FA28804E
:1018600070BD70B504460D46E07904F1080113F02F
:1018700041FB288070BD70477047704730B500222B
:101880008B071C0F0F2303FA04F20B4B8C1053F839
:1018900024309343084C8D1044F8253023468C1097
:1018A00053F824308C07240F00FA04F42343024C2D
:1018B0008D1044F8253030BD080001402DE9F0417D
:1018C000024600250026002000230024002791F86E
:1018D00003C00CF00F0591F803C01CF0100F03D0EB
:1018E00091F802C04CEA050591F800C0BCF1000F68
:1018F00031D0146800202BE04FF0010C0CFA00F3FB
:10190000B1F800C00CEA03069E4220D183004FF0DC
:101910000F0C0CFA03F7BC4305FA03FC4CEA040471
:1019200091F803C0BCF1280F06D14FF0010C0CFA5E
:1019300000FCC2F814C00AE091F803C0BCF1480FE3
:1019400005D14FF0010C0CFA00FCC2F810C0401C8D
:101950000828D1D31460B1F800C0BCF1FF0F34DD0A
:10196000546800202EE000F1080C4FF0010808FA3E
:101970000CF3B1F800C00CEA03069E4221D18300AB
:101980004FF00F0C0CFA03F7BC4305FA03FC4CEACA
:10199000040491F803C0BCF1280F05D100F1080C34
:1019A00008FA0CF8C2F8148091F803C0BCF1480F93
:1019B00007D100F1080C4FF0010808FA0CF8C2F842
:1019C0001080401C0828CED35460BDE8F081000090
:1019D000F0B50A46002300240021002500F000464F
:1019E000B6F1004F02D11D4EF16901E01B4E716846
:1019F000C0F3034583B200F44016B6F5401F08D18A
:101A000021F07061154E766826F07066134F7E6087
:101A100012E000F48016B6F5801F06D1032606FA00
:101A200005F4A14341F0706106E0460D360103FA6A
:101A300006F6B14341F0706122B1460D360103FA5A
:101A400006F6314300F00046B6F1004F02D1034ED6
:101A5000F16101E0014E7160F0BD00000000014045
:101A600041617047016170470AB1016100E0416165
:101A700070470146302905DB392903DCA1F130002C
:101A8000C0B27047412905DB462903DCA1F13700CC
:101A9000C0B2F6E7612905DB662903DCA1F1570036
:101AA000C0B2EEE70020ECE72DE9F04104460D4618
:101AB0001346A8462746002242E017F812103029A4
:101AC00005DB392903DCA1F13000C6B212E041295F
:101AD00005DB462903DCA1F13700C6B20AE0612923
:101AE00005DB662903DCA1F15700C6B202E010460F
:101AF000BDE8F081012000EB4200395C302906DBB3
:101B0000392904DCA1F1300000F0FF0C13E0412979
:101B100006DB462904DCA1F1370000F0FF0C0AE0E7
:101B2000612906DB662904DCA1F1570000F0FF0CF7
:101B300001E01046DCE70CEB061008F80200521C2E
:101B40009A42BAD31846D3E770B504460D46082228
:101B50002146002005F05CFB0646217A607A01EB05
:101B60000020B04201D0002070BD2068286060686D
:101B7000686060892881207BA8720120F4E7F0B5B5
:101B800005460E460023002148E00024002215E00F
:101B900055F8230048B10120C2F1070707EBC10740
:101BA00046F8270084F0010406E00020C2F1070790
:101BB00007EBC10746F827005B1C521C042AE7D339
:101BC00055F8230008B184F001040CB10020F0BDE9
:101BD0005B1C0024002215E055F8230048B10120C9
:101BE000C2F1030707EBC10746F8270084F00104A0
:101BF00006E00020C2F1030707EBC10746F8270003
:101C00005B1C521C042AE7D355F8230008B184F06A
:101C100001040CB10020DAE75B1C491C0529B4D390
:101C2000002118E00024002207E001EB820056F8B2
:101C3000200008B184F00104521C0A2AF5D3C1F136
:101C40000300184455F8200008B184F001040CB1D9
:101C50000020BCE7491C0429E4D30120B7E770B594
:101C600004460D46C4F313004FF0085101EB401633
:101C70002946304600F001F870BDF0B505460F4624
:101C8000C7F313004FF0085C0CEB40160A223F210B
:101C90000CE001F03F0055F8200008B9092204E0EB
:101CA0000A2A02D2521E02B902E0491C8929F0D345
:101CB00000BF0AB10020F0BD4A1C002150E0002402
:101CC000002317E002F03F0055F8200048B1012042
:101CD000C3F1070C0CEBC10C46F82C0084F0010496
:101CE00006E00020C3F1070C0CEBC10C46F82C00F9
:101CF000521C5B1C042BE5D302F03F0055F820007A
:101D000008B184F001040CB10020D4E7521C002477
:101D1000002317E002F03F0055F8200048B10120F1
:101D2000C3F1030C0CEBC10C46F82C0084F0010449
:101D300006E00020C3F1030C0CEBC10C46F82C00AC
:101D4000521C5B1C042BE5D302F03F0055F8200029
:101D500008B184F001040CB10020ACE7521C491C0E
:101D60000529ACD300211AE00024002307E001EB91
:101D7000830056F8200008B184F001045B1C0A2B94
:101D8000F5D3C1F10300104400F03F0055F82000E6
:101D900008B184F001040CB100208CE7491C04292F
:101DA000E2D3012087E72DE9FF4781460D4617461C
:101DB0006846C0F313004FF0085101EB40182A4663
:101DC0004946042000F006F900F0FF0A504600F0F2
:101DD00064F80646281D85B20C2E03D1002004B0FD
:101DE000BDE8F087002412E02A464946042000F0AE
:101DF000F1F800F0FF0A504600F04FF80646281DA3
:101E000085B20C2E00D101E00020E8E7641C092C0B
:101E1000EAD305F1D8024946042000F0DBF800F0CF
:101E2000FF0A504600F039F806460C2E01D100207A
:101E3000D5E700241BE02A464946042000F0CAF8F2
:101E400000F0FF0A504600F028F80646281D85B22B
:101E50000C2E03D1012048F8240007E0032E03D103
:101E6000002048F8240001E00020B8E7641C372C6B
:101E7000E1D302A8C0F313004FF0085202EB401167
:101E80004046FFF77CFE30B1029838609DF80C00A8
:101E900038710120A3E70020A1E70146082901D0FD
:101EA0000E2901D10C207047072901D0012901D149
:101EB0000320F8E70846F6E710B503460C46002174
:101EC0001EE0480053F82000012808D14800401CBB
:101ED00053F8200018B9012044F821000FE0480011
:101EE00053F8200048B94800401C53F8200001284E
:101EF00003D1002044F8210001E0002010BD491C5E
:101F00009142DED30120F9E700F01F020121914048
:101F100042094FF0E02303EB8202C2F80011704740
:101F200000F01F020121914042094FF0E02303EB32
:101F30008202C2F80011704700F01F020121914097
:101F400042094FF0E02303EB8202C2F80011704710
:101F500010B5002807DA0A07140E054A00F00F032F
:101F60001B1FD45403E00A07130E024A135410BD7A
:101F700018ED00E000E400E010B5002807DA0A07D9
:101F8000140E054A00F00F031B1FD45403E00A0788
:101F9000130E024A135410BD18ED00E000E400E0F7
:101FA00010B5002807DA0A07140E054A00F00F03DF
:101FB0001B1FD45403E00A07130E024A135410BD2A
:101FC00018ED00E000E400E00149086270470000FD
:101FD00000000E4270B503460C460020002109E0C7
:101FE0005618C6F30905400054F825600EB140F0BC
:101FF0000100491C9942F3D370BD10B502460B464F
:10200000114653B10C78487804EB0024887804EB2F
:102010000044C87804EB006010BDCC78887804EBED
:102020000024487804EB0044087804EB0060F3E7F0
:1020300001460020034A506820F4404008435060A5
:10204000704700000010024029B1064AD2690243DD
:10205000044BDA6104E0034AD2698243014BDA613E
:10206000704700000010024029B1064A126902437D
:10207000044B1A6104E0034A12698243014B1A615E
:10208000704700000010024029B1064A92690243DD
:10209000044B9A6104E0034A92698243014B9A61BE
:1020A000704700000010024029B1064AD26802437E
:1020B000044BDA6004E0034AD2688243014BDA60E1
:1020C000704700000010024001490860704700009E
:1020D000400442420F48006840F001000D4908608A
:1020E000084640680C4908400A49486008460068AC
:1020F0000A490840074908600846006820F4802023
:1021000008600846406820F4FE0048604FF41F0055
:1021100088607047001002400000FFF8FFFFF6FEE5
:1021200030B500210022002400232D4D6D6805F0FC
:102130000C0121B1042905D0082923D105E0294D3E
:10214000056022E0274D05601FE0254D6D6805F410
:102150007012234D6D6805F48034022505EB924220
:102160001CB9214D554305600BE01D4D6D6815F4FC
:10217000003F03D01C4D5543056002E0194D554307
:10218000056002E0174D056000BF00BF144D6D688B
:1021900005F0F0010909154D6B5C0568DD404560EF
:1021A0000F4D6D6805F4E061090A104D6B5C4568E0
:1021B000DD4085600A4D6D6805F46051C90A0B4D1C
:1021C0006B5C4568DD40C560054D6D6805F44041B8
:1021D000890B074D6B5CC568B5FBF3F5056130BD38
:1021E0000010024000127A0000093D00500000205B
:1021F0006000002010B501460022002300204A1193
:10220000012A02D1094C236806E0022A02D1074CB8
:10221000236A01E0054C636A01F01F020124944027
:102220001C4201D0012000E0002010BD001002403F
:102230000248406800F00C007047000000100240A7
:1022400001460020034A506820F0F0000843506027
:1022500070470000001002401149096821F48031E4
:102260000F4A11601146096821F480211160B0F510
:10227000803F03D0B0F5802F0ED106E008490968F1
:1022800041F48031064A116007E00549096841F4CC
:10229000A021034A116000E000BF00BF70470000AA
:1022A0000010024001460020034A506820F4E0601C
:1022B00008435060704700000010024001460020B3
:1022C000034A506820F4605040EAC10050607047F3
:1022D00000100240014908667047000000004242B9
:1022E00002460020044B586820F47C1042EA0103A7
:1022F0001843014B58607047001002400249096AB8
:102300000143014A1162704700100240014600205B
:10231000034A506820F003000843506070470000F3
:10232000001002400149086070470000D800424296
:1023300038B5002000900024002500BF3120FFF7B1
:1023400059FF05460098401C00900098B0F5A06F1A
:1023500001D0002DF2D03120FFF74CFF08B101244D
:1023600000E00024204638BD024909888143014A23
:1023700011807047042800400348008840F0100096
:102380000149088070470000042800400348008885
:102390004FF6EF710840014908807047042800405B
:1023A000002103480188001F008841EA004070476F
:1023B0001C28004000B50246FFF7DEFF100C034961
:1023C0000880091D0A80FFF7E1FF00BD18280040C2
:1023D00000B50246FFF7D0FFC2F30340034908806F
:1023E000091D0A80FFF7D2FF00BD00000828004049
:1023F00000BF0348008810F0200FFAD0704700009B
:1024000004280040064800884FF6F7710840044948
:10241000088000BF0248008810F0080FFAD070470B
:1024200004280040064B19895A898A4202DB531A54
:1024300098B203E002F580635B1A98B2704700001F
:102440003C51002001B581B0002000909DF80700AC
:102450008DF800009DF806008DF801009DF805003C
:102460008DF802009DF804008DF8030000980CBD63
:102470002DE9F04106460D462846FDF737FF074691
:1024800000240CE0305DFDF7DBFE8046285DFDF7A3
:10249000D7FE804502D00020BDE8F081641CBC421C
:1024A000F0DB0120F8E7000038B504460D46164879
:1024B000B4FBF0F000906946002004F05BFF287048
:1024C0002878694604F0EEFE68700098401CA870F9
:1024D0000D48B4FBF0F100FB11444FF46160B4FB14
:1024E000F0F0E8704FF46160B4FBF0F100FB1144D0
:1024F0003C20B4FBF0F028713C20B4FBF0F100FB71
:1025000011446C7138BD00008051010010B500F01D
:1025100001F810BD0CB50020019000903248006811
:1025200040F480303049086000BF2F48006800F454
:10253000003000900198401C0190009818B9019853
:10254000B0F5A06FF1D12848006810F4003F02D028
:102550000120009001E0002000900098012842D165
:102560002248006840F010002049086008460068D2
:1025700020F0030008600846006840F00200086090
:10258000194840681849486008464068486008464D
:10259000406840F4806048600846406820F47C1041
:1025A00048600846406840F4E81048600846006803
:1025B00040F08070086000BF0B48006810F0007F9A
:1025C000FAD00948406820F00300074948600846EF
:1025D000406840F00200486000BF0348406800F0D7
:1025E0000C000828F9D10CBD001002400020024068
:1025F00010B51348006840F0010011490860084612
:102600004068104908400E494860084600680E4975
:1026100008400B4908600846006820F480200860E4
:102620000846406820F4FE0048604FF41F008860B0
:10263000FFF76CFF4FF000600449086010BD000018
:10264000001002400000FFF8FFFFF6FE08ED00E07A
:1026500010B500204FF0804108821148D0F8FC18D6
:10266000D0F80009814211D90D49B1F80019C1F320
:102670000A020B49FB31885C11F0B2FF0848D0F820
:102680000009401C0649C1F8000907E011F0C4FF29
:10269000802011F0A5FF00200149087010BD000046
:1026A0002C7F002010B50121154800F035F908B342
:1026B0000121134800F02DF81249096801EB41018E
:1026C000114A02EB810148688047B8B10D480068A3
:1026D000401E0C49086008460068002807DB0968AE
:1026E00001EB4101084A52F82100804706E012F050
:1026F00073FE03E00121024800F00BF810BD00005A
:1027000000080040F4120020EC510020CA4302826D
:102710007047CA430282704721B1028842F0010229
:10272000028004E002884FF6FE731A400280704770
:1027300010B504466848844208D10121C014FFF74F
:10274000B3FC0021E014FFF7AFFCC4E0B4F1804F0C
:1027500008D101210846FFF787FC00210120FFF77F
:1027600083FCB8E05D48844208D101210220FFF7D4
:102770007BFC00210220FFF777FCACE05848844244
:1027800008D101210420FFF76FFC00210420FFF78E
:102790006BFCA0E05348844208D101210820FFF7D8
:1027A00063FC00210820FFF75FFC94E04E48844260
:1027B00008D101211020FFF757FC00211020FFF75E
:1027C00053FC88E04948844208D101212020FFF7CA
:1027D0004BFC00212020FFF747FC7CE0444884426A
:1027E00008D101214014FFF75FFC00216014FFF7BE
:1027F0005BFC70E03F48844209D10121C804FFF727
:1028000053FC00214FF40020FFF74EFC63E03A48F0
:10281000844209D101210805FFF746FC00214FF44D
:102820008010FFF741FC56E03448844209D1012171
:102830004805FFF739FC00214FF40010FFF734FC86
:1028400049E02F48844208D101214020FFF70CFCC9
:1028500000214020FFF708FC3DE02A48844208D1CF
:1028600001218020FFF700FC00218020FFF7FCFB06
:1028700031E02548844208D101218015FFF7F4FB9F
:102880000021A015FFF7F0FB25E02048844209D184
:1028900001210804FFF708FC00214FF48030FFF706
:1028A00003FC18E01A48844209D101214804FFF7CB
:1028B000FBFB00214FF40030FFF7F6FB0BE015485F
:1028C000844208D101218804FFF7EEFB00214FF478
:1028D0008020FFF7E9FB10BD002C01400004004000
:1028E00000080040000C00400010004000140040B0
:1028F00000340140004C01400050014000540140B0
:1029000000180040001C0040002000400040014032
:10291000004401400048014030B502460020002339
:102920000024158A05EA0103958905EA010413B11B
:102930000CB1012000E0002030BD1AB183890B43A7
:10294000838102E083898B438381704770B50022C5
:1029500000230024058C4EF6FF7635400584038C59
:102960008488828B48F6FF752A404FF6FF452A403F
:102970000D884FF6FF7606EA05252A434DF6FF75CA
:102980002B400D8906EA05352B434D8806EA0535AF
:102990002B430B4DA84202D00A4DA84208D14BF65A
:1029A000FF752C408D894FF6FF7606EA85152C437E
:1029B00084808283CD88A0F84050038470BD0000DD
:1029C000002C0140003401400021018041808180C1
:1029D000C180018141818181C181704701858282ED
:1029E0007047818470470000002202881D4B984286
:1029F0000ED01D4B98420BD0B0F1804F08D01B4B2E
:102A0000984205D01A4B984202D01A4B984204D1F2
:102A10004FF68F731A404B881A43174B984207D0D2
:102A2000164B984204D04FF6FF431A40CB881A4306
:102A300002808B8883850B8803850A4B98420BD0D4
:102A4000094B984208D00E4B984205D00D4B984246
:102A500002D00D4B984201D10B7A03860123838269
:102A600070470000002C0140003401400004004089
:102A700000080040000C004000100040001400401E
:102A80000040014000440140004801404FF6FF7102
:102A9000818000210180C18041800172704770B542
:102AA00004462178C81CC11700EB91718A10217867
:102AB00040F26D1301FB0325A2786178207804F0C1
:102AC00033FC0544E0784FF4616148432179C1EB60
:102AD000011100EB8100617946184FF46160684391
:102AE00000EB400006EBC00070BD000010B50E48C2
:102AF000008810F0080F03D00B48001D008812E07A
:102B00000948008810F0200F07D00748001D0088F2
:102B1000C1B2064812F0FEF905E00348008820F033
:102B20000F000149088010BD00380140D088002006
:102B300010B51448008810F0080F03D01148001D8C
:102B400000881EE00F48008810F0280F13D00E4AAE
:102B500010680C4A121D1288D1B203688268B2FB59
:102B6000F3F403FB142300F10C02D1548268521CCD
:102B7000826000BF05E00348008820F00F00014993
:102B8000088010BD004400403C29002010B50E48CC
:102B9000008810F0080F03D00B48001D008811E0DA
:102BA0000948008810F0200F06D00749091D098840
:102BB000C8B212F0E1F905E00348008820F00F00E8
:102BC0000149088010BD00000048004021B1828901
:102BD00042F40052828104E082894DF6FF731A406C
:102BE00082817047F0B503460024002600250020AE
:102BF000A1F510676A3F00D100BF1846C1F3421427
:102C000001F01F06012707FA06F5012C01D10C304F
:102C100004E0022C01D1103000E014301AB1076832
:102C20002F43076002E00768AF430760F0BD000074
:102C30002DE9F04786B005460E460024A24600BFA7
:102C4000A1460027B08900B100BF2F462C8A4CF660
:102C5000FF700440F08804432C82AC894EF6F310D8
:102C60000440B08831890843718908430443AC812A
:102C7000AC8A4FF6FF400440B0890443AC8201A8FF
:102C8000FFF74EFA1F48874202D1DDF810A001E09D
:102C9000DDF80CA0A88910F4004F08D00AEBCA0098
:102CA00000EB0A1031684900B0FBF1F807E00AEBCD
:102CB000CA0000EB0A1031688900B0FBF1F864200B
:102CC000B8FBF0F004012009642101FB1089A889F8
:102CD00010F4004F08D0322000EBC900B0FBF1F037
:102CE00000F00700044308E0322000EB09106421E3
:102CF000B0FBF1F000F00F0004432C8106B0BDE8FA
:102D0000F0870000003801400EB5002002900090CE
:102D10000E2005F00FF8019001980FF091FAB8B16C
:102D2000002302AA69460B48006814F017F902ABA9
:102D3000022209480168094814F0FAFB029838B1E8
:102D40004FF0805006490860BFF34F8FBFF36F8F7D
:102D50000EBD00002019002024190020D5660108AE
:102D600004ED00E00FB4084B10B504A902AA0398C3
:102D700000F04CFB044602A9002000F076FD20463E
:102D800010BC5DF814FB00006B380008490050EAE5
:102D9000C12018BF04204A0D18BF40F0010040F2C6
:102DA000FF72B2EB515F08BF40F00200012808BF7C
:102DB000052070472DE9F74F144696B00021C4E96D
:102DC00002111799089121F00045CA498D4206DC8D
:102DD0001799C4E9000119B00020BDE8F08FC64979
:102DE000DFF818A3A9423CDD0899C54E0029C54F5C
:102DF000C54A1799534619DDFDF7D2FB554506D054
:102E0000C24AC34BFDF7CCFBC4E900010AE04FF016
:102E1000D352BF4BFDF7C4FB32463B46FDF7C0FB28
:102E2000C4E9000119B00120BDE8F08FFDF717FBE0
:102E3000554506D0B54AB64BFDF711FBC4E9000174
:102E40000AE04FF0D352B24BFDF709FB32463B4646
:102E5000FDF705FBC4E9000119B04FF0FF30BDE8F4
:102E6000F08FAC49A942179978DB21F000488346DE
:102E7000A94AAA4B4146FDF799FB0022A84BFDF752
:102E8000EEFAFDF74FFE0990FDF72EFE06460F46BF
:102E90009D4A5346FDF78AFB5A464346FDF783FB9E
:102EA00080468A46994A9A4B30463946FDF77EFB62
:102EB0002A0D01250B9242465346FDF774FB032D64
:102EC000C4E9000139D00B98C1F30A51401A05EB4F
:102ED00045111139814230DA9248C346784400EBFB
:102EE0000510CDF81CA00C90D0E9002330463946DF
:102EF000FDF75CFBCDE9020102460B4658460799F7
:102F0000FDF74EFB80468A4602460B465846079917
:102F1000FDF746FBDDE90223FDF742FB83460C98F3
:102F200003913946D0E902233046FDF73FFB5A466C
:102F3000039BFDF735FB6D1CBDE708980028A2BF79
:102F4000099819B0BDE8F08F616881F000416160B7
:102F5000099819B04042BDE8F08FFFE7C1F31301B3
:102F600041F480110E911799C1F30A51A1F2F53283
:102F7000511102F01F08C8F12002129200220C9297
:102F80000D92694A7A4402EB810101F1140C0DA9FA
:102F90005FF00607DCF80020DCF8045002FA08F3C2
:102FA000129AD1F800A025FA02F21A430E9BA2FB56
:102FB0000356A2FB00329A4415449A4534BF4FF0A1
:102FC000010B4FF0000B51F8043C05EB0B0E734462
:102FD000954234BF012200221644BBF1000F02D0FB
:102FE000AB4202D903E0AB4201D2012200E0002251
:102FF0003244C1F800A041E90223091FACF1040CDE
:103000007F1EC7D10898DDE90A6500F10050800FE6
:1030100011900898099F8000FDF766FD80468A465A
:103020003846FDF772FD6FF01D02FDF7E2FC074622
:1030300030460591FDF769FD6FF03D02FDF7D9FCC3
:10304000CDE903102846FDF760FD6FF05D02FDF746
:10305000D0FC064602460B460191DDE90310FDF760
:10306000FEF93A46059BFDF7FAF942465346FDF74D
:10307000F6F900200D46834642465346FDF790FA86
:103080003A46059BFDF78CFADDE90332FDF788FA35
:103090003246019BFDF787FADFF89480234A4346C6
:1030A000FDF784FA06460F46224A234B5846294626
:1030B000FDF77CFA32463B46FDF7D1F90F4606464E
:1030C0004FF0A842434658462946FDF76FFA32466C
:1030D0003B46FDF7C4F9179A12F0004F04D0119A3D
:1030E00081F0004152421192C4E90001119819B0D7
:1030F000BDE8F08FFB21E93F7CD90240FB21F93F7D
:103100007370032E8A19A33B000040543163621A86
:1031100061B4D03DFB21394183C8C96D305FE43FC4
:103120000000E03FE06E0100686E0100182D44547D
:10313000FB21F93D3326A611460B113C2DE9FF4D2D
:1031400021F0004807460C46B8F1795F08DAFDF730
:10315000E9FC002801BF0020324904B0BDE8F08D31
:103160003A46234610461946FDF720FA0546024620
:103170002D480E460B460621784400F05DF82A469D
:103180003346FDF713FADDE9022382468B463846C3
:103190002146FDF70BFA04460F4652465B46284689
:1031A0003146FDF703FA22463B46FDF7F9F907469B
:1031B0008A464FF0FF3228463146FDF71AFC1B4A7B
:1031C00090450ADA3A465346FDF7EAF904B0002280
:1031D000BDE8F04D134BFDF7E6B9154A4245A8BFCF
:1031E000A8F500154FF00004B8BF124D22462B463B
:1031F000FDF7D6F90646884622462B4600200949A7
:10320000FDF7CEF904460D463A4653463046414650
:10321000FDF7C6F904B022462B46BDE8F04DFDF798
:10322000C2B900000000F03F146C01003333D33FFB
:103230000000E93F0000D23F2DE9F0414F1E00EBB6
:10324000C7010446D1E9000115461E4637F00602C3
:103250000DD02A463346FDF7A9F97F1E04EBC703BC
:10326000D3E90023FDF7FBF837F00602F1D1022F76
:1032700025D0042F13D0062F18BFBDE8F0812A46B1
:103280003346FDF793F9D4E90A23FDF7E8F82A4617
:103290003346FDF78BF9D4E90823FDF7E0F82A4619
:1032A0003346FDF783F9D4E90623FDF7D8F82A461B
:1032B0003346FDF77BF9D4E90423FDF7D0F82A461D
:1032C0003346FDF773F9D4E90223FDF7C8F82A461F
:1032D0003346FDF76BF9D4E90023BDE8F041FDF773
:1032E000BEB800002DE9FF4D054621F0004084B036
:1032F0000C46B0F1795F0BDA2846FFF747FD04284A
:1033000008BF00F065F8284608B02146BDE8F08DFA
:103310002A460B461046FDF749F906460F462A464F
:103320002346FDF743F9804626488A4632463B4607
:1033300005217844FFF780FF83461098029160B31F
:10334000214A224B40465146FDF730F9CDE90001B4
:103350005A4640465146029BFDF728F98246884668
:10336000DDE906014FF0FF32FDF743FB52464346CD
:10337000FDF716F932463B46FDF718F9DDE906235D
:10338000FDF70EF9DDE90023FDF70AF908B02A463A
:103390002346BDE8F04DFDF706B90B465A463046C8
:1033A0003946FDF703F9084A084BFDF758F842463D
:1033B0005346FDF7FBF808B02A462346BDE8F04D1A
:1033C000FDF74DB8526B0100495555555555C5BFD0
:1033D000024A00201107FDF70CBB000001FDFFFFB2
:1033E00002E008C8121F08C1002AFAD170477047CE
:1033F000002001E001C1121F002AFBD1704700002C
:103400000149086070470000482900202DE9FF4F5E
:103410008DB00F4605460026DEE1252874D1002434
:103420006D1CF149A246A14601222B78203B02FAED
:1034300003F0084202D004436D1CF6E728782A28DE
:1034400010D06FF02F022878A0F13001092915D88B
:103450000AEB8A0102EB410144F0020400EB010A8D
:103460006D1CF0E757F804ABBAF1000F03DA44F42F
:103470000054CAF1000A44F002046D1C28782E287A
:1034800017D115F8010F44F004042A280ED06FF06C
:103490002F022878A0F1300109290AD809EB890107
:1034A00002EB410100EB01096D1CF2E757F8049BA8
:1034B0006D1C28786C280FD006DC4C2817D06828A3
:1034C0000DD06A2814D104E0742810D07A280FD1C6
:1034D0000DE044F400140AE044F4801401E044F4E4
:1034E00040146978814202D16D1C04F580146D1C72
:1034F0002A786E2A20D00DDC632A33D005DC002A1E
:103500006FD0582A12D1A2E011E0642A6AD0692A49
:103510000CD167E0732A2FD004DC6F2A6FD0702A99
:1035200004D199E0752A6BD0782A6AD01046DDE97B
:103530000F129047761C4EE1C4F30250022806D0C9
:1035400003280AD0042801CF0AD0066043E101CF46
:103550004FEAE671C0E900613DE101CF06803AE142
:10356000067038E117F8040B8DF8000000208DF884
:103570000100EB46012003E057F804BB4FF0FF3099
:1035800061074FF0000102D40DE008F10101884607
:1035900049450FDA8045F8DB1BF808100029F4D103
:1035A00008E008F1010188468142FADB1BF80810A7
:1035B0000029F6D1DDE90F23AAEB08008146214658
:1035C00000F03BF9304400EB080604E0DDE90F129F
:1035D0001BF8010B9047B8F10108F7D22146484685
:1035E000F4E0FDE00A21C4F302534FF0000B089110
:1035F000022B07D001CFC117032B09D00AE034E01A
:1036000023E024E0FF1D27F00707F7E8020105E0AB
:1036100000B2C117042B01D140B2C117002907DA4B
:103620004FF0000CD0EB0C006CEB01012D2302E0FD
:10363000230504D52B238DF82430012303E0E30771
:1036400001D02023F7E7984650E00A210EE0102031
:103650004FF0000B08900CE010214FF0000B44F0ED
:1036600004044FF00809089103E008214FF0000B13
:103670000891C4F30253022B04D001CF0021032B85
:1036800006D006E0FF1D27F00707F7E8020103E078
:1036900080B2042B00D1C0B24FF00008230725D51B
:1036A000702A2AD0DDF820C08CF0100C5CEA0B0CDC
:1036B00009D150EA010306D030238DF824308DF86B
:1036C000252002239846DDF820C08CF0080C5CEA27
:1036D0000B0C0BD150EA010301D1630706D530234F
:1036E0008DF824304FF00108A9F10109582A09D0BA
:1036F0003EA20B9208AA0A9211E040238DF82430D2
:103700000123DFE73EA2F4E75B46089AFDF78AF85B
:103710000B9B9B5C0A9AA2F101020A92137050EA79
:103720000102F1D10A98ADEB000000F1200B600717
:1037300002D524F4803401E04FF00109D94502DDBF
:10374000A9EB0B0000E0002000EB0B0141440890C6
:10375000AAEB010AE00306D4DDE90F232146504617
:1037600000F06BF80644002008E009A911F80900F0
:10377000DDE90F129047761C09F1010081464045B2
:10378000F3DBE0030CD5DDE90F232146504600F0C2
:1037900054F8064404E0DDE90F1230209047761C0F
:1037A0000899481E08900029F5DC08E00A980A9953
:1037B0000078491C0A91DDE90F129047761CBBF195
:1037C0000001ABF1010BF1DC21465046DDE90F238E
:1037D00000F020F806446D1C287800287FF41DAE08
:1037E00011B03046BDE8F08F092801003031323386
:1037F000343536373839616263646566000000002D
:103800003031323334353637383941424344454616
:10381000000000002DE9F041044600251E46174631
:10382000880405D406E039462020B04705F101059B
:10383000641EF8D52846BDE8F0812DE9F041044624
:1038400000251E469046C80301D5302700E02027FA
:10385000880405D506E041463846B04705F1010524
:10386000641EF8D52846BDE8F0810A68531C0B6039
:103870001070704710B50DF0BDF90449884204D0AE
:103880000DF0BCFA01480DF0D1F810BD84160020EF
:103890007047000070B504460A20A060002005496A
:1038A00008800DF03CFF6425284612F0A1FF00BF00
:1038B00070BD00005C89002010B50446022004F0B1
:1038C000C1FA10BD10B50446782102200DF0A8FB06
:1038D000024903200DF03EFB10BD00005C89002072
:1038E00070B504460D4605F5FA70A06008F04CF876
:1038F00070BD000010B504462CB18022214604485A
:10390000FCF7B6FC02E000200149088010BD000071
:103910005C890020FA21816070470000F0B59BB0FF
:1039200007463822002101200DF068FB39220021D2
:1039300002200DF063FB3A22002103200DF05EFB14
:103940003F22102103200DF059FB0D2200210420FD
:103950000DF054FB3E483FA1026811A8FFF702FAA0
:1039600011AA0A2101200DF0A9FA3C48007D10F0AF
:10397000800F3AD03948007D00F04000402809D13E
:103980003D220A2103200DF039FB01A920200CF073
:1039900052FD08E03E220A2103200DF02FFB01A971
:1039A00000200CF048FD002605E02A210DF105005D
:1039B0008155701CC6B29DF80400B042F5DC01AA26
:1039C0000A2102200DF056FA2448007D10F0020F63
:1039D00005D007221A2103200DF010FB0FE008226A
:1039E0001A2103200DF00AFB09E03C220A210320E2
:1039F0000DF004FB08221A2103200DF0FFFA1748EE
:103A0000D0E90C45002184EA01006940084313D045
:103A10001248B0F9182019AB2046294611F0EEFFE4
:103A20009DF8660000909DF865309DF864200CA11B
:103A300011A8FFF797F903E00EA111A8FCF778FC95
:103A400011AA0A2104200DF039FA1BB0F0BD0000C4
:103A5000F0120020253038580000000048480020AF
:103A60003230253032642D253032642D25303264D9
:103A7000000000002D2D000000B591B08623062225
:103A800005A101A8FFF76EF901A902200DF028FA9F
:103A900008F024FD11B000BD5625582E25303258AF
:103AA00020466C61736820556E666F726D61747428
:103AB0006564210010B5A4B0092101200DF0B0FA11
:103AC0000A2102200DF0ACFA04A90A200CF01AFF1A
:103AD000BDF810000A2802DD0A20ADF81000862388
:103AE000062213A101A8FFF73DF900240DE001A86B
:103AF000015DBDF810200E3020F81210BDF8100046
:103B0000401C80B2ADF81000641C01A8005D0028C4
:103B1000EDD104A902200DF05DFA0B2103200DF078
:103B20007FFA08F0DBFC054803F098FC24B010BDD8
:103B30005625582E253032582D334700E093040087
:103B400010B5044614F0800F02D00CF041FD10BDFA
:103B500014F0400F04D007F063FB08B9FFF78AFEAA
:103B600024F080000DF07AF814F0010F15D00BF05E
:103B70002BFD0B49096801F5967188420DD907F0B4
:103B8000FDFE08B10DF08AF808F0BEFC28B108F07F
:103B9000A5FC0BF019FD0249086000BFD7E7000043
:103BA0007C02002010B501F0FDF94FF47A7003F0AB
:103BB0004FFC02E0642003F04BFC08F0BDFF10F066
:103BC000800FF7D001200BF0DAFE0DF015FB10BDD1
:103BD000FA218160704700002DE9F041B0B007463E
:103BE00000245D22002101200DF008FA5E22002150
:103BF00002200DF003FA6022002103200DF0FEF9EF
:103C00003722002104200DF0F9F909A80CF0D6FBA9
:103C100009AA092101200DF0CBF92EA92FA80CF03B
:103C2000B8FB09210220DDE92E320CF035FF29A86E
:103C30000DF04AFD9DF8A40010F0200F22D0DDE920
:103C40002C23DDE92E1003F0C7F80446174920465F
:103C5000FCF7CFFB8046FCF793FD642190FBF1F26B
:103C600001FB12052046FCF78BFD06462B4632462B
:103C70000FA101A8FFF776F801AA092103200DF092
:103C80001DF904E00CA2092103200DF017F90B48DF
:103C9000437802780AA101A8FFF764F801AA092174
:103CA00004200DF00BF930B0BDE8F0810000C842EF
:103CB00025642E25303264002D2D0000B40A00202A
:103CC00025303258253032580000000070B50546C6
:103CD0000E462C467068212814D004DC11281CD014
:103CE00015281BD10DE0222802D0412816D115E05D
:103CF000A089002804DDA089401EA08107F044FEB1
:103D00000CE00BE0A089401CE189884204DAA0891C
:103D1000401CA08107F038FE00E000BF00BF70BD6E
:103D20007CB505462C4668460CF09CFABDF80400AC
:103D300028B94FF4FA6128460CF026FE7CBD00201D
:103D4000A081BDF80400E0810098206100BFF5E784
:103D50007FB506463446E08948B9472102200DF078
:103D60005FF94FF4FA6130460CF00EFE7FBDA18979
:103D70002069401A401E4FF4FA61B0FBF1F201FBDA
:103D80001205694628460CF080FA6946204600F084
:103D900045FA9DF8000006281ED2DFE800F01D035A
:103DA000080D12182946204600F0B0F914E0294603
:103DB000204600F0F0F90FE02946204600F0F6FA20
:103DC0000AE06A462946204600F0B2F804E0294697
:103DD000204600F021FB00BF00BF00BFC6E770B562
:103DE00004460D460CF0F4FD70BD70B588B0044675
:103DF0000D4616467B22002103200DF0FFF86B468E
:103E000032462946204607F017FC6A460A2103205D
:103E10000DF054F808B070BD70B590B004460D4672
:103E20001848B0F9182006AB2046294611F014FEB8
:103E30005222002101200DF0E1F89DF818006421C4
:103E400090FBF1F201FB1206BDF81E009DF81D105B
:103E50009DF81C209DF81B30CDE90132CDE90310FF
:103E60009DF81A0000909DF81930324606A108A866
:103E7000FEF778FF08AA0A2101200DF01FF810B004
:103E800070BD000048480020253032642D253032B6
:103E9000642D2530326420253032643A2530326476
:103EA0003A253032642E253033640000F0B58DB0F1
:103EB00005460E4614467A22002102200DF09EF897
:103EC00030460CF06BF9074600200B900C90A7F5DC
:103ED0007F40FF381DD00BA938460CF097FA15F03B
:103EE000100F11D0E078A1786278CDE9002102901E
:103EF00023780BAA08A103A8FEF734FF03AA0A211E
:103F000002200CF0DBFF04E00BAA0A2102200CF0D7
:103F1000D5FF0DB0F0BD000025732825303258259F
:103F200030325825303258253032582900000000F0
:103F30002DE9F04192B080460C46154649220021F9
:103F400001200DF05BF84B48B0F9182004ABD5E91F
:103F50000261304611F052FD9DF81000642190FB83
:103F6000F1F201FB12069DF815009DF814209DF852
:103F700013109DF81230CDE90031CDE902209DF8F3
:103F8000113032463CA108A8FEF7ECFE08AA0A212F
:103F900001200CF093FFA0B211AB012202210CF022
:103FA00046F99DF84400022804D14A2200210DF070
:103FB00025F80EE09DF84400012805D14B22002190
:103FC00002200DF01BF804E04C22002102200DF02D
:103FD00015F89DF84400022803D09DF844000128FC
:103FE00018D1A0B210AB042211460CF020F99DF8B4
:103FF00043009DF84210CDE900109DF841309DF836
:10400000402025A108A8FEF7ADFE08AA0A2102203B
:104010000CF054FF4E22002104200CF0EFFFA0B260
:1040200006AB02220A210CF002F9BDF818201FA1EC
:1040300008A8FEF797FE08AA0A2104200CF03EFF0C
:104040004D22002103200CF0D9FFA0B207AB0122C2
:1040500008210CF0ECF89DF81C2012A108A8FEF72E
:1040600081FE08AA0A2103200CF028FF12B0BDE847
:10407000F081000048480020253032642D25303280
:10408000642D2530326420253032643A2530326484
:104090003A2530326400000025303258253032583D
:1040A00025303258253032580000000025640000C9
:1040B00010B58AB00446207800F0F000F02805D151
:1040C0004A22002104200CF099FF04E04B22002139
:1040D00004200CF093FFE078A178CDE9001063781C
:1040E000227805A102A8FEF73DFE02AA0A210420BB
:1040F0000CF0E4FE0AB010BD25303258253032589D
:10410000253032582530325800000000F0B58FB00D
:1041100007460C46A0B203AB302208210CF087F80A
:1041200003A9684607F032F9BDF8140010F0800FBB
:104130000CD0BDF8140010F0100F07D1002107A813
:1041400011F00EFC0546FFF767FE0BE0BDF814000A
:1041500010F0100F06D000210AA811F001FC05464E
:1041600000F0DAF8BDF81410C8B209AA6946FFF7E2
:104170009DFEBDF81A20BDF812106846FFF735FE07
:10418000A0B202AB042211460CF051F802A8FFF7CE
:104190008FFF0FB0F0BD2DE9F0419EB080460C4678
:1041A000A0B212AB302208210CF041F812A96846E7
:1041B00007F0ECF8002116A811F0D2FB0646FFF735
:1041C0002BFEBDF85010C8B218AA6946FFF76EFE64
:1041D000BDF85620BDF84E106846FFF706FE502287
:1041E000002104200CF00AFFA0B202AB40223821CB
:1041F0000CF01DF8002505E02A210DF109004155BC
:10420000681C85B29DF80800A842F5DC02AA0A21C4
:1042100004200CF02FFE1EB0BDE8F08170B5C8B0D0
:1042200005460E4628A928460DF042F930780628A2
:104230001DD2DFE800F01C03080D121708A9442066
:104240000CF060FB18E008A942200CF05BFB13E0C7
:1042500008A943200CF056FB0EE008A945200CF0FD
:1042600051FB09E008A99C200CF04CFB04E008A9D4
:1042700046200CF047FB00BF00BF2021BDF8A02066
:10428000501C80B2ADF8A0000DF1A20020F8121071
:1042900000240FE00DF1220030F81410BDF8A0202A
:1042A000501C80B2ADF8A0000DF1A20020F8121051
:1042B000601CC4B2BDF82000A042EBDCEB89A889E9
:1042C000421C13A16846FEF74DFD00240DE01DF8C9
:1042D0000410BDF8A020501C80B2ADF8A0000DF174
:1042E000A20020F81210601CC4B26846FBF7FEFF63
:1042F0001E2803D26846FBF7F9FF00E01E20A0420B
:10430000E5D828A900200CF065FE48B070BD00007B
:104310002825642F2564290070B590B004460D4609
:104320001848B0F9182006AB2046294611F094FB36
:104330005222002101200CF061FE9DF8180064213A
:1043400090FBF1F201FB1206BDF81E009DF81D1056
:104350009DF81C209DF81B30CDE90132CDE90310FA
:104360009DF81A0000909DF81930324606A108A861
:10437000FEF7F8FC08AA0A2101200CF09FFD10B0FE
:1043800070BD000048480020253032642D253032B1
:10439000642D2530326420253032643A2530326471
:1043A0003A253032642E253033640000F0B59FB0DA
:1043B00007460C46A0B213AB302208210BF037FFA2
:1043C00013A901A806F0E2FF002117A811F0C8FA0E
:1043D0000546FFF721FDBDF85410C8B219AA01A97E
:1043E000FFF764FDBDF85A20BDF8521001A8FFF791
:1043F000FCFC5122002104200CF000FEA0B203AB13
:10440000402238210BF013FF03AA0A2104200CF0EC
:1044100031FD1FB0F0BD00002DE9F04192B08046A3
:104420000C469A22002101200CF0E8FDA0B206AB58
:10443000042208210BF0FBFE5E49069812F06AF890
:1044400005460E465C48B0F9182004AB28463146B4
:1044500011F0D4FA9DF81000642190FBF1F201FBF9
:1044600012079DF815009DF814109DF813209DF873
:104470001230CDE90032CDE902109DF811303A46F4
:104480004EA108A8FEF76EFC08AA0A2101200CF034
:1044900015FD9B22002102200CF0B0FDA0B206AB5E
:1044A00004220C210BF0C3FE4249069812F032F8A8
:1044B00005460E464048B0F9182004AB2846314660
:1044C00011F09CFA9DF81000642190FBF1F201FBC1
:1044D00012079DF815009DF814209DF813109DF803
:1044E0001230CDE90031CDE902209DF811303A4675
:1044F00032A108A8FEF736FC08AA0A2102200CF017
:10450000DDFCA0B211AB012204210BF090FE9DF85E
:104510004400022805D14A22002103200CF06EFD40
:104520000EE09DF84400012805D14B220021032014
:104530000CF064FD04E04C22002103200CF05EFD31
:104540009DF84400022803D09DF84400012818D1AA
:10455000A0B210AB042200210BF069FE9DF84300CD
:104560009DF84210CDE900109DF841309DF84020A3
:104570001AA108A8FEF7F6FB08AA0A2103200CF0EE
:104580009DFC4D22002104200CF038FDA0B207ABA9
:10459000012206210BF04BFE9DF81C2012A108A859
:1045A000FEF7E0FB08AA0A2104200CF087FC12B0F9
:1045B000BDE8F08180436D384848002025303264E2
:1045C0002D253032642D2530326420253032643A76
:1045D000253032643A2530326400000025303258EC
:1045E000253032582530325825303258000000002E
:1045F00010B5044600F0EAFC10BD10B5044600F00A
:10460000D1FC10BD10B5044601F044FA10BD000005
:1046100010B50446002003490874087C0BF0B0FF75
:1046200010BD00004848002070B5A0B004460E46FA
:104630001546694631200CF065F90A48007C50B9EE
:104640002A21BDF80020501C80B2ADF800000DF109
:10465000020020F812102A46684661690CF084FFB7
:1046600020B070BD4848002010B504460120034921
:104670000874087C0BF084FF10BD0000484800203F
:1046800070B5A0B004460E461546694630200CF0C1
:1046900039F90A48007C50B12A21BDF80020501C8D
:1046A00080B2ADF800000DF1020020F812102A4689
:1046B000684661690CF058FF20B070BD4848002082
:1046C00010B5044601F000FB10BD000010B50CF061
:1046D00091FA2049884233D00CF090FB1E48807C30
:1046E000012812D11D481B4908601B48007D10F0AD
:1046F000010F04D01A48C8600A20086118E0194860
:104700001449C8600A20086112E01348807C02281E
:1047100007D115480F4908601448C8600A2008618D
:1047200006E011480B4908601048C8600A2008617B
:10473000002008494861886108460CF077F907E0D5
:1047400001E00CF045F90CF04FFA02498842F8D12B
:1047500010BD0000DC890020484800208495010835
:1047600074960108D4950108AC95010814970108C6
:1047700010B50DF06FFE0FF04DFD0DF02CFC0FF09D
:104780008DF80DF02BFC0FF0A4FE0FF0F1FB0DF0F7
:10479000FDFE0FF0F3F90DF0B5FA05480FF0AEFD90
:1047A0000FF018F80EF0E8F90DF0B8FC10BD00009D
:1047B0000038014010B50446206810280DD160680B
:1047C000152804D1FFF782FF0020606004E06068D4
:1047D000412801D10CF0FCF800E000BF00BF10BD83
:1047E00010B504462068102802D020280BD107E01D
:1047F00032231A4601214FF4F7700BF0E4F803E07E
:1048000000F0D0FB00E000BF00BF10BD70B5044653
:104810000D4626466868212830D006DC11284AD08B
:1048200012284AD015285CD127E022280DD0412833
:1048300002D0422855D13FE02B48007B20B1002018
:104840002949087307F0A0F84BE02748007B0128AE
:1048500012D12548C089012805DD2348C089401EA2
:104860002149C88103E0214840881F49C88130465A
:1048700000F0C4FB07F088F833E032E01A48007B10
:10488000012817D11848C08918494988884205DA93
:104890001548C089401C1449C88106E01348408867
:1048A000002802DD01201049C881304600F0A6FB37
:1048B00007F06AF815E000BF00BF0B48007B78B92D
:1048C00001200949087309484088002808DD084686
:1048D000C08928B905484088C881304600F08EFB61
:1048E00000BF00BF70BD00009016002048480020A7
:1048F000012181600021074A1173D1814FF6FF71B8
:1049000011820021517311460022C1F81220CA827F
:10491000704700009016002070B505460C462068D0
:1049200020281DD101200F490873A088088208465D
:104930000021C0F81210C18200200A4948830A46AB
:10494000118A094A927C012A01D1920401E04FF4B4
:10495000202210460BF0EFFC0249C88107F014F842
:1049600070BD0000901600204848002070B5044635
:104970002546287B18B9284600F060F908E005486C
:1049800005494860284600F00BF804480249486091
:1049900070BD00005C890108EC780020747A010881
:1049A000F0B5CFB004460CF0B5FF06469448B0F918
:1049B00018204CAB304611F04FF84CAB01220021CF
:1049C00090480BF087FA04A91D200BF09BFF04AB65
:1049D000022272218B480BF017FBE08958B1E28963
:1049E00089A124A8FEF7BEF924AB012296218548AF
:1049F0000BF056FA05E085A30122962181480BF0C1
:104A00004FFA04A917200BF07DFF04AB11220021FF
:104A10007C480BF0F9FA7A4842887BA124A8FEF77B
:104A2000A1F924AB1022372176480BF039FA04A9FA
:104A300019200BF067FF04AB1122722171480BF0B3
:104A4000E3FA6F48C28870A124A8FEF78BF924AB63
:104A5000102296216B480BF023FA208AA0F57F41A3
:104A6000FF3913D104A920200BF04CFFBDF8100032
:104A700000EB4000BF21A1EB800606EBD670411091
:104A800004AB31225F480BF0BFFAB7E0208AA0F5F3
:104A90007F41FE391FD1618B24AA04F1120006F078
:104AA000C5FC24AB2022132156480BF0F9F904A9C8
:104AB0001F200BF027FFBDF8100000EB4000BF21C6
:104AC000A1EB800606EBD670411004AB31224D48B5
:104AD0000BF09AFA92E0218A494A927C012A01D18C
:104AE000920401E04FF4202210463CAA0BF00CFC8B
:104AF0003CA80BF053FB0546A5F57F41FF3942D09A
:104B000034A928460BF06DFC002134A88175BDF84E
:104B1000FC0010F0100F12D0419803909DF80F0088
:104B20009DF80E109DF80D20CDE9002102909DF812
:104B30000C3038AA36A124A8FEF714F903E038A9EE
:104B400024A8FBF7F5FB24A8FBF7D0FB00EB400003
:104B5000BF21B1EB800F06D824AB202200212948C9
:104B60000BF09EF923E024A8FBF7C0FB00EB40000C
:104B7000BF21A1EB8000460824AB2022314621480A
:104B80000BF08EF913E024AA3CA8409906F04EFCE5
:104B900024A8FBF7ABFB00EB4000BF21A1EB80009A
:104BA000460838AB2022314616480BF079F904A9A3
:104BB0001C200BF0A7FE04AB3122002111480BF0A2
:104BC00023FA0F48B0F918204CAB429E3046439967
:104BD00010F042FFBDF836019DF83511CDE9001007
:104BE0009DF834319DF833210FA124A8FEF7BAF8BF
:104BF00024AB30222A2103480BF052F94FB0F0BD0C
:104C000048480020EC780020253264002D2D00005B
:104C10002573282530325825303258253032582512
:104C20003032582900000000253032643A253032F5
:104C3000643A253032642E25303364002DE9F04784
:104C40009CB082460CF044FA06460CF047FA8146C6
:104C500005A80CF039FDB748B74948600CF05AFE7A
:104C60000746B648B0F918200AAB384610F0C6FE21
:104C70000DF0B2F9A0B19DF82D009DF82C109DF813
:104C80002B209DF82A30CDE90032CDE902109DF8A5
:104C900029309DF82820AAA10CA8FEF763F813E09C
:104CA0009DF82D009DF82C109DF82B209DF82A30A2
:104CB000CDE90032CDE902109DF829309DF8282079
:104CC000A7A10CA8FEF74EF80CAB00224E219A4883
:104CD0000BF0E6F8AA489849486016220021012006
:104CE0000CF08CF917220F2101200CF087F9182203
:104CF000002102200CF082F91A220F2102200CF070
:104D00007DF91E22002103200CF078F91B220021DE
:104D100004200CF073F919F0400F18D00B2E06DAAE
:104D200002230022114684480BF044F81FE0142EA1
:104D300006DA0323002211467F480BF03BF816E009
:104D40000423002211467C480BF034F80FE019F0E0
:104D5000200F06D001230022114677480BF02AF8D5
:104D600005E000231A46194673480BF023F805A8FE
:104D700006F042FEF8B19DF8140010F0400F06D185
:104D80000523002228216C480BF014F830E09DF830
:104D9000150030B905230022282167480BF00AF8D6
:104DA00026E09DF81500022806DA062300222821B5
:104DB00061480AF0FFFF1BE09DF81500022806D1AC
:104DC0000723002228215C480AF0F4FF10E09DF838
:104DD0001500032806D108230022282156480AF08E
:104DE000E9FF05E009230022282153480AF0E2FFE9
:104DF0005248807CA0B963A20B2101200CF05EF820
:104E000060A21A2101200CF059F85EA20B210220A9
:104E10000CF054F85BA21A2102200CF04FF835E098
:104E20004648028858A10CA8FDF79CFF0CAA09214E
:104E300001200CF043F84148428853A10CA8FDF72B
:104E400091FF0CAA182101200CF038F83B48C288C9
:104E50004DA10CA8FDF786FF0CAA092102200CF039
:104E60002DF83648C06800280BDB344846A1C268DC
:104E70000CA8FDF777FF0CAA182102200CF01EF8F1
:104E800004E040A21A2102200CF018F89DF814004A
:104E900010F0400F0AD09DF81500032806DB092109
:104EA0000320DDE908230BF0F7FD04E035A20B2118
:104EB00003200CF003F80025002407E0204602F050
:104EC0000DFC08B9681CC5B2601CC4B202F090FBAE
:104ED000A042F3DC02F08CFB471B3A462BA10CA846
:104EE000FDF740FF0CAA0F2104200BF0E7FF2A4634
:104EF00026A10CA8FDF736FF0CAA182104200BF000
:104F0000DDFF0E48807C012802D002280CD105E08C
:104F100098221C2104200CF071F806E099221C2133
:104F200004200CF06BF800E000BF00BF1CB0BDE82F
:104F3000F0870000E8840108EC7800204848002051
:104F40005B253032642D253032642D2530326420CB
:104F5000253032643A253032643A253032645D00BF
:104F6000253032642D253032642D253032642025E1
:104F70003032643A253032643A2530326400000021
:104F8000747A01082D2D000025346400256400008A
:104F900070B504460D4605F5FA70A06006F0F4FC05
:104FA00070BD000010B50BF01FFE0749884204D009
:104FB0000BF024FF04480BF039FD00200249087370
:104FC00006F0E2FC10BD00009016002010B50BF0BA
:104FD0000BFE0949884204D00BF010FF06480BF085
:104FE00025FD0120044908730020C881084600F00F
:104FF00005F806F0C9FC10BD9016002010B5044657
:10500000E08978B90A484088002802DD0120E08163
:1050100008E04FF6FF70208206480021C0F8121009
:10502000C18210BDE0890CF039FB208200BFF8E797
:10503000484800209016002070B505460E462C46C4
:10504000706823287ED010DC14287CD006DC102861
:105050007AD011282FD0132820D156E1202874D0DF
:1050600021281CD02228F7D10EE0422829D006DCC6
:1050700024286BD025283FD04028EDD16EE043286E
:1050800065D04428E8D16BE1D4F8D00030B1D4F831
:10509000D000401EC4F8D00006F076FCE1E1D4F860
:1050A000D000022806DAD4F8D000401CC4F8D000A2
:1050B00006F06AFCD5E1204600F032FA0BF088FCDD
:1050C000CFE104F10D00D4F8D01000EB811000788E
:1050D00088B104F10D00D4F8D01000EB81100078F5
:1050E000401EC1B204F10D00D4F8D02000EB8210B4
:1050F000017006F049FCB4E104F10D00D4F8D010C1
:1051000000EB811000780F2827DA302204F10D001F
:10511000D4F8D01000EB8110401C0B4604F10D01B7
:1051200001EB83110978425404F10D00D4F8D0103A
:1051300000EB81100078401CC1B204F10D00D4F8DE
:10514000D02005E0B6E061E15EE032E033E186E0E8
:1051500000EB8210017006F017FC82E104F10D00F3
:10516000D4F8D01000EB811000780F2820DA31221B
:1051700004F10D00D4F8D01000EB8110401C0B4658
:1051800004F10D0101EB83110978425404F10D0083
:10519000D4F8D01000EB81100078401CC1B204F1AB
:1051A0000D00D4F8D02000EB8210017006F0ECFB6B
:1051B00057E104F10D00D4F8D01000EB8110007815
:1051C0000F2820DA322204F10D00D4F8D01000EBC1
:1051D0008110401C0B4604F10D0101EB831109788D
:1051E000425404F10D00D4F8D01000EB8110007887
:1051F000401CC1B204F10D00D4F8D02000EB8210A5
:10520000017006F0C1FB2CE104F10D00D4F8D010C0
:1052100000EB811000780F2820DA332204F10D0012
:10522000D4F8D01000EB8110401C0B4604F10D01A6
:1052300001EB83110978425404F10D00D4F8D01029
:1052400000EB81100078401CC1B204F10D00D4F8CD
:10525000D02000EB8210017006F096FB01E104F112
:105260000D00D4F8D01000EB811000780F2820DA60
:10527000342204F10D00D4F8D01000EB8110401C52
:105280000B4604F10D0101EB83110978425404F13E
:105290000D00D4F8D01000EB81100078401CC1B292
:1052A00004F10D00D4F8D02000EB8210017006F05C
:1052B0006BFBD6E004F10D00D4F8D01000EB8110A8
:1052C00000780F2820DA352204F10D00D4F8D01030
:1052D00000EB8110401C0B4604F10D0101EB831122
:1052E0000978425404F10D00D4F8D01000EB81107D
:1052F0000078401CC1B204F10D00D4F8D02000EBBE
:105300008210017006F040FBABE004F10D00D4F810
:10531000D01000EB811000780F2820DA362204F13B
:105320000D00D4F8D01000EB8110401C0B4604F1A6
:105330000D0101EB83110978425404F10D00D4F8FA
:10534000D01000EB81100078401CC1B204F10D00B8
:10535000D4F8D02000EB8210017006F015FB80E03D
:1053600004F10D00D4F8D01000EB811000780F2864
:1053700020DA372204F10D00D4F8D01000EB8110B0
:10538000401C0B4604F10D0101EB831109784254D6
:1053900004F10D00D4F8D01000EB81100078401C0F
:1053A000C1B204F10D00D4F8D02000EB82100170DE
:1053B00006F0EAFA55E004F10D00D4F8D01000EB45
:1053C000811000780F2820DA382204F10D00D4F87B
:1053D000D01000EB8110401C0B4604F10D0101EBD5
:1053E00083110978425404F10D00D4F8D01000EB79
:1053F00081100078401CC1B204F10D00D4F8D02017
:1054000000EB8210017006F0BFFA2AE004F10D00F3
:10541000D4F8D01000EB811000780F2820DA392260
:1054200004F10D00D4F8D01000EB8110401C0B46A5
:1054300004F10D0101EB83110978425404F10D00D0
:10544000D4F8D01000EB81100078401CC1B204F1F8
:105450000D00D4F8D02000EB8210017006F094FA11
:1054600000BF00BF70BD70B505462E4600203073EA
:1054700000240AE006F10D0202EB841104F140025F
:10548000D0B20AF0D8FF601CC4B2032CF2DB0020BB
:10549000C6F8D00070BD000070B506463546287BC2
:1054A00020B10E2102200BF0BBFD70BD16A2002121
:1054B00001200BF003FD15A2002102200BF0FEFCE1
:1054C00013A2002103200BF0F9FC002408E005F1F1
:1054D0000D0000EB84120221601C0BF0CBFC641C5D
:1054E000032CF4DB05F10D02D5F8D03002EB83126A
:1054F0001278911C581C5F220BF0CEFC0421084648
:105500000BF08EFD00BFD0E7312E0000322E0000E0
:10551000332E000070B504460D460BF059FA70BDED
:1055200070B50546002416E0002205F10D0000EBE1
:105530008410401C05F10D0101EB841109784254DF
:1055400005F10D0202EB841104F14002D0B20AF021
:10555000FDFF601CC4B2032CE6DB70BD10B503F088
:1055600027FD10BD1FB54FF4165000900020ADF878
:105570000400ADF80600ADF80800ADF80C000820F6
:10558000ADF80A00694602480EF04EFF1FBD00004C
:10559000003801404A68212A0CD004DC112A0AD0C4
:1055A000152A09D105E0222A02D0412A04D103E0BC
:1055B00002E001E000E000BF00BF704770B50446A4
:1055C00025464FF4967120460BF0DEF90020E86086
:1055D0002861FFF7C7FF70BD10B50446FFF7BEFF97
:1055E00010BD000070B5A8B006463446206920B949
:1055F000694664200BF086F92EE0206901281FD14E
:10560000694665200BF07EF91648438816A120A84C
:10561000E268FDF7A7FB00250CE020A8415DBDF87E
:105620000020501C80B2ADF800000DF1020020F8FF
:1056300012106D1C20A8FAF759FEA842EDD80BE015
:105640002069022804D1694667200BF05BF903E06A
:10565000694666200BF056F9694602200BF0BAFC49
:1056600028B070BD4848002025642F256400000044
:105670002DE9F041CEB0054688462C462069002829
:105680005ED110F03DFB3226304611F0B1F800BF7C
:105690005448006810F03CFB1DA80AF08FFE7022F1
:1056A00021A96846FAF7E4FD1DA80FC810F00AFA10
:1056B00010F026FB4C48006810F02AFB4B49897C0F
:1056C000012901D1890401E04FF4202108463DA9B8
:1056D0000AF0F0FD9DF8F7009DF8F610CDE90010F6
:1056E0009DF8F5309DF8F42041A13EA8FDF73AFB66
:1056F0003EA810F00DFB43A010F00AFB43480068E1
:1057000010F006FB3948428841A13EA8FDF72AFB6C
:105710003EA810F0FDFA10F0F3FA3E48006810F0D1
:10572000F7FA0CF0F7F8064610F0F2F910F0E8FA84
:1057300010F0E6FA0120206108F59670A8604EE0AE
:105740002069012849D129494988E06888420ADA54
:10575000A18988B20CF01EFAE068401CE06008F5F0
:105760009670A86036E027A010F0D2FA10F0C8FAC0
:1057700024A010F0CDFA10F0C3FA22A010F0C8FA5D
:1057800010F0BEFA1FA010F0C3FA10F0B9FA1DA075
:1057900010F0BEFA10F0B4FA1AA010F0B9FA10F036
:1057A000AFFA18A010F0B4FA10F0AAFA15A010F091
:1057B000AFFA10F0A5FA13A010F0AAFA10F0A0FAB0
:1057C00010A010F0A5FA10F09BFA0220206108F555
:1057D000FA60A86006F0D8F801E00BF0F9F84EB0D6
:1057E000BDE8F0818C990108909901084848002093
:1057F000253032582530325825303258253032582D
:105800000000000020202020000000009C990108DA
:10581000256400009899010870B504460D46686833
:10582000212812D004DC112819D0152818D10BE03A
:10583000222802D0412813D112E0E068002802DDBE
:10584000E068401EE0600BE00AE001F0D1FEE16894
:10585000091D884202DDE068401CE06000E000BFF6
:1058600000BF70BDFA2181600021C1607047000057
:105870002DE9F04391B0054600244FE0E868071990
:10588000384601F0CFFE8046384601F0B7FE81462B
:105890004B467A1C2AA101A8CDF80080FDF762FAD8
:1058A00001AA0021601C0BF009FB384601F0B0FE94
:1058B0000646A6F58050113805D125221121601C1D
:1058C0000BF09CFB1AE0A6F58050103805D123227E
:1058D0001121601C0BF092FB10E0B6F5835F05D13F
:1058E00024221121601C0BF089FB07E0B6F5825FD2
:1058F00004D197221121601C0BF080FB384601F087
:10590000EDFE28B102221A21601C0BF077FB04E0A7
:1059100003221A21601C0BF071FB641C01F068FE6D
:10592000E968401A042801DD042003E001F060FE6C
:10593000E968401AA042A1DC11B0BDE8F083000084
:1059400025642E20253038582D253033580000008E
:1059500070B504460D4605F1FA00A06006F014F893
:1059600070BDFA218160704730B5A9B00546424844
:10597000807C012801D184040CE03F48807C02280F
:1059800002D14FF4202405E0792102200BF048FBDE
:1059900029B030BD23A920460AF08CFC03A920467B
:1059A0000AF09DFC5722002101200BF027FB582212
:1059B000102101200BF022FB5422002102200BF0C9
:1059C0001DFB5522002103200BF018FB562200215D
:1059D00004200BF013FB2848028828A124A8FDF717
:1059E000C1F924AA0A2101200BF068FA2248428852
:1059F00022A124A8FDF7B6F924AA1A2101200BF050
:105A00005DFA03AA0A2102200BF0D2FA9DF88F005A
:105A10009DF88E10CDE900109DF88D309DF88C20FA
:105A200017A124A8FDF79EF924AA0A2103200BF050
:105A300045FA1148407C10F0400F05D05A220A2147
:105A400004200BF0DBFA14E00B48C07C10F0100FC0
:105A500005D05B220A2104200BF0D0FA09E00648A9
:105A6000C07C10F0040F04D059220A2104200BF04E
:105A7000C5FA00BF8CE700004848002025640000FC
:105A8000253032582530325825303258253032589A
:105A90000000000010B51048807C012805D10F4897
:105AA0000F49C860062008610EE00B48807C022880
:105AB00005D10C480A49C8600620086104E009487D
:105AC0000749C860062008610020054948618861CF
:105AD00008460AF0ABFF10BD4848002004980108B2
