:020000040800F2
:10000000F0A6002099010008A1010008A301000842
:10001000A5010008A7010008A901000800000000D0
:1000200000000000000000000000000001010008C6
:10003000AD0100080000000045010008293001085A
:10004000B3010008B3010008B3010008B3010008C0
:10005000B3010008B3010008B3010008B3010008B0
:10006000B3010008B3010008B3010008B3010008A0
:10007000B3010008B3010008B3010008B301000890
:10008000B3010008B3010008B3010008B301000880
:10009000E5250008B3010008B3010008711200084B
:1000A000B3010008B3010008B3010008B301000860
:1000B00065200008B3010008AD200008B301000866
:1000C000B3010008B3010008B3010008B301000840
:1000D000B30100084124000875240008C124000869
:1000E000B3010008B3010008B3010008DFF80CD029
:1000F00000F0DEFC00480047091E0108F0A60020C1
:10010000224B19680868B0E8F00F80F30988BFF344
:100110006F8F4FF0000080F311884EF00D0E704786
:100120000000000006480068006880F3088862B696
:1001300061B6BFF34F8FBFF36F8F00DF00BF00BF0B
:1001400008ED00E0EFF30980BFF36F8F0F4B1A68E3
:1001500020E9F00F106008B54FF08F0080F3118890
:10016000BFF34F8FBFF36F8F12F090FE4FF0000080
:1001700080F31188BDE8084019680868B0E8F00FFE
:1001800080F30988BFF36F8F704700BF0000002025
:10019000EFF3058070470000064880470648004797
:1001A000FEE7FEE7FEE7FEE7FEE7FEE7FEE7FEE727
:1001B000FEE7FEE715200008ED0000082DE9F041FC
:1001C00000242546002905DA01240027D0EB07008A
:1001D00067EB0101002B05DA0027D2EB07020125AE
:1001E00067EB030300F014FB86460E4617469C4659
:1001F000AC4204D00025D0EB050E65EB010624B11E
:100200000020D2EB000760EB030C704631463A4603
:100210006346BDE8F081202A04DB203A21FA02F08F
:100220000021704721FA02F3D040C2F12002914030
:100230000843194670470000004870470C600108E9
:10024000A0F16101192900D8203870470649074AF2
:100250000868504343F23902104408604008704770
:100260000149086070470000442900206D4EC641D6
:1002700010B5431A934209D28318881803E010F886
:10028000011D03F8011D521EF9D210BD40EA010301
:100290009B0703D009E008C9121F08C0042AFAD23C
:1002A00003E011F8013B00F8013B521EF9D210BDEA
:1002B000D2B201E000F8012B491EFBD270470022A8
:1002C000F6E710B513460A4604461946FFF7F0FF55
:1002D000204610BD10B5044604E00B7800F8013B41
:1002E00003B1491C521EF8D2204610BD421C10F822
:1002F000011B0029FBD1801A704710B5002200E0D5
:10030000521C835C8C5CA34201D1002BF8D1D8B283
:10031000E1B2401A10BD30B504460020034600E0AB
:100320005B1C934203D2E05CCD5C401BF8D030BD37
:10033000034611F8012B00F8012B002AF9D11846C9
:100340007047F0B480EA0102D40F4200B2EB410FD3
:1003500002D20246084611464A0042D0C30DDDB221
:10036000C1F3C752AD1A202D35DAC1F3160141F49D
:10037000000204B15242C5F1200602FA06F12A41F8
:100380001044B3EBD05F23D0C4B1012DA0EBC35018
:1003900009DCF0BC4FF0004202EAC35200F5000055
:1003A000DBB200F090BA400000F1807000EBC35067
:1003B000A0F1807040EAD170490009E0490841EAA3
:1003C000C071A0EBC35000F50000400800EBC35023
:1003D000F0BC00F06FBA6142012202EB4101001B48
:1003E000F6E7F0BC704781F00041AAE780F00040DA
:1003F000A7E780EA010210B502F00043400026D0D2
:100400004A0023D04FEA106101EB1261C0F356009D
:10041000C2F3560240F4000042F40002A0FB0220A6
:10042000A1F17F014FEA0040140401D000F1010066
:1004300050EA124001D44000491EC2B20C0604EB3F
:10044000D010401C4008802A02D003E0002010BDDC
:1004500020F00100002900DA0020184310BD2DE92A
:10046000FE4F804681EA0300C00F0C46009021F049
:10047000004123F00045B8EB0200A94105D24046F7
:10048000214690461C460B46024623F0004010438E
:1004900004D14046214603B0BDE8F08F270DC7F3D5
:1004A0000A00C3F30A510290401A0190402866DA0C
:1004B000C3F3130040F4801B0098924620B1002340
:1004C000D2EB030A63EB0B0B01985946C0F14002D3
:1004D000504600F0CEF906460D4650465946019A60
:1004E00000F0D6F910EB08006141002487EA1152B0
:1004F00084EAE7731A433BD0009A3AB3019A012A7F
:100500004FEA075210DC001B61EB02014FF0004282
:1005100002EA0752CDE90042001C41F58011324643
:100520002B4600F00AFAB6E7001B61EB0201001C43
:1005300041F5801300185B412018A2F5001747EB26
:10054000030140EAD570B6196D4111E06D084FEA1C
:10055000360645EAC0754FEA0752001B61EB0201FF
:10056000001C41F5801149084FEA30000019514143
:1005700032462B4603B0BDE8F04F00F0D1B90098E9
:10058000012240000023D0EB020263EBE0730098ED
:1005900021464FEAE074B8EB000061EB0401E9E7A3
:1005A00083F000435BE781F0004158E72DE9FE4FFF
:1005B00081EA030404F0004421F0004100944FF06C
:1005C000000B23F0004350EA010402D052EA030476
:1005D00004D10020014603B0BDE8F08FC3F30A54F4
:1005E000C1F30A552C44A4F2F3340194A0FB025445
:1005F000C1F3130141F48011C3F3130343F48013D7
:1006000001FB024400FB034E840A970A44EA81542A
:1006100047EA8357A4FB076802958D0A05FB078507
:100620004FEA932C04FB0C542705029D4FEA065811
:1006300047EA1637B5EB08056EEB070C870E920EEE
:1006400047EA811742EA8312A7FB0201B6EB0B01CE
:1006500064EB00042B0D43EA0C335E1844EB1C5092
:10066000DA465146E7FB0201C5F313044FEA0B33A8
:1006700043EA14534FEA0432019C43EA0603A4F10F
:100680000C040294009CCDE900B400F056F9A2E7F6
:100690002DE9F04D81EA030404F0004B21F0004500
:1006A00014464FF0000A23F0004150EA050220D022
:1006B00054EA01021DD0C5F30A570246C5F31303DD
:1006C000C1F31300C1F30A5640F4801543F48013BC
:1006D000A7EB0608101BD64608F2FD3873EB0500A1
:1006E00002D308F1010801E092185B41B8F1000F54
:1006F00003DA00200146BDE8F08D00204FF48011A0
:10070000064684460EE0171B73EB050705D3121B44
:1007100063EB050306434CEA010C49084FEA30003D
:1007200092185B4150EA0107EDD152EA030012D062
:1007300082EA040083EA0501084303D100224FF056
:10074000004308E0101BAB4102D20122002302E06B
:100750006FF0010253101AEB06004CEB085110EB3E
:100760000A0041EB0B01BDE8F04D00F0D9B8C10F14
:1007700080EAE0700844CA079623002100F0A3B87D
:1007800000F0004220F00040C10DC0F3160040F41C
:1007900000007F2901DA00207047962903DCC1F1AF
:1007A0009601C84001E096398840002AF4D04042C2
:1007B000704700F0004230F000400AD0C10D01F552
:1007C0006071C0F3160042EA0151C20840071143AC
:1007D000704700200146704701F0004330B421F01B
:1007E000004150EA010206D00A0DA2F56072C1F381
:1007F0001301002A02DC30BC00207047440F44EA99
:10080000C104C100E01830BC00EBC25000F052B887
:100810002DE9F05F0546002092469B468846064635
:10082000814640241BE02846414647462246FFF7C2
:10083000F2FC53465A46C01A914110D3114618464D
:10084000224600F016F82D1A67EB01084F462246A3
:100850000120002100F00DF817EB00094E41201E89
:10086000A4F10104DFDC484631462A464346BDE890
:10087000F09F202A04DB203A00FA02F100207047A2
:100880009140C2F1200320FA03F3194390407047CE
:10089000202A06DBCB17203A41FA02F043EAE07344
:1008A00006E041FA02F3D040C2F120029140084331
:1008B000194670470029A8BF7047401C490008BF6F
:1008C00020F00100704710B4B0FA80FC00FA0CF080
:1008D00050EA010404BF10BC704749B1CCF12004B8
:1008E00021FA04F411FA0CF118BF01212143084345
:1008F000A3EB0C01CB1D0106000A002BBEBF00209C
:1009000010BC704700EBC35010440029A4BF10BCBA
:100910007047401C490008BF20F0010010BC704720
:1009200010B5002B08DA401C41F1000192185B4120
:100930001A4301D120F0010010BD2DE9F04D92467F
:100940009B4611B1B1FA81F202E0B0FA80F2203296
:100950009046FFF78EFF04460F4640EA0A0041EA40
:100960000B0153465A46084303D120463946BDE899
:10097000F08D114653EA010015D0C8F140025046EF
:10098000FFF749FC05460E46504659464246FFF7DA
:1009900070FF084301D0012000E00020054346EA33
:1009A000E0762C4337430A984FEA4453A0EB080003
:1009B0004FEAD4240A304FF0000244EA47544FEA89
:1009C000D72502D500200146D1E70105101969415C
:1009D000DDE9084500196941BDE8F04DA0E770B5B3
:1009E00021F0004303430CD0C1F30A550024D5EB9A
:1009F000040564EB0403D617AD1AB34102DB0020F3
:100A0000014670BD201841EB025170BD2DE9F04D3B
:100A100000231A461B1A8A4103DB00200146BDE869
:100A2000F08DC1F30A52C1F3130141F480154FF068
:100A3000000BD10702D100186D41521E0027044659
:100A400040F2FF11384601EB620A3E4680460246FC
:100A500000204FF48011FFF7DEFBC2197141BB1873
:100A600046EB0100B4EB030C75EB000C04D3E41A65
:100A700065EB000517460E46241908F101006D418B
:100A800080463428E3DDF91946EB0600091BA8412E
:100A900003D24FF0FF32134601E0002213461BEB56
:100AA000070046EB0A51BDE8F04DFFF739BF0000E3
:100AB000064C074D06E0E06840F0010394E80700AB
:100AC00098471034AC42F6D3FFF714FB8C61010851
:100AD000AC6101080EB5C10F80EAE0700844CA0796
:100AE000002140F233438DE80E000A460B46FFF723
:100AF00024FF03B000BD0EB540F233410291002146
:100B0000CDE900110A460B46FFF717FF03B000BD01
:100B100070B5C1F30A5201F000450024C1F313017E
:100B200040F2FF3341F480119A4201DA002070BD97
:100B300040F233439A42A2F2334203DC5242FFF7BF
:100B40006AFB00E090402C43F1D0404270BD70B58C
:100B500001EB020410F8015B15F0070301D110F856
:100B6000013B2A1106D110F8012B03E010F8016BAC
:100B700001F8016B5B1EF9D12B0705D40023521E2F
:100B80000FD401F8013BFAE710F8013B02F1020231
:100B9000A1EB030303E013F8015B01F8015B521EB4
:100BA000F9D5A142D6D3002070BD0000F0B50023D6
:100BB00001261F461BE000BF00EB03142568012D32
:100BC00010D1656815B1012D08D00BE0A568012D85
:100BD00008D1E46834B941F8236007E0A5680DB98D
:100BE000E4680CB10020F0BD41F823705B1C934217
:100BF000E2D30120F0BD10B5012000F0FBFFBDE8FD
:100C00001040002000F0F6BF70B50023094C0DE045
:100C1000C55C01EB430604EB15152D7801F8135064
:100C2000C55C5B1C05F00F05655D75709342EFD3E5
:100C300070BD0000A837010801460020CA0700D097
:100C400080208A0701D540F040004A0701D540F0D6
:100C500020000A0701D540F01000CA0601D540F077
:100C600008008A0601D540F004004A0601D540F08C
:100C70000200090601D540F00100704770B5144626
:100C80000D460646002304E0F05CFFF7D5FFE8546C
:100C90005B1CA342F8D370BD30B50021234A012468
:100CA0000B46455C2D0602D502F8314001E002F802
:100CB0003130455C6D0602EBC10501D56C7000E07A
:100CC0006B70455CAD0602EBC10501D5AC7000E070
:100CD000AB70455CED0602EBC10501D5EC7000E0A0
:100CE000EB70455C2D0702EBC10501D52C7100E0CE
:100CF0002B71455C6D0702EBC10501D56C7100E0FD
:100D00006B71455CAD0702EBC10501D5AC7100E02C
:100D1000AB71455CED0702EBC10501D0EC7100E061
:100D2000EB71491CC9B20729BBD930BD183100206D
:100D3000F0B500210C4D8C465FF080030022CC06FC
:100D400000F801C0240EA618AE5D26B1475C23FA58
:100D500002F637434754521CD2B2082AF3D3491C37
:100D6000C9B20829EAD3F0BD18310020F0B5827A63
:100D7000012191402D4A136843F0010313602B4B6E
:100D80001C331C688C431C60284C284D077B0C349A
:100D900040352E1DA7B927688F4327604788B0F8D4
:100DA00006C047EA0C4790F80AC045F83C7007882F
:100DB000B0F804C047EA0C4790F80AC046F83C7007
:100DC000077B012F0ED127680F4327600468877ABD
:100DD0004FEA344445F837404468857A4FEA344452
:100DE00046F83540114CC57A241D002D256806D0E3
:100DF0000D4325600D4C0589143415B104E08D4375
:100E0000F7E725688D4325600589012D02D1256806
:100E10000D432560407B012802D118680843186003
:100E2000106820F001001060F0BD00000066004076
:100E3000002A426901D00A4300E08A4342617047B8
:100E400010B50368002223F002030360036843F037
:100E5000010303604FF6FF7300E0521C4468E4078F
:100E600001D19A42F9D14268D2073ED08A79012A4B
:100E700002683CD022F080020260CA79012A02682E
:100E800038D022F0400202600A7A012A026834D087
:100E900022F0200202604A7A012A026830D022F051
:100EA000100202608A7A012A02682CD022F008021D
:100EB0000260CA7A012A026828D022F00402026085
:100EC0008A78CC78920742EA04620C7942EA0442BA
:100ED0004C79098842EA0452491E0A43C2610168FA
:100EE00021F001010160002114E0002010BD42F05A
:100EF0008002C1E742F04002C5E742F02002C9E7A4
:100F000042F01002CDE742F00802D1E742F00402BD
:100F1000D5E7491C4268D20701D09942F9D140680F
:100F2000C007E2D1012010BD10B5FFF7DFF980B294
:100F300000EB4002BF21B1EB420F01D8002010BDF1
:100F4000A0EB800001EB400000EBD070401010BD22
:100F500010B50CF037FE00EB4002BF21B1EB420FA1
:100F600001D8002010BDA0EB800001EB400000EB99
:100F7000D070401010BD0000044A01238340106867
:100F800009B1184300E098431060704700740040B6
:100F900030B5084C236840F6FE7282409343D1E995
:100FA00000252A43D1E902510D432A4382401A43C6
:100FB000226030BD00740040034A08B51044083078
:100FC0000090016008BD0000007400400309054A5C
:100FD000012098400029116801D0014300E08143BD
:100FE0001160704704740040F0B507461E46154670
:100FF0000846FFF751FE00F047F8002400F01EF805
:1010000016B104EB440003E0C4F10F0000EB400014
:1010100005EB001000F0FEF800F096F800F082F802
:10102000204600F005F9641CE4B2102CE6D300F071
:10103000DFF83846BDE8F040FFF77ABE104A10B539
:101040000020A2F1B0010B5C1354401CC0B2202858
:10105000F9D300200A1892F820200A54401CC0B28C
:101060002028F7D306490020064A913901F161038F
:10107000145C645C1C54401CC0B23028F8D310BD12
:101080008831002079390108074910B5054A002048
:10109000A1F13F03145C645C1C54401CC0B24028A6
:1010A000F8D310BD39390108173100200B49002051
:1010B0000A780B185B780B54401CC0B21B28F8D37D
:1010C000CA760A7F1C200B185B780B54401CC0B2F8
:1010D0003728F8D381F8372070470000D830002037
:1010E000074910B5054A0020A1F13F03145C645C78
:1010F0001C54401CC0B23828F8D310BDD1380108A8
:101100001731002010B5054B054A00215C5CA45C3A
:101110004454491CC9B23029F8D310BD093901081B
:10112000D7300020074910B5054A002001F14103DE
:10113000145C645C1C54401CC0B22028F8D310BD61
:10114000A93B010817310020FCB52748274C012195
:101150006B4600BF01EB410500EB450210F815504E
:101160005679577806EB45051679EDB206EBC706BA
:101170009778D278BF0007EB4202324404EB811625
:10118000D2B206EB0515AA5C03EB5105891CC9B266
:101190002A700829DED3002101EB410500EB45024E
:1011A00010F815505679577806EB45051679EDB2CB
:1011B00006EBC7069778D278BF0007EB42023244AD
:1011C00004EB8116D2B206EB0515AD5C03EB5102C0
:1011D000891C1678C9B246EA051515700829DBD3B3
:1011E0001846FFF759FDFCBD58310020A939010808
:1011F000074910B5054A002001F14103145C645C05
:101200001C54401CC0B24028F8D310BDC93B010893
:10121000D730002010B5054A0021535C445C634080
:101220005354491CC9B23029F7D310BD583100209E
:101230000E4B30B5A3F130010F28A1F180024FF021
:10124000000008D11C5C0D5C6C401454401CC0B202
:101250002028F7D330BD1C5C0D5C6C401518401C79
:10126000C0B285F820402028F5D330BD8831002059
:1012700010B54FF4807000F023F80E4A0121C2F837
:10128000A012002815D00C480168002911DB016864
:1012900001EB4102094901EB82029268002A08D061
:1012A000006800EB400001EB80008068BDE8104062
:1012B000004710BD00802042F41200206C51002035
:1012C000064A014600201268044B0A4014331B688A
:1012D0000B4202D0002A00D00120704700040140D8
:1012E0002DE9FF5F83460C466846C0F313004FF0BC
:1012F0000851924601EB401600252246594602202D
:1013000000F018FCA41CA4B2012801D0022832D19C
:101310006D1C0A2DF1D322465946022000F00AFC2A
:10132000A41CA4B2012826D0022824D05FF0000516
:1013300005EBC50004EB400210325946022000F0D4
:10134000F9FB012817D0022815D06D1C0D2DEFD305
:1013500000274FF00108B9460025224659460220D1
:1013600000F0E8FBA41CA4B248B1032807D0012870
:1013700007D0022805D0002004B0BDE8F09F404609
:1013800000E0484605EBC70146F821006D1C082D1A
:10139000E3D3A41C7F1CA4B20D2FDDD351466846B5
:1013A00000F0D9F9E8E700002DE9FF5F83460C461D
:1013B0006846C0F313004FF00851924601EB401607
:1013C000002522465946022000F0B4FBA41CA4B21A
:1013D00001282BD16D1C0A2DF3D322465946022039
:1013E00000F0A8FBA41CA4B201281FD05FF00005E8
:1013F00005EBC50004EB400210325946022000F014
:1014000099FB012812D06D1C0D2DF1D300274FF050
:101410000108B946002522465946022000F08AFB01
:10142000A41CA4B2022805D0012805D0002004B0D5
:10143000BDE8F09F404600E0484605EBC70146F88E
:1014400021006D1C082DE6D3A41C7F1CA4B20D2F17
:10145000E0D35146684600F001F8E8E770B50D4664
:10146000044601460B22002004F0D6FCE17A227BE0
:1014700001EB0221814202D1A07A102801D2002082
:1014800070BD206828606068686020892881A07A23
:10149000A872012070BD000004490A6822F0100201
:1014A0000A600A6802430A60704700000020024098
:1014B000034A116801F038010143116070470000D0
:1014C0000020024008B50379021D13B140F201501B
:1014D00006E05378102B05D0112B09D040F20250B2
:1014E000088008BD0091917803460822054805E070
:1014F0000346009103489178072220300CF042FF08
:1015000008BD00004416002010B50C460831201D0F
:101510000FF045FE2080002801D10820608010BD1A
:1015200010B50C460FF049FE208010BD10B50C46DA
:10153000C079091D0FF046FE2080002801D110203F
:10154000608010BD10B50C46C079091D0FF0CCFEAF
:101550002080002801D10420608010BD10B50C4609
:10156000C27900F10801104610F024F9208010BD66
:1015700010B50C46C27900F10801104610F0A6F92A
:10158000208010BD704770477047000010B58A0773
:1015900021F003040649130F21440F228C689A405E
:1015A00094438C608A68984002438A6010BD0000B2
:1015B00000000140F0B5CA78002502F00F03D20602
:1015C00001D58A7813430C784FF00F0E0122ECB14D
:1015D000D0F800400F8802FA05F63740B74211D123
:1015E0004FEA850C0EFA0CF724EA070703FA0CF40D
:1015F0003C43CF78282F02D0482F02D002E046612A
:1016000000E006616D1C082DE4D304600C88FF2CFB
:101610001ED944685FF0000606F1080702FA07F5D4
:101620000F882F40AF420FD14FEA860C0EFA0CF70D
:10163000BC4303FA0CF73C43CF78282F00D1456117
:10164000CF78482F00D10561761C082EE4D3446082
:10165000F0BD0000F0B5144C002801DAE36900E0A9
:101660006368420D120185B2C0F301579540C0F383
:101670000346032F05D0C2020AD50322B24093438A
:1016800007E023F07062636823F07063636002E038
:10169000AB4343F0706201B12A43002801DAE261F2
:1016A000F0BD6260F0BD0000000001404161704784
:1016B000016170470AB10161704741617047A0F153
:1016C0003001092901D8C8B27047A0F141010529AC
:1016D00001D8373804E0A0F16101052902D8573854
:1016E000C0B270470020704770B5044600232CE05C
:1016F00014F81300A0F13005092D01D8EEB20BE06B
:10170000A0F14105052D01D8373804E0A0F16105AD
:10171000052D1ED85738C6B204EB43004078A0F11F
:101720003005092D01D8E8B20BE0A0F14105052DE7
:1017300001D8373804E0A0F16105052D09D85738E4
:10174000C0B200EB0610C8545B1C9342D0D31046C5
:1017500070BD184670BD70B50D460446014608229E
:10176000002004F059FB217A627A01EB02218142C8
:1017700001D0002070BD20682860606868606089C2
:101780002881207BA872012070BD0000F0B50022E6
:1017900014460127164600234FEA030550F822C0DD
:1017A000BCF1000FC5F1070C0CEBC40C04D041F8E0
:1017B0002C7083F0010301E041F82C60521C6D1C79
:1017C000042DEBD350F822500DB183F00103B3BBCD
:1017D000521C002550F822C0BCF1000FC5F1030CCB
:1017E0000CEBC40C04D041F82C7083F0010301E031
:1017F00041F82C60521C6D1C042DEBD350F8225084
:101800000DB183F00103D3B9521C641C052CC2D363
:10181000002300244FEA040503EB850651F82660F7
:101820000EB184F001046D1C0A2DF5D3C3F103053C
:10183000154450F825500DB184F001040CB100207E
:10184000F0BD5B1C042BE4D30120F0BDC0F31300FA
:101850004FF0085202EB4010AFF30080F0B5C1F337
:1018600013014FF0085202EB41150A225FF03F01CD
:1018700001F03F0350F8233043B10A2A01D2521E2F
:1018800006D0491C8929F3D3C2BB01E00922F8E73D
:101890000023491C01271E460022144601F03F0C7C
:1018A00050F82CC0BCF1000FC4F1070C0CEBC30CBA
:1018B00004D045F82C7082F0010201E045F82C605C
:1018C000491C641C042CE9D301F03F0450F8244067
:1018D0000CB182F001028AB9491C002401F03F0CCE
:1018E00050F82CC0BCF1000FC4F1030C0CEBC30C7E
:1018F00005D045F82C7082F0010202E029E045F89D
:101900002C60491C641C042CE8D301F03F0450F8FF
:1019100024400CB182F00102DAB9491C5B1C052B92
:10192000BAD3002200231C4602EB840655F8266039
:101930000EB183F00103641C0A2CF5D3C2F1030439
:101940000C4404F03F0450F824400CB183F0010330
:101950000BB10020F0BD521C042AE3D30120F0BDDE
:101960002DE9FF5F0C46834602A8C0F313014FF038
:101970000858174608EB411622465946042000F045
:10198000D9F8C0B200F04EF8241DA4B20C282CD017
:10199000002522465946042000F0CCF8C0B200F0E1
:1019A00041F8241DA4B20C281FD16D1C092DF0D3C1
:1019B00004F1D8025946042000F0BCF8C0B200F08F
:1019C00031F80C2811D000254FF00109AA46224613
:1019D0005946042000F0AEF8C0B200F023F8241DF0
:1019E000A4B20C2805D0032806D0002004B0BDE81E
:1019F000F09F46F8259001E046F825A06D1C372D94
:101A0000E5D36846C0F3130108EB41113046FFF7F8
:101A1000BDFE0028EAD0009838609DF804003871B7
:101A20000120E3E7082807D00E2805D0072801D0B9
:101A3000012800D1032070470C20704770B50023A7
:101A400001251E4617E000BF50F83340012C01D09D
:101A50003CB10BE000EBC30464683CB941F823508F
:101A600008E000EBC3046468012C01D0002070BDC5
:101A700041F823605B1C9342E6D3012070BD00F067
:101A80001F020121914040094FF0E02202EB80004B
:101A9000C0F80011704700F01F0201219140400979
:101AA0004FF0E02202EB8000C0F80011704700F018
:101AB0001F020121914040094FF0E02202EB80001B
:101AC000C0F80011704700000907090E002803DA6A
:101AD00000F00F00024A00E0024A81547047000003
:101AE00014ED00E000E400E00907090E002803DA25
:101AF00000F00F00024A00E0024A815470470000E3
:101B000014ED00E000E400E00907090E002803DA04
:101B100000F00F00024A00E0024A815470470000C2
:101B200014ED00E000E400E00149086270470000A5
:101B300000000E4230B504460020034609E0D518E7
:101B4000C5F30905400051F825500DB140F00100E2
:101B50005B1CA342F3D330BD10B504784378827880
:101B6000C07831B1120404EB032102EB0060084499
:101B700010BD190400EB022001EB0461084410BD04
:101B8000034A516821F4404101435160704700000D
:101B900000100240044A0029D16901D0014300E04D
:101BA0008143D1617047000000100240044A0029BF
:101BB000116901D0014300E08143116170470000C9
:101BC00000100240044A0029916901D0014300E05D
:101BD000814391617047000000100240044A0029CF
:101BE000D16801D0014300E08143D160704700001B
:101BF0000010024001490860704700004004424262
:101C00000C48016841F00101016041680A4A114035
:101C100041600168094A11400160016821F4802196
:101C20000160416821F4FE0141604FF41F018160B1
:101C300070470000001002400000FFF8FFFFF6FEB2
:101C400030B520494A6812F00C031F4A03D0042B18
:101C500001D0082B22D002604A680F231B4C03EAF4
:101C60001212A35C0268DA4042604B68072505EA5D
:101C70001323E35C22FA03F383604B6805EAD32362
:101C8000E35C22FA03F2C2604968032303EA91315C
:101C9000231F595CB2FBF1F1016130BD4A684B680A
:101CA00002F470124FF0020413F4803F04EB9242EE
:101CB00002D04B689B0301D5054B00E0024B5A4311
:101CC000C9E700000010024000127A005400002012
:101CD00000093D000246002053090949012B0BD0A1
:101CE000022B0BD0D1F8241002F01F0201239340E5
:101CF0000B4200D0012070470968F5E7096AF3E755
:101D0000001002400248406800F00C0070470000DC
:101D100000100240034A516821F0F0010143516074
:101D200070470000001002400B490A6822F480321C
:101D30000A600A6822F480220A60B0F5803F07D06A
:101D4000B0F5802F03D1086840F4A02008607047E8
:101D5000086840F48030F9E700100240034A5168F7
:101D600021F4E0610143516070470000001002401F
:101D700003494A6822F4605242EAC0004860704752
:101D8000001002400149086670470000000042420E
:101D9000034A5368084323F47C1318435060704788
:101DA0000010024002490A6A02430A6270470000BA
:101DB00000100240034A516821F0030101435160C1
:101DC00070470000001002400149086070470000A1
:101DD000D800424218B500204FF4A0640090312092
:101DE000FFF778FF0099491C0091A14201D000281B
:101DF000F5D03120FFF76EFF002800D0012018BD7C
:101E000002490A8882430A80704700000428004083
:101E10000248018841F01001018070470428004009
:101E20000248018821F01001018070470428004019
:101E3000034800880249091F098840EA01407047A9
:101E40001C28004000B50246FFF7E2FF0449100CD1
:101E50000880081D02805DF804EBFFF7E1BF000079
:101E60001828004000B50246FFF7D2FF0449C2F32C
:101E700003400880081D02805DF804EBFFF7D0BF27
:101E800008280040024801888906FCD570470000F8
:101E9000042800400448018821F0080101800188DD
:101EA0000907FCD570470000042800400548028956
:101EB000418903894089C01A914201D200F58060AE
:101EC00080B270473C5100200021020E62F30701EE
:101ED000C0F3074262F30F21C0F3072262F31741F8
:101EE00060F31F61084670472DE9F04180460E46B9
:101EF0000846FEF7FBF9054600240DE018F804003B
:101F0000FEF79EF90746305DFEF79AF9874202D048
:101F10000020BDE8F081641CAC42EFDB0120F8E753
:101F2000F8B5114F0C46B0FBF7F6054669460020A0
:101F3000009604F04BF82070694603F0FBFF6070D8
:101F400000984FF46162401CA07007FB1650B0FB74
:101F5000F2F102FB1100E1703C22B0FBF2F102FB56
:101F6000110021716071F8BD805101000CB5002194
:101F7000264801910091026842F4803202604FF4D9
:101F8000A063026802F400320092019A521C01928E
:101F9000009A12B9019A9A42F3D10268920333D59A
:101FA000012100911A490A6842F010020A600A6889
:101FB00022F003020A600A6842F002020A604168E5
:101FC000416041684160416841F48061416041681D
:101FD00021F47C114160416841F4E81141600168DD
:101FE00041F08071016001688901FCD5416821F0F0
:101FF00003014160416841F0020141604168C1F361
:1020000081010229FAD10CBD00910CBD00100240E3
:10201000002002400F4810B5016841F00101016045
:1020200041680D4A1140416001680C4A114001604D
:10203000016821F480210160416821F4FE014160C2
:102040004FF41F018160FFF791FF05494FF00060D9
:10205000086010BD001002400000FFF8FFFFF6FE10
:1020600008ED00E070B54FF08040002505820E4875
:102070000D4E00F51064D0F8FC18D0F8000981422C
:102080000AD9C0F30A00304490F8FB000FF03AF888
:102090002068401C206070BD0FF056F880200FF0C3
:1020A00031F8357070BD00002C7F002070B5174CE2
:1020B0000121204600F0F8F800284FF001012046E9
:1020C0001ED000F02CF8124C2068124D00EB40009E
:1020D00005EB800040688047002815D02068401E2E
:1020E00020602068002807DB206800EB400055F8DE
:1020F0002000BDE870400047BDE870400FF0DABD39
:10210000BDE8704000F00BB870BD00000008004052
:10211000F41200206C510020C94301827047C9436A
:10212000018270470029018802D041F0010101E0DD
:1021300021F00101018070474B4910B5884202D15E
:102140000121C41486E0B0F1804F09D0474988428C
:102150000DD101210220FFF729FD0021022064E0BA
:1021600001210846FFF722FD002101205DE04049E2
:10217000884206D101210420FFF718FD0021042028
:1021800053E03C49884206D101210820FFF70EFDAB
:102190000021082049E03849884206D10121102059
:1021A000FFF704FD002110203FE03449884206D1AA
:1021B00001212020FFF7FAFC0021202035E03049E2
:1021C000884202D10121441444E02E49884202D1C0
:1021D0000121CC043EE02C49884202D101210C05AA
:1021E00038E02A49884202D101214C0532E02849D1
:1021F000884206D101214020FFF7D8FC0021402071
:1022000013E02449884206D101218020FFF7CEFC4B
:102210000021802009E0204988420AD1841501214B
:102220002046FFF7C3FC00212046BDE81040FFF721
:10223000BDBC1A49884202D101210C040AE01849A8
:10224000884202D101214C0404E0164988420AD197
:1022500001218C042046FFF7C1FC2046BDE8104058
:102260000021FFF7BBBC10BD002C01400004004062
:1022700000080040000C0040001000400014004026
:1022800000340140004C0140005001400054014026
:1022900000180040001C00400020004000400140A9
:1022A000004401400048014002460020138A928900
:1022B0000B4202EA010202D0002A00D0012070473E
:1022C000002A828901D00A4300E08A438281704754
:1022D00070B5028C22F480520284048C8288838B35
:1022E0000D8823F4E6464FF6FF7303EA05253543D0
:1022F00024F400560C8903EA043434434E8803EA7C
:1023000006362643094CA04202D0094CA04205D112
:1023100022F480448A8903EA8212224382808583E0
:10232000C988A0F84010068470BD0000002C014050
:10233000003401400021018041808180C180018101
:1023400041818181C181704701858282704781848A
:102350007047000030B502881B4B1C4C98420DD0D2
:10236000A0420BD0B0F1804F08D0194DA84205D043
:10237000184DA84202D0184DA84203D122F0700592
:102380004A882A43154DA84206D0154DA84203D0CD
:1023900022F44075CA882A4302808A8882850A8886
:1023A000028598420AD0A04208D00E4A904205D039
:1023B0000D4A904202D00D4A904201D1097A01861D
:1023C0000121818230BD0000002C01400034014019
:1023D0000004004000080040000C004000100040D5
:1023E000001400400040014000440140004801400A
:1023F0004FF6FF71818000210180C1804180017210
:10240000704730B50446007840F26D114143C21C5C
:1024100001EB9205A278617803F0B8FDE1784FF402
:102420006162514322792844C2EB021201EB82011E
:102430006279114440F2A322504301EBC01030BD39
:102440000A4801880A0700F1040101D5088870478D
:102450000288920604D50888C1B205480FF046BA32
:10246000018821F00F010180704700000038014011
:10247000D0880020104810B501880A0700F1040137
:1024800001D5088810BD028812F0280F0ED00B4825
:102490000988006803688268B2FBF3F403FB142226
:1024A000024411738168491C816010BD018821F0CC
:1024B0000F01018010BD0000004400403C290020B5
:1024C000094801880A0700F1040101D5088870470E
:1024D0000288920603D50888C0B20FF037BA018887
:1024E00021F00F01018070470048004000298189D8
:1024F00002D041F4005101E021F400518181704784
:1025000010B5C1F3421301F01F040121A140012BBA
:1025100007D0022B07D01430002A026805D00A43E6
:1025200004E00C30F8E71030F6E78A43026010BD93
:1025300030B50446008A85B00D464CF6FF71084060
:10254000E98801432182A1894EF6F3100140A88851
:102550002A8910436A890A431043A081A08A4FF652
:10256000FF410840A9890143A1826846FFF768FB43
:102570001B48844201D1039800E00298A189090414
:10258000002900EBC00101EB0010296802DA4FEAD4
:10259000410101E04FEA8101B0FBF1F06422B0FBA0
:1025A000F2F14FEA01114FEA11136FF018056B4376
:1025B00000EB8300A3891D044FF0320306D503EB23
:1025C000C000B0FBF2F000F0070005E003EB0010E4
:1025D000B0FBF2F000F00F000843208105B030BDE1
:1025E000003801403EB50020009001900E2004F01C
:1025F000FFF802900CF0E6FD002817D00C4C0023E9
:102600006A4601A9606910F07FFE6B460222094804
:10261000A16911F0B5F80098002807D006494FF0DD
:1026200080500860BFF34F8FBFF36F8F3EBD000037
:102630000C190020D12B010804ED00E00FB4084B69
:1026400010B504A902AA039800F04CFB044602A9A5
:10265000002000F076FD204610BC5DF814FB000061
:1026600043310008490050EAC12018BF04204A0D38
:1026700018BF40F0010040F2FF72B2EB515F08BF9B
:1026800040F00200012808BF052070472DE9F74FF0
:10269000144696B00021C4E902111799089121F05F
:1026A0000045CA498D4206DC1799C4E9000119B0FA
:1026B0000020BDE8F08FC649DFF818A3A9423CDD31
:1026C0000899C54E0029C54FC54A1799534619DDCB
:1026D000FDF766FF554506D0C24AC34BFDF760FFC4
:1026E000C4E900010AE04FF0D352BF4BFDF758FF99
:1026F00032463B46FDF754FFC4E9000119B0012002
:10270000BDE8F08FFDF7ABFE554506D0B54AB64B98
:10271000FDF7A5FEC4E900010AE04FF0D352B24B29
:10272000FDF79DFE32463B46FDF799FEC4E90001E8
:1027300019B04FF0FF30BDE8F08FAC49A9421799AE
:1027400078DB21F000488346A94AAA4B4146FDF7B1
:102750002DFF0022A84BFDF782FEFEF7D9F9099064
:10276000FEF7B8F906460F469D4A5346FDF71EFF91
:102770005A464346FDF717FF80468A46994A9A4BC8
:1027800030463946FDF712FF2A0D01250B924246CD
:102790005346FDF708FF032DC4E9000139D00B981B
:1027A000C1F30A51401A05EB45111139814230DA63
:1027B0009248C346784400EB0510CDF81CA00C905D
:1027C000D0E9002330463946FDF7F0FECDE902019D
:1027D00002460B4658460799FDF7E2FE80468A46B8
:1027E00002460B4658460799FDF7DAFEDDE902235B
:1027F000FDF7D6FE83460C9803913946D0E90223B3
:102800003046FDF7D3FE5A46039BFDF7C9FE6D1C0B
:10281000BDE708980028A2BF099819B0BDE8F08F5D
:10282000616881F000416160099819B04042BDE8DB
:10283000F08FFFE7C1F3130141F480110E91179956
:10284000C1F30A51A1F2F532511102F01F08C8F18B
:102850002002129200220C920D92694A7A4402EBF5
:10286000810101F1140C0DA95FF00607DCF80020CE
:10287000DCF8045002FA08F3129AD1F800A025FA05
:1028800002F21A430E9BA2FB0356A2FB00329A44AB
:1028900015449A4534BF4FF0010B4FF0000B51F82F
:1028A000043C05EB0B0E7344954234BF0122002219
:1028B0001644BBF1000F02D0AB4202D903E0AB4299
:1028C00001D2012200E000223244C1F800A041E917
:1028D0000223091FACF1040C7F1EC7D10898DDE963
:1028E0000A6500F10050800F11900898099F800040
:1028F000FEF7F0F880468A463846FEF7FCF86FF09F
:102900001D02FEF76CF8074630460591FEF7F3F816
:102910006FF03D02FEF763F8CDE903102846FEF79D
:10292000EAF86FF05D02FEF75AF8064602460B46DB
:102930000191DDE90310FDF792FD3A46059BFDF795
:102940008EFD42465346FDF78AFD00200D46834624
:1029500042465346FDF724FE3A46059BFDF720FE0E
:10296000DDE90332FDF71CFE3246019BFDF71BFE3D
:10297000DFF89480234A4346FDF718FE06460F46CB
:10298000224A234B58462946FDF710FE32463B4665
:10299000FDF765FD0F4606464FF0A84243465846F0
:1029A0002946FDF703FE32463B46FDF758FD179AD0
:1029B00012F0004F04D0119A81F00041524211925E
:1029C000C4E90001119819B0BDE8F08FFB21E93F7F
:1029D0007CD90240FB21F93F7370032E8A19A33B77
:1029E000000040543163621A61B4D03DFB2139418B
:1029F00083C8C96D305FE43F0000E03F88380100C4
:102A000010380100182D4454FB21F93D3326A6113E
:102A1000460B113C2DE9FF4D21F0004807460C46BE
:102A2000B8F1795F08DAFEF773F8002801BF0020DB
:102A3000324904B0BDE8F08D3A46234610461946A7
:102A4000FDF7B4FD054602462D480E460B4606210D
:102A5000784400F05DF82A463346FDF7A7FDDDE92E
:102A6000022382468B4638462146FDF79FFD0446E9
:102A70000F4652465B4628463146FDF797FD2246F3
:102A80003B46FDF78DFD07468A464FF0FF3228464C
:102A90003146FDF7A4FF1B4A90450ADA3A465346F1
:102AA000FDF77EFD04B00022BDE8F04D134BFDF7AD
:102AB0007ABD154A4245A8BFA8F500154FF000049D
:102AC000B8BF124D22462B46FDF76AFD06468846E2
:102AD00022462B4600200949FDF762FD04460D46BB
:102AE0003A46534630464146FDF75AFD04B0224669
:102AF0002B46BDE8F04DFDF756BD00000000F03F4D
:102B0000BC3501003333D33F0000E93F0000D23F22
:102B10002DE9F0414F1E00EBC7010446D1E9000149
:102B200015461E4637F006020DD02A463346FDF7FD
:102B30003DFD7F1E04EBC703D3E90023FDF78FFCA7
:102B400037F00602F1D1022F25D0042F13D0062F23
:102B500018BFBDE8F0812A463346FDF727FDD4E9CA
:102B60000A23FDF77CFC2A463346FDF71FFDD4E916
:102B70000823FDF774FC2A463346FDF717FDD4E918
:102B80000623FDF76CFC2A463346FDF70FFDD4E91A
:102B90000423FDF764FC2A463346FDF707FDD4E91C
:102BA0000223FDF75CFC2A463346FDF7FFFCD4E91F
:102BB0000023BDE8F041FDF752BC00002DE9FF4DB8
:102BC000054621F0004084B00C46B0F1795F0BDA85
:102BD0002846FFF747FD042808BF00F065F828469F
:102BE00008B02146BDE8F08D2A460B461046FDF799
:102BF000DDFC06460F462A462346FDF7D7FC8046F5
:102C000026488A4632463B4605217844FFF780FF36
:102C100083461098029160B3214A224B40465146A8
:102C2000FDF7C4FCCDE900015A4640465146029BDF
:102C3000FDF7BCFC82468846DDE906014FF0FF3215
:102C4000FDF7CDFE52464346FDF7AAFC32463B4611
:102C5000FDF7ACFCDDE90623FDF7A2FCDDE900236E
:102C6000FDF79EFC08B02A462346BDE8F04DFDF76F
:102C70009ABC0B465A4630463946FDF797FC084A3F
:102C8000084BFDF7ECFB42465346FDF78FFC08B0BE
:102C90002A462346BDE8F04DFDF7E1BBFA340100BA
:102CA000495555555555C5BF024A00201107FDF736
:102CB00096BE000001FDFFFF02E008C8121F08C118
:102CC000002AFAD170477047002001E001C1121FAD
:102CD000002AFBD1704700000149086070470000DE
:102CE000482900202DE9FF4F8DB00F4605460026EC
:102CF000DEE1252874D100246D1CF149A246A146CD
:102D000001222B78203B02FA03F0084202D0044350
:102D10006D1CF6E728782A2810D06FF02F0228784B
:102D2000A0F13001092915D80AEB8A0102EB410113
:102D300044F0020400EB010A6D1CF0E757F804AB05
:102D4000BAF1000F03DA44F40054CAF1000A44F067
:102D500002046D1C28782E2817D115F8010F44F0B5
:102D600004042A280ED06FF02F022878A0F1300139
:102D700009290AD809EB890102EB410100EB01099D
:102D80006D1CF2E757F8049B6D1C28786C280FD057
:102D900006DC4C2817D068280DD06A2814D104E02E
:102DA000742810D07A280FD10DE044F400140AE002
:102DB00044F4801401E044F440146978814202D163
:102DC0006D1C04F580146D1C2A786E2A20D00DDC51
:102DD000632A33D005DC002A6FD0582A12D1A2E032
:102DE00011E0642A6AD0692A0CD167E0732A2FD0D7
:102DF00004DC6F2A6FD0702A04D199E0752A6BD059
:102E0000782A6AD01046DDE90F129047761C4EE111
:102E1000C4F30250022806D003280AD0042801CFA8
:102E20000AD0066043E101CF4FEAE671C0E90061D4
:102E30003DE101CF06803AE1067038E117F8040B56
:102E40008DF8000000208DF80100EB46012003E022
:102E500057F804BB4FF0FF3061074FF0000102D478
:102E60000DE008F10101884649450FDA8045F8DB9D
:102E70001BF808100029F4D108E008F10101884688
:102E80008142FADB1BF808100029F6D1DDE90F2397
:102E9000AAEB08008146214600F03BF9304400EBE4
:102EA000080604E0DDE90F121BF8010B9047B8F1AA
:102EB0000108F7D221464846F4E0FDE00A21C4F3B8
:102EC00002534FF0000B0891022B07D001CFC1171E
:102ED000032B09D00AE034E023E024E0FF1D27F0B3
:102EE0000707F7E8020105E000B2C117042B01D182
:102EF00040B2C117002907DA4FF0000CD0EB0C00EC
:102F00006CEB01012D2302E0230504D52B238DF862
:102F10002430012303E0E30701D02023F7E798469C
:102F200050E00A210EE010204FF0000B08900CE05A
:102F300010214FF0000B44F004044FF008090891F1
:102F400003E008214FF0000B0891C4F30253022B59
:102F500004D001CF0021032B06D006E0FF1D27F08F
:102F60000707F7E8020103E080B2042B00D1C0B2EA
:102F70004FF00008230725D5702A2AD0DDF820C09D
:102F80008CF0100C5CEA0B0C09D150EA010306D05E
:102F900030238DF824308DF8252002239846DDF863
:102FA00020C08CF0080C5CEA0B0C0BD150EA01033A
:102FB00001D1630706D530238DF824304FF0010886
:102FC000A9F10109582A09D03EA20B9208AA0A9237
:102FD00011E040238DF824300123DFE73EA2F4E71F
:102FE0005B46089AFDF714FC0B9B9B5C0A9AA2F1C6
:102FF00001020A92137050EA0102F1D10A98ADEB76
:10300000000000F1200B600702D524F4803401E0B9
:103010004FF00109D94502DDA9EB0B0000E00020CB
:1030200000EB0B0141440890AAEB010AE00306D42F
:10303000DDE90F232146504600F06BF806440020DE
:1030400008E009A911F80900DDE90F129047761C84
:1030500009F1010081464045F3DBE0030CD5DDE9D1
:103060000F232146504600F054F8064404E0DDE901
:103070000F1230209047761C0899481E08900029AE
:10308000F5DC08E00A980A990078491C0A91DDE904
:103090000F129047761CBBF10001ABF1010BF1DC84
:1030A00021465046DDE90F2300F020F806446D1C50
:1030B000287800287FF41DAE11B03046BDE8F08FAF
:1030C00009280100303132333435363738396162FE
:1030D00063646566000000003031323334353637C2
:1030E0003839414243444546000000002DE9F04193
:1030F000044600251E461746880405D406E03946D6
:103100002020B04705F10105641EF8D52846BDE82A
:10311000F0812DE9F041044600251E469046C80383
:1031200001D5302700E02027880405D506E0414678
:103130003846B04705F10105641EF8D52846BDE8BC
:10314000F0810A68531C0B601070704710B50AF0CC
:10315000BBFE0549884206D00AF06CFFBDE810406E
:1031600001480AF005BE10BD84160020704700001B
:1031700010B50A2181600549002008800BF004FB8E
:10318000BDE8104064200FF09DBD00005C89002068
:10319000022003F09BBB000010B5782102200BF049
:1031A0001EF8BDE81040024903200AF0C1BF00002C
:1031B0005C89002001F5FA71816006F097BC00007F
:1031C00020B1014680220348FDF752B80149002092
:1031D000088070475C890020FA21816070470000F8
:1031E00010B59CB03822002101200AF0E7FF3922F7
:1031F000002102200AF0E2FF3A22002103200AF017
:10320000DDFF3F22102103200AF0D8FF0D2200210C
:1032100004200AF0D3FF324832A1026811A8FFF758
:103220000DFA11AA0A2101200AF03AFF2F4C207D45
:10323000010643D5400607D53D220A2103200AF0A6
:10324000BDFF01A9202006E03E220A2103200AF04A
:10325000B5FF01A900200AF01FFB002001A92A22C6
:1032600003E00B18401C5A70C0B29DF80430834232
:10327000F7D80A460A2102200AF0F6FE207D8007D0
:1032800001D5072200E008221A2103200AF096FF48
:10329000D4E90C0150EA010216D0B4F9182019AB98
:1032A0000EF08AFF9DF8660000909DF865309DF84D
:1032B00064200FA111A8FFF7C1F909E03C220A21FF
:1032C00003200AF07BFFDEE70EA111A8FDF730F81E
:1032D00011AA0A2104200AF0E3FE1CB010BD000070
:1032E000F01200202530385800000000484500202A
:1032F0003230253032642D253032642D2530326451
:10330000000000002D2D000000B591B0862306229C
:1033100005496846FFF792F9694602200AF0CEFE99
:1033200007F04CF811B000BD683C010810B5A4B01E
:10333000092101200AF053FF0A2102200AF04FFF61
:1033400069460A200AF09CFCBDF800000A2802D950
:103350000A20ADF800008623062213A120A8FFF75B
:103360006DF9002020A96B460BE000BFBDF80040BE
:1033700003EB44046280BDF80020521CADF800202D
:10338000401C0A5C002AF1D1194602200AF002FF13
:103390000B2103200AF023FF07F010F8054802F084
:1033A00075FE24B010BD00005625582E2530325829
:1033B0002D334700E093040010B50446000603D502
:1033C000BDE810400AF008BB600604D506F04CF8D2
:1033D00008B9FFF7BBFE24F080000AF09BFDE00770
:1033E00015D009F0CBFC0A4C216801F59671884292
:1033F0000DD906F075FB08B10AF0A4FD06F0F4FF44
:10340000002804D006F0DAFF09F0B8FC206010BDF7
:103410007402002010B501F055F84FF47A7000E006
:1034200064200FF04FFC07F07BFA0006F8D501206E
:1034300009F02EFEBDE810400AF09CBFFA21816021
:103440007047000030B5AFB05D22002101200AF0C6
:10345000B5FE5E22002102200AF0B0FE60220021AB
:1034600003200AF0ABFE3722002104200AF0A6FE5A
:1034700068460AF0E7F96A46092101200AF07CFE55
:1034800029A928A80AF0D0F9DDE92823092102207A
:103490000AF08EFC2AA80BF057F99DF8A8008006C8
:1034A0001BD5DDE92801DDE92D2302F01BFB0546D4
:1034B0001349FCF79EFFFDF763F9642190FBF1F2DD
:1034C00001FB12042846FDF75BF9024623460DA1D5
:1034D00020A8FFF7B3F820AA00E00CA209210320DE
:1034E0000AF0DEFD0A480BA14378027820A8FFF716
:1034F000A5F820AA092104200AF0D2FD2FB030BD82
:103500000000C84225642E25303264002D2D0000B5
:10351000B50A00202530325825303258000000000E
:103520004968212907D00EDD22290CD18189002983
:1035300009D0491E04E08189C289491C914202D206
:10354000818106F0D3BA70471CB5044668460AF07C
:1035500009F9BDF8040038B10020A081BDF80400CD
:10356000E081009820611CBD4FF4FA6120460AF00A
:10357000C7FB1CBD7FB50446C0894FF4FA65C0B1D6
:10358000A1892069401A401EB0FBF5F105FB110529
:10359000694628460AF0F4F86946204600F018FA11
:1035A0009DF8000006280CD2DFE800F00B0C111685
:1035B0001B21472102200AF012FE294620460AF06C
:1035C0009FFB7FBD2946204600F086F97FBD294636
:1035D000204600F0BEF97FBD2946204600F0AEFA35
:1035E0007FBD6A462946204600F09EF87FBD2946E9
:1035F000204600F0D7FA7FBD0AF0A0BB70B5144694
:103600000D46064688B07B22002103200AF0D6FD35
:103610006B4622462946304606F002F96A460A21E0
:1036200003200AF03DFD08B070BD000010B5174A38
:1036300090B005ABB2F918200EF0E2FD5222002145
:1036400001200AF0BBFD9DF814006421B0FBF1F2EB
:1036500001FB12029DF817000DF1040CBDF81A4091
:103660009DF819309DF81810ACE81B009DF8160065
:1036700000909DF8153006A107A8FEF7DFFF07AA06
:103680000A2101200AF00CFD10B010BD48450020B1
:10369000253032642D253032642D253032642025CA
:1036A0003032643A253032643A253032642E253087
:1036B0003364000070B514460E4605468EB07A227B
:1036C000002102200AF07AFD30460AF003F80021BA
:1036D0000B910C91A0F57F41FF3916D00BA90AF090
:1036E000CDF8E8060CD56078E278A1788DE807007F
:1036F00023780BAA06A103A8FEF7A0FF03AA00E007
:103700000BAA0A2102200AF0CBFC0EB070BD00000B
:103710002573282530325825303258253032582527
:10372000303258290000000030B515460C4693B0E1
:103730004922002101200AF041FD43480CABB0F9B9
:103740001820D5E902010EF037FD9DF83000642104
:10375000B0FBF1F201FB12029DF832009DF83550EA
:103760009DF834309DF833108DE82B009DF83130F2
:1037700036A104A8FEF762FF04AA0A2101200AF07C
:103780008FFCA0B20FAB0122022109F0DDFF9DF8F2
:103790003C0002280DD001280DD04C22002102202F
:1037A0000AF00CFD9DF83C00022806D0012804D048
:1037B0001CE04A22F2E74B22F0E70422A0B20EAB53
:1037C000114609F0C1FF9DF83B109DF83A00CDE984
:1037D00000019DF839309DF8382024A104A8FEF797
:1037E0002DFF04AA0A2102200AF05AFC4E220021D1
:1037F00004200AF0E3FCA0B211AB02220A2109F076
:10380000A3FFBDF844201EA104A8FEF717FF04AAD9
:103810000A2104200AF044FC4D22002103200AF072
:10382000CDFCA0B210AB0122082109F08DFF9DF85C
:10383000402011A104A8FEF701FF04AA0A210320D9
:103840000AF02EFC13B030BD48450020253032640C
:103850002D253032642D2530326420253032643AF3
:10386000253032643A253032640000002530325869
:1038700025303258253032582530325800000000AB
:103880002564000010B5044600780F218AB0B1EB22
:10389000101F01D14A2200E04B22002104200AF02F
:1038A0008DFCE178A078CDE900016378227805A14C
:1038B00002A8FEF7C3FE02AA0A2104200AF0F0FBC8
:1038C0000AB010BD253032582530325825303258D4
:1038D000253032580000000010B590B00C4688B278
:1038E0006B463022082109F02FFF69460CA805F02D
:1038F0004CFEBDF8080001064FEAC06008D500285C
:1039000008DB002104A80EF01DFCFFF78FFE07E086
:10391000002805DA002107A80EF014FC00F0CAF810
:10392000BDF8080006AAC0B20CA9FFF7C3FEBDF897
:103930000E20BDF806100CA8FFF760FE0422A0B20E
:103940000EAB114609F000FF0EA8FFF79BFF10B069
:1039500010BD10B59EB00C4688B210AB30220821C5
:1039600009F0F2FE10A91CA805F00FFE002114A812
:103970000EF0E8FBFFF75AFEBDF8480016AAC0B2E9
:103980001CA9FFF797FEBDF84E20BDF846101CA8F5
:10399000FFF734FE5022002104200AF00FFCA0B2F1
:1039A0006B464022382109F0CFFE002069462A22CA
:1039B00003E00B18401C5A7080B29DF8003083421F
:1039C000F7D80A460A2104200AF04EFB1EB010BDAB
:1039D00070B5CAB00D46044669460AF0CBFD28789A
:1039E000062825D2DFE800F02403061B1E2120A9AB
:1039F000442001E020A942200AF042F9BDF800105D
:103A00006D4605EB410120204880BDF8000020AB49
:103A1000401CADF800000021BDF880001BE020A98B
:103A20004320E9E720A94520E6E720A99C20E3E719
:103A300020A94620E0E700BFBDF8006003EB41028B
:103A400005EB460652887280BDF80020521C491CC6
:103A5000ADF80020C9B28842EED8A289E389521C91
:103A600012A141A8FEF7EAFD002441AE0CE0BDF82A
:103A70000010305D05EB41014880BDF80000401C9E
:103A8000641CADF80000E4B241A8FCF72FFC1E282E
:103A900003D241A8FCF72AFC00E01E20A042E6D891
:103AA000694600200AF076FB4AB070BD2825642FD5
:103AB0002564290010B5174A90B005ABB2F918205B
:103AC0000EF09EFB5222002101200AF077FB9DF8A8
:103AD00014006421B0FBF1F201FB12029DF8170003
:103AE0000DF1040CBDF81A409DF819309DF818101E
:103AF000ACE81B009DF8160000909DF8153006A15B
:103B000007A8FEF79BFD07AA0A2101200AF0C8FAC0
:103B100010B010BD48450020253032642D253032CC
:103B2000642D2530326420253032643A25303264E9
:103B30003A253032642E25303364000010B59EB033
:103B40000C4688B26B463022082109F0FDFD69461B
:103B50001CA805F01AFD002104A80EF0F3FAFFF7E7
:103B600065FDBDF8080006AAC0B21CA9FFF7A2FDBA
:103B7000BDF80E20BDF806101CA8FFF73FFD51222E
:103B8000002104200AF01AFBA0B20CAB402238211D
:103B900009F0DAFD0CAA0A2104200AF065FA1EB029
:103BA00010BD0000F0B50C4693B09A220021012010
:103BB0000AF004FBA0B210AB0422082109F0C4FDF6
:103BC000514F109839460EF03BFF504E0CABB6F9F2
:103BD00018200EF0F1FA9DF830006425B0FBF5F1E5
:103BE00005FB11029DF832009DF835C09DF8343078
:103BF0009DF833108DE80B109DF8313044A104A8D6
:103C0000FEF71CFD04AA0A2101200AF049FA9B22B2
:103C1000002102200AF0D2FAA0B210AB04220C213B
:103C200009F092FD394610980EF00AFFB6F91820F7
:103C30000CAB0EF0C1FA9DF830009DF83430B0FBAB
:103C4000F5F105FB11029DF832009DF835509DF805
:103C500033108DE82B009DF831302DA104A8FEF71C
:103C6000EDFC04AA0A2102200AF01AFAA0B211AB54
:103C70000122042109F068FD9DF8440002280DD0BE
:103C800001280DD04C22002103200AF097FA9DF85C
:103C90004400022806D0012804D01CE04A22F2E7A2
:103CA0004B22F0E7A0B20FAB0422002109F04CFD3B
:103CB0009DF83F109DF83E00CDE900019DF83D3094
:103CC0009DF83C201AA104A8FEF7B8FC04AA0A211A
:103CD00003200AF0E5F94D22002104200AF06EFAD3
:103CE000A0B212AB0122062109F02EFD9DF848205A
:103CF00012A104A8FEF7A2FC04AA0A2104200AF0DB
:103D0000CFF913B0F0BD000080436D384845002066
:103D1000253032642D253032642D25303264202543
:103D20003032643A253032643A2530326400000083
:103D30002530325825303258253032582530325807
:103D40000000000000F0D2BB00F0BCBB00F04EBF92
:103D500002490020087409F021BE000048450020F7
:103D600030B5A1B0044615466946312009F088FFF8
:103D70000A48007C58B9BDF800106A4602EB4101C0
:103D80002A204880BDF80000401CADF800002A46FB
:103D9000684661690AF046FC21B030BD4845002004
:103DA00002490120087409F0F9BD000048450020CF
:103DB00030B5A1B0044615466946302009F060FFD1
:103DC0000A48007C58B1BDF800106A4602EB410178
:103DD0002A204880BDF80000401CADF800002A46AB
:103DE000684661690AF01EFC21B030BD48450020DC
:103DF00000F0DCBF10B50AF067F8164CA04223D0E3
:103E00000AF018F914490A208B7C012B0ED0134AB2
:103E1000C4F8002002F5B471C4E903100020606109
:103E2000A061BDE810400B4809F0A2BF0B4A283A38
:103E30002260097DC90702D002F1F001ECE70749D1
:103E40002831E9E709F07AFF0AF038F8A042F9D101
:103E500010BD0000DC8900204845002014580108EE
:103E600010B50BF06BFA0CF085FF0BF091F80CF02D
:103E7000EFFA0BF091F80DF0D7F80CF06DFE0BF0A7
:103E8000DFFA0CF05BFC0AF0F7FE05480CF0F0FFDF
:103E90000CF084FA0BF048FDBDE810400BF00CB9B3
:103EA0000038014010B50446006810280CD1606845
:103EB000152805D0412807D1BDE8104009F03EBFC4
:103EC000FFF798FF0020606010BD0068102803D045
:103ED000202808D100F0F6BA32231A4601214FF407
:103EE000F77009F0F1B8704770B54E681E491F4B66
:103EF00001250C7BCA895B88212E24D004DC112E7D
:103F000008D0122E2ED105E0222E14D0412E0DD035
:103F1000422E27D1002C25D10D73002B22D0002A50
:103F200020D1CB81BDE8704000F0F8BA002C19D048
:103F30000020087312E0012C14D1012A01D9521E6D
:103F400006E0CB8108E0012C0CD19A4202D2521C2F
:103F5000CA8101E003B1CD8100F0E0FABDE8704014
:103F600005F0C4BD70BD000090160020484500203B
:103F700001218160054800214FF6FF720173C18164
:103F800002824173C0F81210C1827047901600205F
:103F900010B5086820281BD10E4C0120207388889A
:103FA00081B221820020C4F81200E08260830A48B6
:103FB000807C012809D04FF4202000BF09F018FCB4
:103FC000E081BDE8104005F091BD4FF48020F5E799
:103FD00010BD0000901600204845002010B5017B60
:103FE00039B1074C0549616000F00EF80548606082
:103FF00010BDBDE8104000F021B90000C44B01081D
:10400000EC780020DC3C0108F0B5CFB006460AF0A1
:1040100097FC7B4C33ABB4F918200EF0F1F833ABBE
:1040200001220021774809F063FA03A91D2009F055
:1040300027FE03AB02227221724809F0DBFAF289F3
:104040002AB171A123A8FEF7F9FA23AB00E06FA310
:10405000012296216B4809F033FA03A9172009F0D1
:104060000FFE03AB11220021664809F0C3FA6288F3
:1040700065A123A8FEF7E2FA23AB1022372161489D
:1040800009F01EFA03A9192009F0FAFD03AB112269
:1040900072215C4809F0AEFAE2885BA123A8FEF722
:1040A000CDFA23AB10229621564809F009FA318A3D
:1040B0004FF6FF77BF25B94202D103A9202011E0B6
:1040C000A1F57F40FE381FD1718B23AA06F11200A3
:1040D00005F0B0FA23AB202213214A4809F0F0F989
:1040E00003A91F2009F0CCFDBDF80C0003ABA0EB29
:1040F000800005EB800000EBD07041103122414878
:1041000009F078FA4FB0F0BDA07C012823D04FF41D
:1041100020203EAA09F05EFB3EA809F0DBFA39AE8A
:10412000B8425ED035A909F09BFB00208DF8EA006B
:10413000BDF80401C00611D54398030EC0F3074231
:10414000C0F307218DE80E00C3B2324630A123A888
:10415000FEF774FA06E04FF48020DAE7314623A830
:10416000FCF7E6F823A8FCF7C1F800EB4000B5EB3C
:10417000800F03D8202223AB002109E023A8FCF7FD
:10418000B5F8A0EB800005EB8000410823AB2022AE
:104190001C4809F095F903A91C2009F071FD03AB37
:1041A00031220021174809F025FAB4F91820DDE979
:1041B000440133AB0EF024F8BDF8D2109DF8D100C5
:1041C000CDE900019DF8D0309DF8CF2016A123A89D
:1041D000FEF734FA23AB30222A210A4809F070F99D
:1041E00090E723AA3EA8429905F024FA23A8FCF7F9
:1041F0007DF8A0EB800005EB800041083346C6E760
:1042000048450020EC780020253264002D2D000068
:10421000257328253032582530325825303258251C
:104220003032582900000000253032643A253032FF
:10423000643A253032642E2530336400F0B59BB0EB
:104240000AF016F805460AF019F8044616A80AF00E
:104250007BFA834F814878600AF072FB814E14AB81
:10426000B6F918200DF0A8FF0AF093FE00289DF87B
:1042700052009DF855309DF854209DF853108DE85C
:104280000F009DF851309DF8502001D076A100E03C
:104290007DA104A8FEF7D2F904AB00224E2170489C
:1042A00009F00EF98048786016220021012009F0FB
:1042B00085FF17220F21012009F080FF182200211D
:1042C000022009F07BFF1A220F21022009F076FF5D
:1042D0001E220021032009F071FF1B22002104206F
:1042E00009F06CFF600609D50B2D01D202230AE00C
:1042F000142D01D2032306E0042304E0A00601D517
:10430000012300E0002300221146554809F07CF803
:1043100016A805F01DFCD0B19DF85800400607D541
:104320009DF8590020B1022805D24FF0060309E09C
:104330004FF0050306E002D14FF0070302E0032827
:104340002FD0092300222821454809F05DF8B07CD0
:1043500048B3328855A104A8FEF770F904AA0921D0
:10436000012009F09DFE728850A104A8FEF766F9AD
:1043700004AA1821012009F093FEF2884BA104A899
:10438000FEF75CF904AA0921022009F089FEF2680F
:10439000002A17DB45A104A8FEF750F904AA18214A
:1043A00012E00823CEE742A20B21012009F078FE9B
:1043B0003FA21A21012009F073FE3DA20B21022029
:1043C00009F06EFE3AA21A21022009F069FE9DF85A
:1043D000580040060AD59DF85900032806D3DDE9A8
:1043E00019230921032009F0E3FC04E030A20B218A
:1043F000032009F055FE00252C4607E0204601F079
:1044000041FF08B96D1CEDB2641CE4B201F0E0FE9E
:10441000A042F3DC01F0DCFE421B26A104A8FEF75B
:104420000DF904AA0F21042009F03AFE2A4621A121
:1044300004A8FEF703F904AA1821042009F030FEAD
:10444000B07C012808D0022804D199221C21042024
:1044500009F0B4FE1BB0F0BD9822F7E75047010801
:10446000EC780020484500205B253032642D253053
:1044700032642D2530326420253032643A253032C2
:10448000643A253032645D00253032642D253032A7
:10449000642D2530326420253032643A2530326470
:1044A0003A25303264000000DC3C01082534640009
:1044B0002D2D00002564000001F5FA71816005F0E2
:1044C00015BB000010B509F0F9FC074CA04204D060
:1044D00009F0B0FD204609F04BFC00202073BDE838
:1044E000104005F003BB00009016002010B509F045
:1044F000E5FC094CA04204D009F09CFD204609F0DF
:1045000037FC012020730020E081034800F006F80A
:10451000BDE8104005F0EABA9016002010B5044638
:10452000C08920B90948408830B10120E081E08984
:104530000AF0FCF8208210BD4FF6FF70208204487C
:104540000021C0F81210C18210BD000048450020B3
:104550009016002010B54A680E21232A72D01DDC67
:10456000142A70D00EDC102A70D0112A41D0132AE0
:104570006BD1D0F8D03000EB8312527B0F2A64D27B
:10458000362429E0202A54D0212A2AD0222A5CD19C
:10459000D0F8D010002958D0491E27E0422A2ED04A
:1045A0000EDC242A6DD0252A32D0402A4DD1D0F8F5
:1045B000D02000EB82135B7B0F2B46D2312468E0C6
:1045C000432A4CD0442A40D1D0F8D03000EB83129B
:1045D000527B0F2A79D23724024401EB83115454C1
:1045E0001FE0D0F8D01002296FDA491CC0F8D010B3
:1045F00067E000F0BBF8BDE8104009F09FBBD0F8C1
:10460000D01000EB8111487B00285ED0401E57E09F
:10461000D0F8D03000EB8312527B0F2A55D23024D1
:10462000DAE7D0F8D01000EB8110417B491C4173D0
:1046300047E0D0F8D03000EB8312527B0F2A44D2EF
:104640003224C9E714E029E000E03EE0D0F8D020B1
:1046500000EB82135B7B0F2B37D2332419E0D0F8A9
:10466000D02000EB82135B7B0F2B2ED2342410E082
:10467000D0F8D03000EB8312527B0F2A25D235249C
:10468000AAE7D0F8D02000EB82135B7B0F2B1CD263
:104690003824034401EB82115C54C2E7D0F8D020E7
:1046A00000EB82135B7B0F2B0FD2034401EB8211D3
:1046B00039245C54D0F8D01000EB8111487B401CA9
:1046C0004873BDE8104005F011BA10BD70B5002662
:1046D000054606734FEA060405EB841104F1400019
:1046E0000D31C0B209F0D8F8641CE4B2032CF3D346
:1046F000C5F8D06070BD000070B50446007B10B1F5
:104700000E21022026E015A20021012009F0C8FC9C
:1047100013A20021022009F0C3FC12A200210320F1
:1047200009F0BEFC5FF0000504EB85120D3202219A
:10473000681C09F099FC6D1C032DF5DBD4F8D00042
:104740005F2204EB8011401C497B891C09F09AFC14
:1047500004210846BDE8704009F041BD312E00003B
:10476000322E0000332E000009F0E8BA2DE9F041A6
:104770000024054626460E2705EB841107EB84121C
:1047800011F80D0F2844865404F14000C0B209F01E
:10479000F1F8641CE4B2032CEED3BDE8F081000014
:1047A0001FB54FF4165000900020ADF80400ADF88E
:1047B0000600ADF80800ADF80C000820ADF80A00BE
:1047C000694602480CF0E2FB1FBD000000380140C2
:1047D000704710B504464FF4967109F091FA002025
:1047E000E0602061BDE81040FFF7DABF02F0B2BF21
:1047F00070B504460069A8B070B101280FD0022836
:1048000069462DD05FF0660009F03AFA6946022049
:1048100009F0C0FC28B070BD69466420F4E7694621
:10482000652009F02DFA0F480FA1E268438820A8FF
:10483000FDF704FF002420AD6E460BE0BDF800102C
:10484000285D06EB41014880BDF80000401CADF832
:104850000000641C20A8FBF749FDA042EED8D5E774
:104860006720D1E74845002025642F25640000001B
:10487000F0B504460069544FCDB00E4601F596756B
:1048800028B101285AD009F059FA4DB0F0BD0DF009
:10489000D1FD32200EF016FA4C4E30680DF0D4FDEA
:1048A0001CA808F0CFFF702220A96846FBF7E0FCA7
:1048B0000DF1700CBCE80F000DF0C6FC0DF0BAFD58
:1048C00070680DF0C1FDB87C012834D04FF4202071
:1048D0004CA908F063FF9DF833119DF83201CDE932
:1048E00000019DF831319DF8302139A13CA8FDF738
:1048F000A5FE3CA80DF0A8FD3AA00DF0A5FD30697D
:104900000DF0A2FD7A8839A13CA8FDF797FE3CA8DE
:104910000DF09AFD0DF08EFDF0680DF095FD0AF09A
:104920000FF80DF0B1FC0DF085FD0DF083FD0121B8
:10493000A5602161A9E74FF48020C9E77988E06884
:10494000884207DA80B20AF003F9E068401CC4E943
:10495000025036E023A00DF077FD0DF06BFD21A095
:104960000DF072FD0DF066FD1EA00DF06DFD0DF059
:1049700061FD1CA00DF068FD0DF05CFD19A00DF0AF
:1049800063FD0DF057FD17A00DF05EFD0DF052FD1B
:1049900014A00DF059FD0DF04DFD12A00DF054FDC9
:1049A0000DF048FD0FA00DF04FFD0DF043FD0DA0E3
:1049B0000DF04AFD0DF03EFD06F5FA660221A660F7
:1049C000216105F093F860E748450020F45B010899
:1049D000253032582530325825303258253032585B
:1049E00000000000202020200000000025640000BE
:1049F00010B504464868212807D00FDD22280DD1C4
:104A0000E06800280ADD401E07E001F0E1FB0146F6
:104A1000E068021D914201DD401CE06010BDFA21FA
:104A200081600021C1607047F0B591B00546002457
:104A30003CE00E19304601F0E3FB0746304601F03A
:104A4000CDFB0346721C21A101A80097FDF7F6FDDE
:104A500001AA0021601C09F023FB304601F0C6FBCF
:104A6000A0F58051113901D125220FE0A0F5805128
:104A7000103901D1232209E0B0F5835F03D0B0F5EE
:104A8000825F02D006E0242200E097221121601C00
:104A900009F094FB304601F0F5FB08B1022200E07A
:104AA00003221A21601C09F089FB641C01F090FBB1
:104AB000E968401A042801DD042003E001F088FBC6
:104AC000E968401AA042B4DC11B0F0BD25642E2084
:104AD000253038582D25303358000000FA318160D8
:104AE00005F004B8FA2181607047000030B5384CF9
:104AF000A9B0A07C012807D0022808D07921022083
:104B000009F06DFB29B030BD4FF4802501E04FF472
:104B1000202527A9284608F041FE02A9284608F0CA
:104B20004BFE57220021012009F048FB582210219A
:104B3000012009F043FB54220021022009F03EFB32
:104B400055220021032009F039FB562200210420C0
:104B500009F034FB22881FA122A8FDF76FFD22AACD
:104B60000A21012009F09CFA62881AA122A8FDF707
:104B700065FD22AA1A21012009F092FA02AA0A214F
:104B8000022009F0F9FA9DF89F109DF89E00CDE9EA
:104B900000019DF89D309DF89C200FA122A8FDF7F3
:104BA0004DFD22AA0A21032009F07AFA607C400612
:104BB00001D55A2203E0E07CC10605D55B220A211B
:104BC000042009F0FBFA9DE740079BD55922F6E740
:104BD00048450020256400002530325825303258E1
:104BE000253032582530325800000000094806218F
:104BF000837C0948012B09D0084A00BFC0E9032182
:104C0000002141618161044809F0B2B8034A603A69
:104C1000F4E7000048450020AC160020CC5A0108FB
:104C20004968212907D00FDD22290DD1818900296A
:104C30000AD0491E05E0054A81895288491C9142E3
:104C400002D2818104F052BF704700004845002025
:104C5000002181817047000070B5474D0446AEB019
:104C6000A87C002879D06888002878D0A189814262
:104C700001D3401EA081A089401C80B209F056FDDE
:104C80000146A87C012873D04FF4202014AA08F014
:104C9000A1FD14A808F01EFD0646002024902590D2
:104CA00024A9304608F0EAFD26A9304608F0D8FDD0
:104CB0007A220021012009F081FA2AAA0A21012082
:104CC00009F0EEF962220021022009F077FAB5F925
:104CD0001820DDE91A0111AB0DF092FA9DF847009A
:104CE00001AEBDF84A309DF849209DF848100FC626
:104CF0009DF8460000909DF845309DF844201FA186
:104D000005A8FDF79BFC05AA0A21022009F0C8F9B5
:104D10007B220021032009F051FA05AA14A8199951
:104D200004F0CCFC05AA0A21032009F0B9F90622F7
:104D30000021042009F042FAA2896B88521C18A1B4
:104D400005A8FDF77BFC05AA0721042009F0A8F9B6
:104D50002EB070BD01E002E00AE0792100E0772189
:104D6000022009F03CFAC821204608F0C9FFEFE70D
:104D70004FF480208AE70000484500202530326447
:104D80002D253032642D2530326420253032643AAE
:104D9000253032643A253032642E253033640000E9
:104DA00025642F256400000008F0C8BF0948817CF5
:104DB0000948012909D00949C16004210161002184
:104DC00041618161044808F0D3BF04493039C160B2
:104DD0000321F3E748450020BC180020445E010889
:104DE0007047C82108F08CBF30B5A1B01AA20021CD
:104DF000012009F055F91A4A0521012009F034F97A
:104E000001A9012008F048FD01AA0021022009F0B3
:104E10002BF909F033FA054609F012FA044609F0B5
:104E200009FA024623460FA111A80095FDF706FCDA
:104E300011AA0021032009F033F919A809F006FA94
:104E400010A20021042009F02BF919AA0521042041
:104E500009F026F921B030BD41504E3A2000000043
:104E60001894002049443D25582C524553554C5424
:104E70003D253034582C53544154453D253032584B
:104E800000000000434F50533D200000C8318160B6
:104E900004F02CBE70B50646002400253246294693
:104EA000204609F0EFF86D1C202DF7D3641C052C6B
:104EB000F3D370BD4968222926D012DC142943D0CF
:104EC00008DC102934D0112926D0122928D0132922
:104ED0001ED133E0152919D0202927D0212917D137
:104EE00018E0412914D008DC232925D0242929D011
:104EF000252917D040290BD116E042290ED043298D
:104F000018D0442904D11BE05E2100E04D2101733B
:104F100004F0ECBD7621FAE74F21F8E73C21F6E7F3
:104F20003E21F4E73021F2E73121F0E73221EEE7CC
:104F30003321ECE73421EAE73521E8E73621E6E7DB
:104F40003721E4E73821E2E73921E0E770B504468C
:104F50004FF47A7108F0D4FE002525738F2080F37A
:104F60001188BFF34F8FBFF36F8F03A008F030F8A5
:104F700085F3118870BD000030310000007B00F027
:104F80005FB801F57A718160017B0D2902D201F1D0
:104F9000010102E002D14FF00001017304F0A6BD4F
:104FA0002DE9F84F02274FF074094FF04C0A6026A4
:104FB0004FF020081E254B463A4651461F480097A1
:104FC00008F02AF93E244B463A4651461B480094C5
:104FD00008F022F94B46224651461848009408F042
:104FE0001BF953463A4649461448009408F014F910
:104FF00000244FF0030AA8EB050BA8EB0400000601
:10500000C10DB1FBFAF00025371A00EB0609AF42DB
:105010000ADCA94508D3444506D8A34504DC22464A
:105020002946064808F0E4F96D1CEDB2C02DEED318
:10503000641CE4B2402CE0D3BDE8F88FEC7800208B
:1050400070B504460021674808F04CF80E2C7DD25C
:10505000DFE804F00709070B0D1323334D677D9339
:10506000A7BEFF2104E0002102E0AA2100E05521B3
:10507000BDE870405B4808F035B8002500242246A2
:105080002946584808F0B4F9641CE4B2402CF6D321
:10509000AD1CEDB2C02DF1D370BD01250024224618
:1050A0002946504808F0A4F9641CE4B2402CF6D319
:1050B000AD1CEDB2C02DF1D370BD002400252246F9
:1050C0002946484808F094F9AD1CEDB2C02DF6D33E
:1050D0000125621C2946434808F08AF9AD1CEDB24F
:1050E000C02DF6D3A41CE4B2402CE7D370BD00243D
:1050F0000125224629463B4808F07AF9AD1CEDB25D
:10510000C02DF6D30025621C2946364808F070F9F8
:10511000AD1CEDB2C02DF6D3A41CE4B2402CE7D3F5
:1051200070BD002600250024321929462D4808F0BC
:105130005FF9641CE4B2082CF6D36D1CEDB2C02DEF
:10514000F1D31036F6B2402EECD370BD44E0002609
:1051500000250024321908322946224808F048F96F
:10516000641CE4B2082CF5D36D1CEDB2C02DF0D355
:105170001036F6B2402EEBD3E7E70025002405EB0E
:105180004506A64204D82A462146164808F030F9BA
:10519000641CE4B2C02CF4D36D1CEDB2402DEDD3F1
:1051A000D3E70025002405EB450600BFC4F1C0008D
:1051B000B04204DB2A4621460A4808F019F9641C6B
:1051C000E4B2C02CF2D36D1CEDB2402DEAD3BCE7A3
:1051D000BDE87040FFF7E4BE2046BDE87040FFF731
:1051E00059BE0000EC78002070B5044690F84C00E1
:1051F00000281FD1207B00281CD004F10C010D4693
:10520000442008F0B7FB09F03FF850B1022084F8C1
:105210004C00294610200CF0EBFEBDE8704004F075
:1052200065BC822184F84C1020464FF4FA6108F0E6
:1052300067FDF2E770BD10B54B6800F10D02242B3D
:1052400059D016DC142B5BD00ADC102B49D0112B63
:105250002FD0132B60D1017B0F295DD2362353E071
:10526000202B39D0232B57D1017B0F2954D2352342
:105270004AE0422B21D013DC252B23D0402B26D013
:10528000412B49D190F84C20002A45D000224A6099
:10529000832280F84C204FF4FA6108F031FD37E0AA
:1052A000432B23D0442B37D1017B0F2934D2372312
:1052B0002AE0BDE81040FFF797BF017B00292BD003
:1052C000491E24E0017B0F2926D230231CE0017BFC
:1052D0000F2921D2312317E0017B0F291CD2322361
:1052E00012E0017B0F2917D233230DE0017B0F2938
:1052F00012D2342308E0017B0F290DD2382303E0BA
:10530000017B0F2908D239238B54017B491C01737F
:10531000BDE8104004F0EABB10BD002180F84C103D
:1053200000F10C01442008F0B7BA704710B50A68C4
:10533000082A0FD1496859B15FF0810280F84C20EA
:105340004FF4FA6108F0DCFCBDE8104004F0CEBB7D
:105350008022F3E710BD10B5044690F84C0068B108
:1053600002281ED080281ED081281ED083281ED05F
:1053700085210220BDE8104008F031BF81210120C5
:1053800008F02DFF04F10C020A21022008F06CFE47
:10539000217B5F220A31022008F074FE04210846B6
:1053A000E8E78221E5E78321E3E78421E1E788213B
:1053B000DFE77047C821816009F09CB909F072B934
:1053C00010B58EB06C21022008F009FF8F2080F309
:1053D0001188BFF34F8FBFF36F8F684607F0D2FB82
:1053E000044607F0CBFC002181F3118804F57A74A0
:1053F00084421ED900F072FE30B132231A460321D6
:105400004FF4F77007F060FE0399684659B10A46F9
:1054100004AB801C029904F0A7F904A9032008F04A
:105420004DFE0EB010BD04AA801C029904F002F9D2
:10543000F3E700BFF5E710B5044607F09FFCC8305E
:10544000A060BDE8104004F051BB000070B50446F8
:105450004868112816D1A089002813D10A4D0226C8
:10546000A87C28B1012006F067FA687C400600D4C9
:10547000A68104F03BFB2046BDE870404FF4FA6182
:1054800008F03EBC70BD000048450020002181812D
:105490007047000010B5044619488AB0807C012886
:1054A0000ED04FF4202008A908F078F9A08950B157
:1054B000012822D02B21022008F091FE0AB010BD55
:1054C0004FF48020EFE72721012008F088FE2821F3
:1054D000022008F084FE0521042008F080FE9DF8DB
:1054E00023309DF8222007A16846FDF7A7F86A46F9
:1054F0000B21012008F0D4FDE0E72A21DBE70000C2
:105500004845002025303258253032580000000030
:1055100008F014BC0D4A4968538892889A1A92B2CE
:10552000212907D011DD22290FD1818900290CD032
:10553000491E07E0521E0C2192FBF1F281898A423A
:1055400003DD491C818104F0D1BA70474845002031
:1055500010B504460020A0810648817C19B101885D
:105560008088814204D107F009FC00F5FA60A06050
:1055700010BD0000484500202DE9F047454D074685
:10558000A0B0A87C4FF6FF76A0B16888A988401A21
:1055900010EA060410D006220021042008F00EFEB6
:1055A0000B340C20B4FBF0F3BA89501C09280AD93B
:1055B000093A09E0792100E09E21022008F00FFE5F
:1055C00020B0BDE8F087521C33A10BA8FDF736F8D8
:1055D0000BAA0721042008F063FD00244FF4802962
:1055E0004FF4202AA8463CE0D4B3B8F8001000914C
:1055F0006D1C98F81200ABB2012844D0504610221E
:10560000802108F057F90546B042D9D098F8120029
:1056100001283AD05046294608F04EF80146B042DB
:10562000CED098F81200012831D050461BAA08F0BD
:10563000EDF81BA808F04EF8B042C1D002A908F05E
:105640000FF904F00301012000EBC10100EB94000D
:1056500006AA08F025FD641CA4B20C2CC4D3AFE745
:10566000FFE7B88900EB400004EB800083B298F8B4
:105670001200012805D050461022802108F04FF971
:10568000C1E74846F8E74846B9E74846C3E7484611
:10569000CCE700004845002025642F256400000069
:1056A00008F04CBB0D4A4968138852889A1A92B286
:1056B000212907D011DD22290FD1818900290CD0A1
:1056C000491E07E0521E0C2192FBF1F281898A42A9
:1056D00003DD491C818104F009BA70474845002068
:1056E0000021818105498A7C1AB10A8849888A4249
:1056F00003D14FF4FA6108F003BB7047484500201E
:105700002DE9F047424D07469CB0A87C10B328888D
:105710006988401A0404240C1ED0062200210420AB
:1057200008F04CFD0B340C20B4FBF0F3BA8939A11E
:10573000521C01A8FCF782FF01AA0721042008F0EF
:10574000AFFC00244FF480294FF4202A4FF6FF7657
:10575000A84645E0792100E07221022008F03FFDD3
:105760001CB0BDE8F087D4B3B8F8001000916D1CF0
:1057700098F81200ABB2012844D050468022002194
:1057800008F098F80546B042EAD098F812000128CF
:105790003AD05046294607F08FFF0146B042DFD08D
:1057A00098F81200012831D0504619AA08F02EF8B6
:1057B00019A807F08FFFB042D2D011A908F050F815
:1057C00004F00301012000EBC10100EB940015AAD5
:1057D00008F066FC641CA4B20C2CC4D3C0E7FFE73D
:1057E000B88900EB400004EB800083B298F8120007
:1057F000012805D050468022002108F090F8C1E72A
:105800004846F8E74846B9E74846C3E74846CCE784
:105810004845002025642F256400000008F08EBA5A
:1058200070470021C160016108F06ABA7047C16821
:1058300029B1006928B1A121022008F0D0BC9F2124
:10584000FAE7A021F8E710B50446C06818B1BDE832
:10585000104008F073BA0121E16008F087FF206171
:105860004FF4FA61204608F04BFABDE8104004F00E
:105870003DB900002DE9F84F04460D4621F00040E7
:1058800000917449814213DC7349884201DC08D1DC
:105890003CB120462946BDE8F84F4FF00102FBF726
:1058A0009EB86E48002DCCBF6D496E49BDE8F88F9B
:1058B0006D49814211DD6D498142D8BF4FF0FF36FD
:1058C0006DDD20462946FCF7CDFE042808BFFDF714
:1058D000EBF920462946BDE8F88F6549654F25F06C
:1058E0000045814233DD6449814219DD002632469C
:1058F0004FF0804320462946FAF7B1FD80468A469C
:10590000012220462946FBF76AF800223B46FAF7B7
:1059100047FE42465346FAF7BBFE04460D463EE0BC
:1059200001260022BA463B4620462946FAF797FD53
:1059300080460F460022534620462946FAF730FE9D
:1059400042463B46FAF7A4FE04460D4627E04B4983
:1059500081421BDDDFF828810226002243462046D3
:105960002946FAF723FE00223B46FAF778FD074660
:105970008A460022434620462946FAF711FE3A4657
:105980005346FAF785FE04460D4608E003262246F4
:105990002B4600203B49FAF77BFE04460D46224683
:1059A0002B4610461946FAF701FE8B468246024600
:1059B0000B46FAF7FBFD07460246334888460B467E
:1059C00006217844FDF7A4F852465B46FAF7EEFD4F
:1059D00082462E488B463A46434605217844FDF7D9
:1059E00097F83A464346FAF7E1FD02460B46002E89
:1059F000504659460CDAFAF732FD22462B46FAF7A2
:105A0000D5FD01B022462B46BDE8F04FFAF7CBBDDD
:105A1000FAF725FD22462B46FAF7C8FD1C4A7A44C0
:105A200002EBC603D3E90023FAF7BAFD22462B4660
:105A3000FAF7B6FD174A7A4402EBC603D3E900230E
:105A4000FAF7B1FD009A002AB8BF81F00041BDE825
:105A5000F88F0000000010440000F07F182D44541F
:105A6000FB21F93FFB21F9BF0000DC3F0000203E95
:105A70000000F33F0000F03F0000E63F00800340DD
:105A80000000F83F0000F0BF920501005005010042
:105A9000EE040100B604010010B5002305E0C45C6B
:105AA000944201D0002010BD5B1C8B42F7DB01202B
:105AB00010BD0178642910D24178491E0C290CD2FE
:105AC0008178491E1F2908D2C178172905D8017984
:105AD0003B2902D840793B2801D90020704701209A
